:020000040800F2
:1000000000200020D5010008DD010008E101000802
:1000100000000000000000000000000000000000E0
:10002000000000000000000000000000E5010008E2
:100030000000000000000000E9010008D12B0008CA
:10004000F1010008F1010008F1010008F1010008C8
:10005000F1010008F1010008F1010008F1010008B8
:10006000F1010008F1010008F1010008F1010008A8
:10007000F1010008F1010008F1010008F101000898
:10008000F1010008F101000800000000F101000882
:10009000F1010008F1010008F1010008F101000878
:1000A000F1010008F1010008B5370008F10100086E
:1000B0002D3C000800000000F101000800000000D5
:1000C0005FF808F130B583B0314B324A1360324AE1
:1000D0001360324B3249002201E01A6004338B4234
:1000E000FBD32C4B1B68002B03D12B4B1B68002B25
:1000F00000D0FEE7264B2B4A13602B4A13602B4B94
:100100002B4A2C4903E010681860043304328B42F8
:10011000F9D3244B1A68284B9A4204D1224B1A680F
:100120001B689A4200D0FEE701F006FC01A8694670
:1001300001F088FB214B224DED1AAD10002404E0A4
:10014000A3001E4A9B5898470134A542F8DC1D4B7A
:100150001D4DED1AAD10002404E0A30019481B58F2
:1001600098470134A542F8DC0198009903F0BEF9E4
:10017000051C164B164CE41AA41004E0013CA30025
:10018000124A9B589847002CF8DC281C01F02CFBE5
:10019000BABADECA88000020DC06002088000020F1
:1001A000E006002000000020840000200000002065
:1001B000F84D00088800002078563412F401000839
:1001C000F4010008F4010008F8010008F801000833
:1001D000F801000808B5FFF775FFC046FEE7C04606
:1001E000FEE7C046FEE7C046FEE7C046FEE7C04663
:0401F000FEE7C04620
:0401F400A536000824
:1001F80010B5041C0A4B984203D00A48852101F027
:1002080025FB074B9C4209D18024A400201C012116
:1002180000F096FE201C002100F092FE10BDC046A2
:10022800002401402446000838B5051C0C1C314B3D
:10023800984203D03048A12101F008FB2368002B25
:1002480009D0082B07D0102B05D0182B03D02A482B
:10025800A22101F0FBFA2379012B03D92648A32117
:1002680001F0F4FAA368002B0FD08022D200934249
:100278000BD080221201934207D0C0221201934270
:1002880003D01D48A42101F0E1FAE368002B0DD04A
:10029800402B0BD0802B09D0C02B07D080225200D6
:1002A800934203D01448A52101F0D0FA2369002B0A
:1002B80005D0202B03D01048A62101F0C7FA6369A6
:1002C800002B05D0042B03D00B48A72101F0BEFA60
:1002D800EA680A4B1A4023795B0321680B43A1683B
:1002E8000B43E1680B4321690B4361690B431343DB
:1002F800EB6038BD002401402446000803D2FFFF0C
:100308000023036003718360C36003614361704726
:1003180038B5041C0D1C0C4B984203D00B48E9213E
:1003280001F094FA012D03D90848EA2101F08EFA68
:10033800002D04D0A26801231343A36003E0A26840
:1003480002231343A36038BD00240140244600085B
:1003580070B5041C0D1C161C0D4B984203D00D489B
:100368000D4901F073FA002D01D0EB0C04D00948B7
:10037800B421890001F06AFA072E03D90548074914
:1003880001F064FAA36A1D43A562666170BDC046A8
:100398000024014024460008CF020000D1020000DA
:1003A80010B5041C0E4B984203D00E480E4901F0BC
:1003B8004DFAA26880231B061343A3600023F02193
:1003C8000902A268D20FD20701338B4201D0002A5A
:1003D800F7D1A368002B01DB206C00E0002010BDE2
:1003E80000240140244600083D03000010B5041C09
:1003F800054B984203D00548054901F027FAA26841
:1004080004231343A36010BD0024014024460008C0
:100418006F03000038B5041C0D1C0D4B984204D026
:100428000C48EA21890001F011FA012D03D9094885
:10043800094901F00BFA002D04D0E26801231343A7
:10044800E36003E0E36801229343E36038BDC046FC
:100458000024014024460008A903000038B5041C04
:100468000D1C074B984203D00648074901F0EEF9E6
:10047800E36802229343E360E3681D43E56038BD07
:100488000024014024460008C303000038B5051CB9
:100498000C1C194B984203D01848194901F0D6F999
:1004A800631E012B1CD9042C1AD0082C18D0802CC0
:1004B80016D0102C14D0134B9C4211D0124B9C42D6
:1004C8000ED0124B9C420BD0114B9C4208D081237A
:1004D8001B069C4204D009488B21C90001F0B6F9DB
:1004E800E30103D5A8680B4B184000E028680440D6
:1004F800201C441EA04138BD0024014024460008A9
:10050800570400000100000102000001040000017E
:1005180010000001FFFFFFFE10B5041C324B98428B
:1005280015D0324B984212D0314B98420FD0314BF4
:1005380098420CD0304B984209D0304B984206D0A4
:100548002F4B984203D02F48842101F07FF922686D
:100558002D4B13402360002323606360A360E36096
:10056800214B9C4205D1294B59680F220A435A60F6
:1005780039E01E4B9C4205D1244B5968F0220A43AE
:100588005A6030E01A4B9C4206D1204B5968F02241
:1005980012010A435A6026E0164B9C4206D11B4BB7
:1005A8005968F02212020A435A601CE0124B9C421E
:1005B80006D1164B5968F02212030A435A6012E01A
:1005C8000E4B9C4206D1114B5968F02212040A4383
:1005D8005A6008E00A4B9C4205D10C4B5968F0223E
:1005E80012050A435A6010BD080002401C00024070
:1005F8003000024044000240580002406C000240B3
:100608008000024054460008FEFF0000000002403F
:1006180038B5051C0C1C4E4B984215D04D4B9842D2
:1006280012D04D4B98420FD04C4B98420CD04C4BAB
:10063800984209D04B4B984206D04B4B984203D076
:100648004A48CC2101F002F9A368002B05D0102BF1
:1006580003D04648CD2101F0F9F8E268013A444B4D
:100668009A4203D94148CE2101F0F0F82369002BC2
:1006780005D0402B03D03D48CF2101F0E7F863694E
:10068800002B05D0802B03D03848D02101F0DEF8AC
:10069800A369002B0BD080225200934207D08022FE
:1006A8009200934203D03148D12101F0CFF8E36999
:1006B800002B0BD08022D200934207D08022120157
:1006C800934203D02948D22101F0C0F8236A002BB5
:1006D80005D0202B03D02548D32101F0B7F8636A51
:1006E800C022920193420DD080229201934209D0F8
:1006F80080225201934205D0002B03D01B48D421FD
:1007080001F0A4F8A36A002B07D08022D2019342FB
:1007180003D01648D52101F099F82A68154B1A40DC
:10072800A368216A0B4321690B4361690B43A169E3
:100738000B43E1690B43616A0B43A16A0B43134303
:100748002B60E3686B602168A9606368EB6038BD63
:10075800080002401C0002403000024044000240F1
:10076800580002406C0002408000024054460008D5
:10077800FEFF00000F80FFFF38B5041C0D1C164B50
:10078800984216D0154B984213D0154B984210D06A
:10079800144B98420DD0144B98420AD0134B9842F0
:1007A80007D0134B984204D012482A21FF3101F098
:1007B8004DF8012D04D90F489521490001F046F85C
:1007C800002D04D0226801231343236003E022682C
:1007D800094B1340236038BD080002401C0002404A
:1007E8003000024044000240580002406C000240C1
:1007F8008000024054460008FEFF000010B5041CAB
:10080800431E012B60D904285ED008285CD010282C
:100818005AD0202858D0402856D0802854D0802339
:100828005B00984250D080239B0098424CD0802394
:10083800DB00984248D080231B01984244D0802393
:100848005B01984240D080239B0198423CD0802392
:10085800DB01984238D080231B02984234D0802391
:100868005B02984230D080239B0298422CD0802390
:10087800DB02984228D080231B03984224D080238F
:100888005B03984220D080239B0398421CD080238E
:10089800DB03984218D080231B04984214D080238D
:1008A8005B04984210D080239B0498420CD080238C
:1008B800DB04984208D080231B05984204D00648E0
:1008C8008021890000F0C2FF044B18680440201CF6
:1008D800441EA04110BDC046544600080000024016
:1008E80010B5041C030F01D1002804D103488F213F
:1008F800890000F0ABFF024B5C6010BD5446000855
:1009080000000240F8B5051C0E1C9023DB05984238
:1009180012D03D4B98420FD03C4B98420CD03C4BE8
:10092800984209D03B4B984206D03B4B984203D0A3
:100938003A48B42100F08AFF3368002B03D13748C6
:10094800B52100F083FF3379032B03D93348B6214F
:1009580000F07CFFF379022B03D93048B72100F06F
:1009680075FF002401274BE03B1CA34032681A4066
:100978009A4244D13379013B012B28D87379012B52
:1009880005D9032B03D02548C72100F05FFFAA68CB
:100998006300032199408A43AA60AA687179994043
:1009A8000B1C1343AB60B379012B03D91B48CE2131
:1009B80000F04CFFAA8823041B0C391C99408A4379
:1009C800AA80AA88B17999408BB21343AB80296871
:1009D80063000322101C98408143296028683179FC
:1009E800994001432960E9682004C00B8240914383
:1009F800E960EA68F17999400B1C1343EB60013414
:100A08000F2CB1D9F8BDC0460004004800080048C2
:100A1800000C0048001000480014004884460008F4
:100A280038B5041C0D1C9023DB05984213D0274BC6
:100A3800984210D0264B98420DD0264B98420AD0A7
:100A4800254B984207D0254B984204D024489B2137
:100A5800490000F0FBFE6B1E9BB2012B30D9042D20
:100A68002ED0082D2CD0102D2AD0202D28D0402D66
:100A780026D0802D24D080235B009D4220D0802367
:100A88009B009D421CD08023DB009D4218D0802310
:100A98001B019D4214D080235B019D4210D080230E
:100AA8009B019D420CD08023DB019D4208D080230E
:100AB8001B029D4204D00A483821FF3100F0C6FECF
:100AC800208A0540281C451EA84138BD000400485E
:100AD80000080048000C00480010004800140048B6
:100AE8008446000838B5041C0D1C9023DB05984289
:100AF80013D00E4B984210D00D4B98420DD00D4B91
:100B080098420AD00C4B984207D00C4B984204D01C
:100B18000B48C821490000F099FE002D04D108486F
:100B28009221FF3100F092FEA56138BD0004004813
:100B380000080048000C0048001000480014004855
:100B48008446000838B5041C0D1C9023DB05984228
:100B580013D00E4B984210D00D4B98420DD00D4B30
:100B680098420AD00C4B984207D00C4B984204D0BC
:100B78000B48A621FF3100F069FE002D04D108487A
:100B8800D321490000F062FE258538BD00040048E5
:100B980000080048000C00480010004800140048F5
:100BA8008446000870B5041C0D1C161C9023DB0538
:100BB800984212D0174B98420FD0174B98420CD03E
:100BC800164B984209D0164B984206D0154B9842BE
:100BD80003D01548154900F039FE0F2D03D91248E6
:100BE800134900F033FE072E03D90F48114900F0CE
:100BF8002DFE07232B409B009E40E9080831890001
:100C08000A590F20984082430A510B591E430E512E
:100C180070BDC0460004004800080048000C0048A9
:100C28000010004800140048844600080D02000027
:100C38000E0200000F02000070B5041C8378012B1F
:100C480003D91A48522100F001FE6378032B03D917
:100C58001648532100F0FAFDA378002B1BD0257805
:100C6800AA08134BC0329200D65803210D40E90060
:100C7800FF20051C8D40AE43351C6678B601304018
:100C88008840011C2943D15022781F210A400121A4
:100C98009140196008E023781F21194001238B40F7
:100CA800191C8023024AD15070BDC046B8460008BE
:100CB80000E100E070B5041C5E4B5B680C22134039
:100CC800042B0CD002D8002B05D028E0082B0AD022
:100CD8000C2B20D023E0584B0360002022E0564B19
:100CE800036000201EE0534B5D68AD025A682D0F6B
:100CF8000235C0235B021A4202D15048684308E01B
:100D08004C4BDB6A0F21194001314B4802F0C0FF00
:100D18006843206006E04A4B0360002002E0464B2F
:100D280023600020434B5A681206120F454DA95CF8
:100D3800C9B22668321CCA40111C62605A68520542
:100D4800520FAA5CD2B2D1400A1CA1601B6BD90514
:100D580002D43D4BE36008E0364B5B68590402D48B
:100D68005308E36001E09308E360324B1B6B5906BC
:100D780002D4364B236102E080231B0223612D4BF2
:100D88001B6BD90602D42C4B636100E06661294BCA
:100D98001B6B990701D1A26119E0264B1B6B03213C
:100DA8000B40012B01D1A66111E0224B1B6B0321E3
:100DB8000B40022B03D180231B02A36107E01D4BCC
:100DC8001B6B03210B40032B01D11B4BA361194B58
:100DD800196BC0239B02194201D1E26120E0154B37
:100DE8001B6BC02292021A4080235B029A4201D1F7
:100DF800E66115E00F4B1B6BC02292021A4080235C
:100E08009B029A4203D180231B02E36108E0094B4D
:100E18001A6BC0239B021A409A4201D1064BE36128
:100E2800044B1B6B1A0602D4054B236200E02062B8
:100E380070BDC0460010024000127A0000093D0053
:100E4800006CDC0204000020809FD50012800000A6
:100E580038B5041C0D1C0D4B184201D1002803D1D4
:100E68000B480C4900F0F2FC012D03D908480A4947
:100E780000F0ECFC002D04D0084B5A6914435C6167
:100E880003E0064B5A69A2435A6138BDAAFF81FEA6
:100E9800EC46000836050000370500000010024047
:100EA80038B5041C0D1C0D4B184201D1002803D184
:100EB8000B480C4900F0CAFC012D03D908480A491F
:100EC80000F0C4FC002D04D0084B9A6914439C61BF
:100ED80003E0064B9A69A2439A6138BDFEA5B8FFA4
:100EE800EC4600085A0500005B05000000100240AF
:100EF80038B5041C0D1C0E4B184201D1002803D133
:100F08000C480D4900F0A2FC012D04D90948B12173
:100F1800C90000F09BFC002D04D0084BDA6914438B
:100F2800DC6103E0054BDA69A243DA6138BDC046EB
:100F3800CCB61185EC460008870500000010024079
:100F480038B5041C0D1C0E4B184201D1002803D1E2
:100F58000C480D4900F07AFC012D04D90948B92143
:100F6800C90000F073FC002D04D0084BDA68144364
:100F7800DC6003E0054BDA68A243DA6038BDC0469E
:100F8800FEA5B8FFEC460008C705000000100240A7
:100F9800F8B54F464646C0B4051C0C1C644B984235
:100FA80006D0644B984203D06348EB2100F04EFC16
:100FB8002388002B0FD08022D20093420BD08022AE
:100FC8001202934207D0C0221202934203D05A4819
:100FD800EE2100F03BFC638882225200934205D048
:100FE800002B03D05448EF2100F030FCA388C02226
:100FF8009200934233D08022D20093422FD0A02275
:10100800D20093422BD0C022D200934227D0E022B4
:10101800D200934223D08022120193421FD0902203
:10102800120193421BD0A0221201934217D0B02282
:101038001201934213D0C022120193420FD0D02242
:10104800120193420BD0E0221201934207D0F02202
:101058001201934203D03848F02100F0F7FBE388EF
:10106800002B05D0022B03D03348F12100F0EEFB12
:101078002389012B03D93048F22100F0E7FB63896B
:1010880080229200934205D0002B03D02A48F321F6
:1010980000F0DCFBA389002B11D0082B0FD0102BFC
:1010A8000DD0182B0BD0202B09D0282B07D0302B94
:1010B80005D0382B03D02048F42100F0C7FBE38982
:1010C800002B05D0802B03D01B48F52100F0BEFB78
:1010D800238A002B03D11848F62100F0B7FB2B8890
:1010E800C12292011A4091462288E389E78826891D
:1010F8006089A18913433B43334303430B434A4667
:1011080013432B80AA880D4B1340A2881343AB804E
:10111800238A2B822B8804229343628813432B80D3
:10112800AA8B074B1340AB830CBC90469946F8BD7D
:1011380000300140003800401C470008FFF0FFFF66
:10114800FFF7FFFF38B5041C0D1C0F4B984207D062
:101158000E4B984204D00E48C821FF3100F076FBB0
:10116800012D04D90A48E421490000F06FFB002D45
:1011780004D0228840231343238003E0238840229D
:101188009343238038BDC0460030014000380040FA
:101198001C47000838B5041C0D1C064B984206D0A5
:1011A800054B984203D00548054900F04FFB2573CD
:1011B80038BDC04600300140003800401C470008D8
:1011C800EB02000038B5051C0C1C144B984206D0E5
:1011D800134B984203D01348134900F037FB802C77
:1011E80015D0402C13D0202C11D0102C0FD0022C4D
:1011F8000DD0012C0BD080235B009C4207D0042C1F
:1012080005D0082C03D00748084900F01FFB28899F
:101218000440201C441EA04138BDC0460030014097
:10122800003800401C470008DA040000DB04000016
:10123800F0B5474680B48AB0041C0D1C5C4B98423C
:101248000CD05C4B984209D05B4B984206D05B4B64
:10125800984203D05A48DC2100F0F8FA2A68013A8B
:10126800584B9A4203D95648DD2100F0EFFA6B68D3
:10127800002B0AD080225201934206D0524A934250
:1012880003D04F48DE2100F0E1FAAB68002B0BD009
:1012980080229201934207D0C0229201934203D048
:1012A8004748DF2100F0D2FAEB68002B0BD08022F0
:1012B800D200934207D0C022D200934203D04048C4
:1012C800E02100F0C3FA2B690C22191C914301D1CB
:1012D800002B03D13A48E12100F0B8FA6B69002BE2
:1012E8000FD08022520093420BD08022920093426A
:1012F80007D0C0229200934203D03148E22100F087
:10130800A5FA236801229343236062682F4B134098
:10131800AA681343636022682D4B1A406B68E9681A
:101328000B4329690B4313432360A268294B1340DD
:101338006A691343A36001A8FFF7BCFC1C4B9C42DD
:1013480001D1079F05E01B4B9C4201D1089F00E09B
:10135800039F236819040CD57F00B8462F684046C0
:10136800391C02F095FC061C4046391C02F0D4FCDE
:101378000AE02A689046381C111C02F089FC061CF9
:10138800381C414602F0C8FC2A68520800239142E2
:101398005B41F6182368190404D533075B0F0E4A1E
:1013A80016401E43B6B2A6810AB004BC9046F0BDF2
:1013B800003801400044004000480040004C004014
:1013C8004C4700087F8D5B0000100010FFCFFFFF27
:1013D800F3E9FFFFFFFCFFFFF0FF000038B5041C36
:1013E8000D1C124B98420DD0114B98420AD0114B4C
:1013F800984207D0104B984204D01048C8214900A1
:1014080000F024FA012D04D90C489221FF3100F094
:101418001DFA002D04D0226801231343236003E042
:10142800236801229343236038BDC0460038014039
:101438000044004000480040004C00404C47000871
:1014480038B5041C0D1C0D4B98420CD00C4B98421F
:1014580009D00C4B984206D00B4B984203D00B484E
:101468000B4900F0F3F90B4B9D4203D907480A4991
:1014780000F0ECF9ED05ED0D258538BD003801408B
:101488000044004000480040004C00404C47000821
:1014980095030000FF0100009603000010B5041C2E
:1014A800094B98420CD0094B984209D0084B9842F6
:1014B80006D0084B984203D00748084900F0C6F9FF
:1014C800A08CC005C00D10BD00380140004400408C
:1014D80000480040004C00404C470008A6030000AC
:1014E80070B5051C0C1C161C2C4B98420CD02C4BB0
:1014F800984209D02B4B984206D02B4B984203D0E8
:101508002A482B4900F0A2F984235B009C4225D08D
:10151800284B9C4222D0284B9C421FD0274B9C42F0
:101528001CD0274B9C4219D0264B9C4216D0264BE8
:101538009C4213D0C0239B009C420FD0234B9C425B
:101548000CD0234B9C4209D0224B9C4206D0224B04
:101558009C4203D01548214900F078F9012E03D99F
:1015680012481F4900F072F92B1CA2B2120AFF217F
:101578000C400121A1400C1C022A01D12B1D03E0C3
:10158800032A01D12B1C0833002E03D01A681443F8
:101598001C6002E01A68A2431A6070BD003801405E
:1015A8000044004000480040004C00404C47000800
:1015B80005070000070107000601060005010500F0
:1015C80004010400060208000A0309001A010B00BE
:1015D8001B010C000E011100160314000607000081
:1015E8000707000038B5051C0C1C314B98420CD07D
:1015F800304B984209D0304B984206D02F4B984236
:1016080003D02F482F4900F021F9012C49D0802C14
:1016180047D0402C45D0202C43D0102C41D08023DB
:101628005B009C423DD080239B009C4239D0082C13
:1016380037D0042C35D0022C33D08023DB009C42D9
:101648002FD080231B019C422BD080235B019C421E
:1016580027D08023DB019C4223D080231B029C429D
:101668001FD080235B029C421BD080239B029C429C
:1016780017D08023DB029C4213D080231B039C429B
:101688000FD080235B039C420BD080239B039C429A
:1016980007D08023DB039C4203D009480A4900F0A5
:1016A800D5F8E8690440201C441EA04138BDC04656
:1016B800003801400044004000480040004C004011
:1016C8004C470008930700009407000038B5051C34
:1016D8000C1C2F4B98420CD02E4B984209D02E4B05
:1016E800984206D02D4B984203D02D482D4900F042
:1016F800ADF884235B009C422AD02B4B9C4227D018
:101708002A4B9C4224D02A4B9C4221D0294B9C42F4
:101718001ED0294B9C421BD0284B9C4218D0284BEA
:101728009C4215D0274B9C4212D0274B9C420FD08D
:10173800264B9C420CD0264B9C4209D0254B9C4200
:1017480006D0254B9C4203D01548244900F07EF86A
:10175800A3B21B0AFF222240012191400A1C012B3F
:1017680002D129680A4006E0022B02D169680A40C2
:1017780001E0A9680A40240C0123A3401C1CEB6962
:101788001C400020002A02D0201C441EA04138BD65
:10179800003801400044004000480040004C004030
:1017A8004C470008E607000007010700060106008D
:1017B8000501050004010400060208000A030900E7
:1017C8000003030000030200000301001A010B00DC
:1017D8001B010C000E01110016031400E70700009E
:1017E800FEE7C04608B5034800F054F80120FFF7AB
:1017F800F7FFC0468047000808B50D4B1B68002B53
:1018080002D10C4A0A4B1A60094B1B6803300322A9
:1018180090431818084A904206D902F089FA0C2316
:1018280003600120404202E0014A1060181C08BD14
:101838008C000020E0060020001C0020012303602B
:10184800014B0B607047C0461400002008B5031C0C
:101858000A1C0348191C00F005F8FFF7C3FFC0462F
:10186800D44700080FB400B583B004AB04CB019390
:101878000748802102F094FB011E03DD044800F0B4
:1018880053F8011C081C03B008BC04B01847C04634
:101898009400002010B5041C02F03AFB011C201C27
:1018A80000F042F80248012100F03EF810BDC046A1
:1018B80000480008F0B55F4656464D464446F0B429
:1018C80085B0041C8A46435C0E1C002B1BD10425E2
:1018D800281C211CABBE041C1DE0351E102D00D990
:1018E8005D46434604E022786946CA540133013410
:1018F800AB42F8D36F464246FA544846391CABBE51
:10190800071C761B05E010239B460021884604220D
:101918009146002EE1D1504605B03CBC9046994610
:10192800A246AB46F0BDC04608B5FFF7C3FF08BDE9
:1019380008B500F05BF808BD82B00023019300935E
:10194800274B1968802252020A431A60191C802208
:101958009202A020C0010B6813400093019B013341
:101968000193009B002B02D1019B8342F3D11C4BB6
:101978001B689A0302D50123009301E0002300931A
:10198800009B012B2AD11122164B1A60144B5A685E
:101998005A605A685A605968134A0A405A60596826
:1019A800882252030A435A601968802252040A4363
:1019B8001A60191C802292040B681342FCD0084B51
:1019C8005A6803218A435A60596802220A435A60B6
:1019D800191C0C224B681340082BFBD102B070472E
:1019E8000010024000200240FF7FC0FF08B5124BE4
:1019F800196801221143196058681049014059605B
:101A080018680F490140196018680E4901401960AB
:101A180058680D4901405960D96A0F208143D9623D
:101A2800186B0A4901401963596B914359630022A5
:101A38009A60FFF781FF08BD001002400CB8FF084C
:101A4800FFFFF6FEFFFFFBFFFFFFC0FFACFEFFFF3F
:101A580070B5041C0E1C0023037073238360081CDC
:101A680002F056FA0130606002F068F9051E02D1F2
:101A78000323237003E0311C02F042FA2561201C85
:101A880070BDC0460023037069238360042343604C
:101A98000161704700230370692383600423436056
:101AA8000161704700230370662383600423436049
:101AB8000161704710B582B06B4600910192002217
:101AC80002707422826008224260021C103212CB1B
:101AD80012C202B010BDC046002101700821416049
:101AE80064218160026143617047C046F0B54F468A
:101AF8004646C0B483B0071C89469046002303704D
:101B080062238360101C04307860009201AD6C463B
:101B18000334042304E023782B70331C0135013C83
:101B28005E1E002BF7DC019C009400280DDD02F0FE
:101B380005F9051E02D103233B7008E010C0494691
:101B4800424602F00FF93D6101E000233B61381C79
:101B580003B00CBC90469946F0BDC04610B5041CB5
:101B68004368002B0BDD8368732B03D1006902F0F7
:101B7800EFF804E0622B02D1006902F0E9F8201CBA
:101B880010BDC04602230370816000234360704784
:101B980000238268692A00D10369181C7047C0466F
:101BA80010B5041C0020A368622B08D16368934217
:101BB80005DC081C21691A1C02F0D4F8606810BD05
:101BC80070B5431C012282560126212A01D1831CAB
:101BD800002670427041C0B214E001241C572D2C1D
:101BE8000AD10C7852B265B2AA4203DC02229A5694
:101BF80095420DDD033305E052B200240C57A24292
:101C080008D001331A785D2A05D0002AE5D102E010
:101C1800301C00E0301C70BD70B50E1C013013E0A4
:101C2800013400E0041C23787D2B05D0002B03D061
:101C38002F2B01D02C2BF3D1251A311C2A1C02F092
:101C48006EF9002809D0601C03787D2B07D0002B83
:101C580007D02F2BE6D1002004E0281C02E000204A
:101C680000E0002070BDC04608B5031C02785D2A5C
:101C780012D050B25D2805DC01203F2A27D05B2A0C
:101C880005D01EE07B2A0FD07D2A12D019E0181C3F
:101C9800FFF796FF1BE0013B00229A565B2AFAD118
:101CA800181CFFF78DFF12E0181CFFF7B5FF0EE0B8
:101CB800013B00229A567B2AFAD1181CFFF7ACFF89
:101CC80005E050B20023CB56C01A4242504108BD2D
:101CD80070B5041C0D1C0B782F2B01D0002B0ED1D6
:101CE80023782F2B2ED00120002B2ED000202A2B3A
:101CF8002BD160782F2827D04342584125E0067819
:101D08002A2E0BD10130FFF7E3FF031C0120002B23
:101D18001BD1691C201CFFF7DBFF16E0FFF7A4FFAF
:101D2800002812D05B2E03D07B2E06D100E00134B0
:101D380023785D2B01D07D2BF9D1601C691CFFF73E
:101D4800C7FF02E0012000E0012070BDF0B5574652
:101D58004E464546E0B480460F1C0B7800200A1C0E
:101D6800002B01D178E0013213782F2B04D0002BFF
:101D7800F9D14446002008E04446002005E05BB263
:101D88002A3B59424B41C018013423782F2B01D0EC
:101D9800002BF4D1013C551E012815D002282BD068
:101DA80054E0201C291CFFF75FFF002854D05D2E4B
:101DB80003D07D2E06D100E0013C23785B2B01D0B7
:101DC8007B2BF9D1013C013D26782A2EE9D101204F
:101DD80042E0201C291CFFF747FF00283CD05D2E5D
:101DE80003D07D2E06D100E0013C23785B2B01D087
:101DF8007B2BF9D1013C013D26782A2EE9D101350A
:101E0800A946013CA2461DE0544601235B42994481
:101E18004E4612E0201C311CFFF726FF00280FD089
:101E28005D2D03D07D2D06D100E0013C23785B2B8E
:101E380001D07B2BF9D1013C013E25782A2DE9D12F
:101E4800444508D0B945DFD8002005E04046391C94
:101E5800FFF73EFF00E001201CBC90469946A246D1
:101E6800F0BDC046F0B557464E464546E0B48046FC
:101E78000F1C9246994602F039F800280BD14046CB
:101E880002F046F852461060381C02F041F84B4602
:101E98001860032064E00023524613604A4613602A
:101EA8003D1C444645E02A2E14D1201C291CFFF76E
:101EB8004DFF002801D153E0013423782F2B03D0A4
:101EC800002BF9D100E001352B782F2B31D0002BD6
:101ED800F9D12EE02A2B0ED100E0013426782F2EDE
:101EE80003D0002EF9D100E001352E782F2E20D016
:101EF800002EF9D11DE0201C291CFFF7B5FE002893
:101F08002DD05B2E08D100E001340023E3565D2B71
:101F1800FAD1013401350CE07B2E08D100E0013400
:101F28000023E3567D2BFAD101342D1801E001344A
:101F380001352B78002B02D02678002EB3D14246EB
:101F4800A31A52461360EF1B4B461F602878434282
:101F580058412378002B03D10223184300E00020C6
:101F68001CBC90469946A246F0BDC04683688B4289
:101F780003DD43688900C85802E004230373002086
:101F88007047C04600B583B00068801801AA6B4648
:101F9800FFF768FF033843425841C0B203B000BDA1
:101FA80038B5041C151C1A1CFFF7ECFF0023002889
:101FB80002D0201CA8470123181C38BD70B5051C89
:101FC8000E1C006801F0C4FE301C01F0A1FF0130B6
:101FD80001F0B4FE041E04D103232B7300232B60ED
:101FE80003E0311C01F08CFF2C6070BD70B5051C3E
:101FF800067B731E9E41F6B2002408E0281C211CB3
:10200800FFF7B4FF03785A1E93411E430134AB68AF
:10201800A342F3DC301C70BD38B5041CFFF7A6FFE3
:10202800051C201CFFF7E2FF021C0020002A02D139
:10203800281CFFF7ADFD38BDF8B5041C171C1D1C86
:10204800FFF794FF061C201CFFF7D0FF0024002890
:1020580009D17368AB4200DC1D1C301C391C2A1CDA
:10206800FFF79EFD041C201CF8BDC04638B5041CB3
:10207800FFF77CFF051C201CFFF7B8FF0023002892
:1020880000D12B7A58B238BD70B5041C151CFFF767
:102098006DFF061C201CFFF7A9FF011C002000296A
:1020A80004D1B3685B1B5D426B41D8B270BDC046BA
:1020B80008B56922FFF7E8FF08BDC04608B56222E7
:1020C800FFF7E2FF08BDC046F0B54F464646C0B42C
:1020D80085B0061C0C1CFFF789FF002800D0B3E070
:1020E8003768381C01F014FF421C03258543201C67
:1020F800391C00F0C9FC04E0201C002100F0ACFCF5
:102108003D1C6F1E002DF7D1201C2C2100F0A4FCD3
:1021180008E0301C291CFFF7A9FFC1B2201C00F001
:102128009BFC0135B268AA42F3DC0323934306D132
:10213800042304E0201C002100F08EFC2B1C5D1EF3
:10214800002BF7D10027032291460423984678E014
:10215800301C391CFFF70AFF051C8368732B01D05C
:10216800622B12D1201C29696A6800F08DFC6B680B
:102178005B424A46134004E0201C002100F06CFC3E
:102188002B1C5D1E002BF7D15AE0642B11D11730A0
:1021980002AA082304E0037813700B1C01320138EB
:1021A800591E002BF7DC201C02A9082200F06CFC49
:1021B80046E0742B2ED1011C103102A8082201F030
:1021C800D1FD01A96A460B32434604E013780B702F
:1021D800031C0131013A581E002BF7DC019B0093C8
:1021E800201C6946424600F04FFC01A96A460F329E
:1021F800434604E013780B70031C0131013A581E62
:10220800002BF7DC019A0092201C6946424600F038
:102218003BFC15E0542B13D0462B11D0011C133175
:1022280002AA434604E00B781370031C01320139FB
:10223800581E002BF7DC6A68201C02A900F024FC59
:102248000137B368BB4283DC05B00CBC90469946A5
:10225800F0BDC04670B5041CCEB2182001F004FDD4
:10226800051C71B2FFF78EFC2B78032B01D1237369
:1022780011E0A16801318900606801F019FE0028A9
:1022880002D10323237306E06060A2689300C5505F
:10229800A3680133A36070BD38B5041C0D1C8269A6
:1022A800002A08DD43695A1C42610269D1548369D6
:1022B800013B836110E041691131006901F0F8FDCB
:1022C8002061002806D063695A1C6261C554102336
:1022D800A36101E00323237338BDC04610B5041C75
:1022E8000069102101F0E4FD2061002802D01023CC
:1022F800A36103E0032323730023236100236361A5
:1023080010BDC04638B5041C0025056085600573FE
:102318004560056145618561FFF7E0FF657338BD7C
:1023280038B5041C0D1CFFF7EDFF201C291CFFF716
:1023380045FE201C38BDC04610B5041CFFF7E2FF5F
:1023480002232373201C10BD70B5061C00230373E1
:1023580000240BE0301C211CFFF708FE051E04D0EA
:10236800FFF7FCFB281C01F079FC0134B368A34299
:10237800F0DC706801F0ECFC00237360B3607373E9
:10238800301CFFF7ABFF70BD10B5041C006801F0EE
:10239800DFFC201CFFF7D8FF206901F0D9FC201CC6
:1023A80010BDC04610B5041C2169FFF707FE0023C5
:1023B8002373201CFFF792FF10BDC046F0B54746B7
:1023C80080B48AB0071C0C1C00265FE2381C311C44
:1023D800FFF7CCFD0378022B00D056E28368623BFE
:1023E800122B00D956E29B00CB4AD3589F467A69F4
:1023F800042A00D04EE202A8396901F0B3FC04A90E
:102408006A460B32042304E013780B70031C013175
:10241800013A581E002BF7DC049DBB689E421ADA6D
:10242800381C311CFFF7A2FD041E04D0FFF796FBF1
:10243800201C01F013FC182001F016FC041C291CB8
:10244800FFF720FB2378032B01D13B7326E0B6006E
:102458007B689C5122E09E421ED1182001F004FCAA
:10246800041C291CFFF70EFB2378032B01D13B73B7
:1024780014E0B96801318900786801F019FD002875
:1024880002D103233B7309E07860BA689300C45013
:10249800BB680133BB6001E004233B73381CFFF7C2
:1024A8001DFFF7E17B69042B00D0F3E102A839692D
:1024B800042201F057FC04A96A460B32042304E005
:1024C80013780B70031C0131013A581E002BF7DCFE
:1024D800049DBB689E421ADA381C311CFFF746FD82
:1024E800041E04D0FFF73AFB201C01F0B7FB1820AC
:1024F80001F0BAFB041C291CFFF7D4FA2378032B3C
:1025080001D13B7326E0B6007A68945122E09E42DE
:102518001ED1182001F0A8FB041C291CFFF7C2FAE1
:102528002378032B01D13B7314E0B968013189008A
:10253800786801F0BDFC002802D103233B7309E051
:102548007860BA689300C450BB680133BB6001E08F
:1025580004233B73381CFFF7C1FE9BE17B69082B02
:1025680000D097E102A83969082201F0FBFB04A911
:102578006A460F32082304E013780B70031C0131FC
:10258800013A581E002BF7DC049C059DBB689E424F
:102598001EDA381C311CFFF7E9FC8046002804D0FD
:1025A800FFF7DCFA404601F059FB182001F05CFB0C
:1025B8008046221C2B1CFFF78FFA42461378032B08
:1025C80001D13B7328E0B60042467B689A5123E06C
:1025D8009E421FD1182001F047FB061C221C2B1C11
:1025E800FFF77AFA3378032B01D13B7314E0B9680B
:1025F80001318900786801F05BFC002802D10323CF
:102608003B7309E07860BA689300C650BB68013331
:10261800BB6001E004233B73381CFFF75FFE39E120
:102628007B69082B00D035E168463969082201F03A
:1026380099FB04A96A460332042304E013780B705B
:10264800031C0131013A581E002BF7DC049A009252
:1026580004A96A460732042304E013780B70031CAC
:102668000131013A581E002BF7DC049B019302A8A4
:102678006946082201F076FBBB689E4220DA381CC6
:10268800311CFFF773FC041E04D0FFF767FA201C07
:1026980001F0E4FA06A802A9082201F063FB182059
:1026A80001F0E2FA041C0699079AFFF703FA237867
:1026B800032B01D13B7333E0B6007A6894512FE0C5
:1026C8009E422BD104A802A9082201F04BFB08A8BE
:1026D80004A9082201F046FB182001F0C5FA041CE1
:1026E8000899099AFFF7E6F92378032B01D13B7380
:1026F80016E0B96801318900786801F0D9FB002833
:1027080002D103233B730BE07860BA689300C4508E
:10271800BB680133BB6003E03048000804233B7307
:10272800381CFFF7DBFDB5E0002C00D0B2E03D69B6
:10273800BB689E421ADA381C311CFFF717FC041ECE
:1027480004D0FFF70BFA201C01F088FA182001F0DA
:102758008BFA041C291CFFF77BF92378032B01D182
:102768003B7326E0B6007B689C5122E09E421ED156
:10277800182001F079FA041C291CFFF769F923785D
:10278800032B01D13B7314E0B968013189007868E3
:1027980001F08EFB002802D103233B7309E0786027
:1027A800BA689300C450BB680133BB6001E00423DE
:1027B8003B73381CFFF792FD06237B736AE07D6943
:1027C800042D67DD3B69984602A8191C042201F014
:1027D800C9FA04A86A460B32042304E0137803708C
:1027E800231C0130013A5C1E002BF7DC049C231DDE
:1027F8009D424FD104229044BB689E421BDA381C8C
:10280800311CFFF7B3FB051E04D0FFF7A7F9281CFE
:1028180001F024FA182001F027FA051C4146221C71
:10282800FFF764F92B78032B01D13B7327E0B6003F
:102838007B689D5123E09E421FD1182001F014FAB5
:10284800051C4146221CFFF751F92B78032B01D1B7
:102858003B7314E0B96801318900786801F028FBFE
:10286800002802D103233B7309E07860BA6893001B
:10287800C550BB680133BB6001E004233B73381CBF
:10288800FFF72CFD06237B7304E00136BB68B342D7
:1028980000DD9BE50AB004BC9046F0BD38B5041CC9
:1028A8000D1CFFF7F9FC637B062B4FD89B00284AC9
:1028B800D3589F462F2D49D10123637346E0002D3D
:1028C80044D1201CFFF76EFD022363733EE02C2DDC
:1028D8003CD103236373201CFFF700FD36E0002D75
:1028E80004D0201C291CFFF7B5FC01E00423637306
:1028F800A2680323934300D104239B18616999427A
:1029080024D1201CFFF7EAFC052363731EE0201C7A
:10291800291CFFF753FD19E0A568013D14E0201CB0
:10292800291CFFF723FB0378002B0CD143685B427B
:102938000322134062699A4208D1201CFFF7CEFC9B
:102948000523637302E0013D002DE8DA38BDC04677
:102958007C48000808B5FFF7A1FF08BD00230370F5
:102968007047C04610B5041C0378022B03D100231E
:102978000370012010E00020012B0DD101F016F9A1
:10298800002806D001F024F9C0B2C02801D101F016
:1029980031F900232370012010BDC04670B5041C16
:1029A8000125032601F002F9002829D02378002BFD
:1029B8000ED101F00DF9C3B2DB2B03D1267001F063
:1029C80019F9EFE7C02B1DD1257001F013F9E9E7DC
:1029D800032B19D0012B0DD101F0FAF8C02805D12D
:1029E8000223237001F006F900200EE00023237073
:1029F80000200AE00020022B07D10023237004E006
:102A0800002002E0012000E0012070BD38B5041C60
:102A1800032501F0EFF8C3B22278002A08D1DB2B96
:102A280001D12570F5E7C02B10D0FF23184012E024
:102A3800032A0ED100222270C020DC2B0BD0DD3BF4
:102A48005A1E93415842DB23184304E001204042B8
:102A580001E00120404238BD08B5C02906D1DB207D
:102A680001F094F8DC2001F091F80BE0DB2906D1A5
:102A7800DB2001F08BF8DD2001F088F802E0081C6B
:102A880001F084F808BDC04670B5061C06E04D1C70
:102A98000978301CFFF7E0FF221C291C541E002A6D
:102AA800F5D170BD08B5C02001F070F808BDC0466A
:102AB80008B5C02001F06AF808BDC046F0B5474621
:102AC80080B482B08020C0020121FEF7C1F98026BF
:102AD80036010096012290466B461A7100259D71B9
:102AE80003275F71DD71144C201C6946FDF70AFF4E
:102AF800201C311CFEF726F8B0231B010093424628
:102B08006B461A719D715F71DD71201C6946FDF776
:102B1800F9FE201C80214900FDF7E4FF201C8021DC
:102B28008900FDF7DFFF201C311CFDF7DBFF02B039
:102B380004BC9046F0BDC0460004004808B50C4BE4
:102B480018680C4901F0A4F801380B4B98420DD8CD
:102B58000A4B58600A4A106A0002000AC021090696
:102B68000143116200229A6007221A6008BDC0461C
:102B78001C00002010270000FFFFFF0010E000E00D
:102B880000ED00E00022014B1A6070479802002017
:102B9800034B18601A1C1368002BFCD17047C04601
:102BA80094020020064B1B68002B03D0044B1A68C4
:102BB800013A1A60034B1A6801321A607047C0461E
:102BC800940200209802002008B5FFF7EBFF08BD2B
:102BD80038B5041C504880210901FDF783FF201CEB
:102BE8000021FFF765FA002800D193E0201C00219E
:102BF800FFF712FA041E0FD1474D281C80218900C7
:102C0800FDF770FF281C80210901FDF76BFF281CC8
:102C180080214900FDF766FF012C0FD13E4D281C8D
:102C280080218900FDF75EFF281C80210901FDF73E
:102C380059FF281C80214900FDF784FF022C0FD181
:102C4800354D281C80218900FDF74CFF281C802168
:102C58000901FDF777FF281C80214900FDF742FF95
:102C6800032C0FD12C4D281C80218900FDF73AFF39
:102C7800281C80210901FDF765FF281C80214900D7
:102C8800FDF760FF042C0FD1234D281C80218900FB
:102C9800FDF758FF281C80210901FDF723FF281C98
:102CA80080214900FDF71EFF052C0FD11A4D281C65
:102CB80080218900FDF746FF281C80210901FDF7C6
:102CC80011FF281C80214900FDF73CFF062C0FD17D
:102CD800114D281C80218900FDF734FF281C802114
:102CE8000901FDF72FFF281C80214900FDF7FAFE96
:102CF800072C0FD1084C201C80218900FDF722FFEA
:102D0800201C80210901FDF71DFF201C802149009E
:102D1800FDF718FF38BDC0460004004870B5A2B0E2
:102D2800041C0021FFF7C4F90025002805D0201C49
:102D38000021FFF771F907250540201C0121FFF745
:102D4800BDF9002805D0201C012101AA8423FFF722
:102D580073F90023EE01084806E09A19191D01AC21
:102D6800615C81540133DBB25AB2002AF5DA281CBF
:102D780000F088FE22B070BD9C020020F0B589B03A
:102D8800494C201CFDF734FA802080020121FEF70F
:102D98005FF88020C0020121FEF75AF88020000366
:102DA8000121FEF755F88027BF00381C0121FEF7E6
:102DB80077F83823009303256B461D710026DE71D2
:102DC8003A486946FDF79EFD00956B461D71DE7118
:102DD80037486946FDF796FD102300936B461D7131
:102DE800DE719020C0056946FDF78CFD02AD281CF8
:102DF800FDF786FA0823029301232B71AE602E613A
:102E080004236B61201C291CFDF70EFA201C80216D
:102E1800C9000522FDF79CFA201C80210901052222
:102E2800FDF796FA201C802149010522FDF790FA4A
:102E3800201C802189010522FDF78AFA201C8021A7
:102E4800C9010522FDF784FA201C80210902052208
:102E5800FDF77EFA201C10210522FDF779FA201CC7
:102E6800802149000522FDF773FA201C391C052230
:102E7800FDF76EFA201CFDF793FA201C0221FDF7DE
:102E8800EDFA201C0121FDF7C5FA201C0121FDF7F0
:102E98003FFA201C0121FDF7F9FA0028F9D0024871
:102EA800FDF7A4FA09B0F0BD00240140000800486D
:102EB8000004004810B58CB001200121FDF7C8FFBF
:102EC800114C201CFDF728FB104B0193104B02936B
:102ED800002303930922049205938022069252004C
:102EE80007928022D2000892202209928022920121
:102EF8000A920B93201C01A9FDF78AFB201C0121D3
:102F0800FDF73AFC0CB010BD080002404024014017
:102F18006C02002008B5012805D1034B994202D163
:102F28000248FFF71BFD08BDFFFF0000000200205C
:102F3800F0B5474680B488B001A82249FFF7F0F9F8
:102F4800FFF720FE0024204F0322904623E0A30031
:102F5800DE59182000F088FE051C311CFEF792FD92
:102F68002B78032B03D101AB42461A7312E0029867
:102F780003990131890000F09BFF002803D101ABC0
:102F880042461A7306E00290039A9300C550039BC9
:102F9800013303930134042CD9D90C4C201CFFF7BE
:102FA80081FD01A8211CFFF78FF8201CFFF780FD89
:102FB80001A8FFF7C9F901A8FFF7E6F908B004BCB2
:102FC8009046F0BD98480008180100200002002033
:102FD80010B500280ED14A4C201C4021FDF7B2FD47
:102FE800201C8021FDF7AEFD201C80214900FDF743
:102FF800A9FD84E001280ED1414C201C4021FDF799
:1030080071FD201C8021FDF79DFD201C80214900B9
:10301800FDF798FD73E002280ED1394C201C4021A1
:10302800FDF790FD201C8021FDF75CFD201C802110
:103038004900FDF787FD62E003280ED1304C201CC3
:103048004021FDF74FFD201C8021FDF74BFD201C82
:1030580080214900FDF776FD51E004280ED1284C67
:10306800201C4021FDF76EFD201C8021FDF76AFD24
:10307800201C80214900FDF735FD40E005280ED1D0
:103088001F4C201C4021FDF72DFD201C8021FDF741
:1030980059FD201C80214900FDF724FD2FE006285A
:1030A8000ED1174C201C4021FDF74CFD201C80211F
:1030B800FDF718FD201C80214900FDF713FD1EE0D7
:1030C80007280ED10E4C201C4021FDF70BFD201CBB
:1030D8008021FDF707FD201C80214900FDF702FD36
:1030E8000DE0074C201C4021FDF72CFD201C802101
:1030F800FDF728FD201C80214900FDF723FD10BDA8
:103108000008004810B50220FDF778FB012854D1CB
:103118000220FDF7E5FB2A4B1B68002B08D1294C40
:103128002068FFF755FF2368013307221340236007
:10313800234B1B68022B39D1234B9A88234B1A80C7
:10314800204B1C68013422480421FDF769FC002348
:10315800002800D0642364001C4AA352194B1C6841
:1031680009341B480221FDF75BFC0023002800D02E
:1031780064236400154AA352124B1C681134144886
:103188000121FDF74DFC0023002800D064236400D2
:103198000E4AA3520C4A11880E4B196151881960C6
:1031A80091895960D189D960128A9A60044C206843
:1031B8000130032100F0B0FD2160024B186810BDFA
:1031C800FC010020F80100206C02002038020020D9
:1031D800000800481801002030B51F4801681F4B3F
:1031E8001D881F4C32224A431553DD8DA218558085
:1031F8005C8D94805C8CD4809C8C14811C8E548152
:103208009C8D9481DC8CD4811C8D14825C8B5482BF
:10321800DC8B94829C8AD4825C8A14831C8C5483B1
:10322800DC8A94839C8BD4831C8B14845C8954849F
:10323800DC8994849C88D4845C8814851C89548592
:103248001C8A9485DC88D4859B89138601310323E5
:103258001940016030BDC046F4010020380200204A
:103268002C010020884200D8081C9A4200D81A1C59
:10327800131C904200D9031C181C7047F0B54F4628
:103288004646C0B489B000248F4D2E1C2F1C12E175
:1032980063005B5B0A2B00D88DE0231C19335B00AD
:1032A8009B5B0A2B00D886E0231C32335B00DB5B78
:1032B8000A2B00D87FE0221C4B325200824BD35A93
:1032C8000A2B78D96300814A9B5A092B73D801A825
:1032D8007F49FFF725F87C4B6200D05A221C19322F
:1032E8005200D15A221C32325200D25A90464B22F6
:1032F80012195200D35A4246FFF7B4FF81461820EC
:1033080000F0B2FC8046211CFEF7BCFB41460B785E
:10331800032B03D1032201AB1A7313E0029803991C
:103328000131890000F0C4FD002803D1032201AB5C
:103338001A7307E00290039A93004146C150039B19
:1033480001330393182000F08FFC80464946FEF7AE
:1033580099FB42461378032B03D1032201AB1A735E
:1033680013E0029803990131890000F0A1FD0028BB
:1033780003D1032201AB1A7307E0029003998B0073
:103388004246C250039B01330393524B9846181C84
:10339800FFF788FB01A84146FEF796FE4046FFF777
:1033A80087FB01A8FEF7D0FF6300484A49469952B7
:1033B80001A8FEF7E9FF6300434A9B5A092B79D815
:1033C800221C19325200404BD35A092B72D8221CA6
:1033D800323252003C4BD35A092B6BD8221C4B3249
:1033E8005200394BD35A092B64D86300374A9B5A89
:1033F8000A2B5FD901A83649FEF792FF182000F082
:1034080033FC8046211CFEF73DFB42461378032B14
:1034180003D1032201AB1A7313E002980399013117
:10342800890000F045FD002803D1032201AB1A737F
:1034380007E0029003998B004246C250039B013378
:103448000393182000F010FC80460021FEF722FBB1
:1034580041460B78032B03D1032201AB1A7313E007
:10346800029803990131890000F022FD002803D158
:10347800032201AB1A7307E00290039A93004146B6
:10348800C150039B01330393124A9046101CFFF767
:1034980009FB01A84146FEF717FE4046FFF708FB67
:1034A80001A8FEF751FF63000021084A995201A8BC
:1034B800FEF76AFF0134182C00D8E9E609B00CBC05
:1034C80090469946F0BDC0462C0100200402002019
:1034D800A04800080002002008B5FFF77DFEFFF7AE
:1034E800CDFE08BDF0B55F4656464D464446F0B49D
:1034F8008DB0FFF743FCFFF7DDFC802000030121BE
:10350800FDF7A6FC03ACE0235B00039301272771BA
:103518000026A67103236371E671564D281C211CF1
:10352800FDF7F0F9281C4021FDF70CFB281C802131
:10353800FDF7D8FA281C80214900FDF7D3FA80232B
:10354800DB029846181C0121FDF782FCE0231B02D0
:1035580003932671E771484F381C211CFDF7D2F9F7
:1035680040460121FDF774FC0723039326710223CB
:10357800E371281C211CFDF7C5F905A8FEF7DCFE40
:1035880000F0BAFAFFF79AFA80242401381C211CAB
:10359800FDF7A8FA381C211CFDF7D4FAFFF7CEFA7C
:1035A800002000F0B7F949200021002200F026F998
:1035B8004F203021002200F021F900F033FA0027D3
:1035C8002E498B462E4A9046914659460B68013340
:1035D8000B60002503229246D31701931DE048464D
:1035E800FFF7DCF900280ADC0DE0301CFFF70EFAC3
:1035F800C1B205A8FFF7AEF90135201C00E0204E46
:10360800441E0028F1D1FFF77DFD041EBC4203D003
:10361800002801D1FFF760FF271C4046FFF7A2F9F9
:103628000123002804D0EB0F01995246AA424B41CE
:10363800002BD4D105A8FEF7D9FC002815D105A880
:103648001049114A0023FEF7ABFC05A80F49104AA0
:103658000023FEF7A5FC05A80E490F4A0023FEF734
:103668009FFC05A8FEF770FEAFE705A8FEF76CFE05
:10367800ABE7C046000800480004004814010020D9
:1036880000020020A8480008D92B0008B04800080C
:10369800252D0008B8480008392F000808B5012072
:1036A8000149FFF737FC08BDFFFF0000F0B55F4692
:1036B80056464D464446F0B489B080239B029B464B
:1036C800181C0121FDF7C4FB802040010121FDF7F2
:1036D800E7FB06AC102306930123994623710026C5
:1036E800A67103276771E6719025ED05281C211C3A
:1036F800FDF708F9A023069302232371A6716771C9
:10370800E671281C211CFDF7FDF8281C0521002264
:10371800FDF748FA281C07210022FDF743FA01A902
:10372800204B0B8082235B004B80E023DB009A4612
:103738008B80CE800E8180239B0098464B81182376
:103748008B81CE8107230B82174E301CFDF720FC9E
:10375800301C0121FDF7F6FC58460121FDF778FBE6
:10376800534606934B4623710023A3716771E37197
:10377800281C211CFDF7C6F8281C80214900FDF7EC
:10378800E1F9281C4146FDF7ADF9281C8021C90044
:10379800FDF7A8F909B03CBC90469946A246AB464D
:1037A800F0BDC04600C0FFFF003001407047C04672
:1037B80010B57F2319403F231A40D3080724E41A81
:1037C800E4B27F235B1ADBB2E101C9180A4B5B5CE8
:1037D800002807D007209043021C01209040034393
:1037E800DAB206E007209043021C01209040834390
:1037F8001A1C014B5A5410BD9C020020F8B54F46C4
:103808004646C0B489469046002587003F18144EA6
:103818001FE07B19F35C2341DA0709D54B46591998
:10382800C9B243461A19D2B20120FFF7C1FF08E016
:103838004A465119C9B243461A19D2B20020FFF7B5
:10384800B7FF0134E4B200E00024072CE1D90135C8
:10385800EDB2042DF8D905200CBC90469946F8BD68
:10386800C448000808B5002806D09020C00580216B
:10387800C900FDF737F905E09020C0058021C9008F
:10388800FDF760F908BDC04608B5002806D09020AD
:10389800C00580218900FDF725F905E09020C005C5
:1038A80080218900FDF74EF908BDC04608B50028FB
:1038B80006D09020C00580214900FDF713F905E0E6
:1038C8009020C00580214900FDF73CF908BDC0469D
:1038D80010B5011C0548FDF75DFC044C201C802137
:1038E800FDF770FC0028F9D110BDC046003001403A
:1038F80010B5041C0120FFF7B5FF0020FFF7C4FF37
:103908000020FFF7AFFF201CFFF7E2FF0120FFF7C1
:10391800A9FF10BD38B5051CFFF7C8FE00233F4AB4
:103928003F4C002102E0E15401339BB29342FAD9A3
:103938000120FFF7BBFF0520FFF72AF90020FFF75A
:10394800B5FF0520FFF724F90120FFF7AFFFAE20F0
:10395800FFF7CEFF0020FFF7CBFF1020FFF7C8FFCF
:103968004020FFF7C5FF8120FFF7C2FF012D03D1DB
:103978009F20FFF7BDFF02E0CF20FFF7B9FFA1208E
:10398800FFF7B6FFA620FFF7B3FFA420FFF7B0FFAD
:10399800A820FFF7ADFF3F20FFF7AAFFD320FFF7CE
:1039A800A7FF0020FFF7A4FFD520FFF7A1FF802085
:1039B800FFF79EFFD920FFF79BFF012D03D122209F
:1039C800FFF796FF02E0F120FFF792FFDA20FFF7FA
:1039D8008FFF1220FFF78CFFDB20FFF789FF4020C5
:1039E800FFF786FF2020FFF783FF0020FFF780FF07
:1039F800A120FFF77DFFC820FFF77AFF8D20FFF792
:103A080077FF012D03D11020FFF772FF02E0142089
:103A1800FFF76EFFAF20FFF76BFF38BDFF03000015
:103A28009C020020F8B50020FFF762FF1020FFF786
:103A38005FFF4020FFF75CFF0120FFF713FF012025
:103A4800FFF722FF0020FFF70DFF00250A4F0B4E5E
:103A58000B4C0BE0715D201CFDF79CFB201C8021AA
:103A6800FDF7B0FB0028F9D10135ADB2BD42F1D95F
:103A78000120FFF7F7FEF8BDFF0300009C020020BD
:103A880000300140F8B5072707400020FFF730FF56
:103A98001020FFF72DFFB0203843FFF729FF134B05
:103AA8001978013101220A401A700120FFF7DAFE65
:103AB8000120FFF7E9FE0020FFF7D4FE0025FF01F3
:103AC8000B4E0C4C0CE0EB19F15C201CFDF762FB73
:103AD800201C8021FDF776FB0028F9D10135ADB215
:103AE8007F2DF0D90120FFF7BDFEF8BD8002002030
:103AF8009C02002000300140F0B58BB08024A40265
:103B0800201C0121FDF7A4F9201C0121FDF7F0F983
:103B18009025ED05281C02210122FDF743F8281CF9
:103B280003210122FDF73EF802A90C27029703237F
:103B38004B7102230B7100248C710126CE71281C55
:103B4800FCF7E0FE0E4B0493059406940794099441
:103B580008970C4D281C04A9FDF76AFB281C0A4984
:103B68000122FDF7BDFC01A81C220270447086707A
:103B7800FDF762F8281C0121FDF730FC0BB0F0BD01
:103B880020A10700004400400501050038B5051CC8
:103B9800054C201C8021FDF725FD0028F9D002489E
:103BA800291CFDF74DFC38BD00440040064B187831
:103BB8004030064B1B78C01AC3179B0EC0183F2213
:103BC8001040C01A7047C0468202002081020020BF
:103BD800054B1A78054B1B789A4202D0044AD05CF0
:103BE80001E001204042704782020020810200204B
:103BF8009C060020084B1A78084B1B789A4207D07D
:103C0800074AD05C01333F221340044A137001E095
:103C1800012040427047C0468202002081020020F5
:103C28009C06002038B509480949FDF74FFD0028D2
:103C38000BD0084C25780548FDF730FC064B585545
:103C4800237801333F221340237038BD00440040DD
:103C580005010500820200209C06002008B5002806
:103C680001D000F075F808BD10B5041E02D101247A
:103C780000E09847201C00F061F8002805D1034BAC
:103C88001B68002BF5D1FDF7ADFD10BD84020020A7
:103C9800002934D00123002210B488422CD30124F7
:103CA8002407A14204D2814202D209011B01F8E78C
:103CB800E400A14204D2814202D249005B00F8E745
:103CC800884201D3401A1A434C08A04202D3001B71
:103CD8005C0822438C08A04202D3001B9C082243A4
:103CE800CC08A04202D3001BDC082243002803D0E2
:103CF8001B0901D00909E3E7101C10BC7047002814
:103D080001D00020C04307B4024802A14018029025
:103D180003BDC046190000000029F0D003B5FFF725
:103D2800B9FF0EBC4243891A1847C0467047C046BF
:103D3800014B18687047C0468000002008B5034B47
:103D4800011C186800F060F808BDC046800000201B
:103D580008B5034B011C186800F00EF808BDC046F2
:103D68008000002010B50023934203D0CC5CC454DB
:103D78000133F9E710BD000030B5002940D00439FF
:103D88000B68002B00DAC9181E4A1368141C002B94
:103D980002D14B60116033E099420FD208680A18CB
:103DA8009A4205D113685268C01808604A6000E05A
:103DB8004B60216024E08A4203D8131C5A68002A09
:103DC800F9D11D685C198C420BD10968691858181B
:103DD8001960904214D114685268091919605A6020
:103DE8000EE08C4202D90C23036009E008680C1825
:103DF800944203D114685268001908604A605960F7
:103E080030BDC0468C02002070B50323CD1C9D43F5
:103E18000835061C0C2D01D20C2501E0002D3FDBD6
:103E28008D423DD3204B1C681A1C211C002913D03D
:103E38000868431B0DD40B2B02D90B60CC181EE06D
:103E48008C4202D1636813601AE0486860600C1CF9
:103E580016E00C1C4968E9E7144C2068002803D1D7
:103E6800301C00F031F82060301C291C00F02CF8C0
:103E7800431C15D0C41C03239C4384420AD12560EB
:103E8800201C0B300722231D9043C31A0BD05A4223
:103E9800E25008E0211A301C00F016F80130EED18B
:103EA8000C233360002070BD8C02002088020020A3
:103EB80008B50A1C0349031C0868191C00F080F89F
:103EC80008BDC0468000002038B5074C0023051CFB
:103ED800081C2360FDF790FC431C03D12368002BCA
:103EE80000D02B6038BDC0469002002002780B78C5
:103EF80001300131002A01D09A42F7D0D01A704718
:103F0800031C0A7801311A700133002AF9D170476D
:103F18000023C25C0133002AFBD1581E7047031CE2
:103F2800002010B582420FD01C780878A04201D139
:103F3800012A03D118780B78C01A05E0013A002845
:103F4800F8D001330131EFE710BD30B5051C9BB047
:103F5800141E04DA8B230360012040421DE08222F4
:103F68009200684600910491002182818C4200D021
:103F7800611E01225242029105916946CA81281C9C
:103F88001A1C1E9B00F0A2F8421C01DA8B232B603E
:103F9800002C02D0009900230B701BB030BD00002C
:103FA80073B5141C054A061C0D1C1068311C0093BF
:103FB8002A1C231CFFF7C9FF76BDC04680000020DD
:103FC800F8B5061C0C1C151C002904D1111CFFF7A0
:103FD8001BFF041C18E0002A03D1FFF7CDFE2C1CA0
:103FE80012E000F011FBA8420ED2301C291CFFF78A
:103FF8000BFF071E07D0211C2A1CFFF7B3FE301C3D
:10400800211CFFF7B9FE3C1C201CF8BDF0B58D68DB
:1040180085B0071C0C1C03920193AB4245D3902238
:104028008B89D20013423DD0626903265643096941
:104038002068F20F401A96190290021C019801326A
:1040480012187610964200D2161C381C5A050FD545
:10405800311CFFF7D9FE051E13D0029A2169FFF71C
:1040680081FEA289184B134080221343A38111E0DB
:10407800321CFFF7A5FF051E0CD1381C2169FFF77C
:104088007BFE0C233B60A389402213430120A381BC
:10409800404217E0029B2561ED1825606661019D8D
:1040A800F61AA6600198A84200D2019D2A1C206831
:1040B800039900F090FAA2680020531BA3602368BC
:1040C8005D19256005B0F0BD7FFBFFFFF0B59FB01F
:1040D800039005938B890E1C171C19060FD532699E
:1040E800002A0CD14021FFF78FFE30603061002894
:1040F80003D103990C230B60C9E04023736106AD1B
:1041080000236B6120236B763023AB763C1C23782D
:10411800002B03D1E21B029211D003E0252BF9D02A
:104128000134F4E70398311C3A1C029BFFF76EFF39
:10413800013000D1A6E06969029A8B186B61237877
:10414800002B00D19EE0012252426A606A46002399
:104158005B3201342B60EB60AB601370AB654E4F84
:104168002178381C052200F02BFA002807D0C71B3D
:104178002B680120B840184328600134EFE72B680A
:10418800D90603D56A4620215B3211701A0703D578
:104198006A462B215B32117022782A2A01D0099BAA
:1041A8000EE0059A111D12680591002A01DB09929B
:1041B80004E05242EA60022213432B60013409E012
:1041C8002278303A092A04D80A214B4301349B1833
:1041D800F6E7099323782E2B18D163782A2B09D177
:1041E800059B02341A1D1B680592002B0DDA01236A
:1041F8005B420AE0013400232278303A092A04D8C5
:104208000A214B4301349B18F6E70793234F217883
:10421800381C032200F0D4F9002806D0C71B2B68ED
:104228004020B84018432860013421781C480622F1
:10423800671C297600F0C4F9002812D0194B002B0E
:1042480006D1059B0722073393430833059314E0EF
:1042580005AB00930398291C321C134B00E000BFE8
:1042680007E005AB00930398291C321C0E4B00F0A5
:1042780091F804900499013104D06A69049953189B
:104288006B6143E7B3895A0601D40B9801E001201A
:1042980040421FB0F0BDC046C24D0008C84D0008DE
:1042A800CC4D00080000000015400008F7B5151CAB
:1042B80001930A698B68061C0C1C934200DA131CD4
:1042C800221C2B6043321278002A01D001332B6064
:1042D8002068800602D52B6802332B6021680627E8
:1042E8000F401FD0231C43331B785A1E934122686A
:1042F80092061FD5E11840313020C870211C5A1C85
:1043080045310978A21840320233D17012E0221CDC
:10431800301C019919320123089FB847013011D088
:10432800009F01370097E0682968009F431A9F4261
:10433800EDDBD7E7221C301C01994332089FB847B0
:10434800013002D10120404223E0206806212B6879
:10435800E26801400025042903D1D51AEB43DB1795
:104368001D40A26823699A4201DDD31AED1800277F
:104378000097009FAF420BDA221C301C01991A32B9
:104388000123089FB8470130DCD0009F0137EFE7D1
:104398000020FEBDF0B50D1C8BB04335069205908C
:1043A800079304950B7E0C1C109A6E2B00D1A7E086
:1043B80011D8632B22D009D8002B00D1B0E0582B9C
:1043C80000D0C0E045310B707B4D4EE0642B1CD013
:1043D800692B1AD0B7E0732B00D1A5E009D86F2B51
:1043E80029D0702B00D0AEE00E68202333430B6039
:1043F80036E0752B1FD0782B32D0A4E013680D1C43
:10440800191D423511601B689FE0216813680E066C
:1044180003D5191D11601E6805E04806F9D5191D58
:10442800116000215E5E644B002E3BDA049D2D2254
:1044380076422A7036E0216813680E0603D5191DE6
:1044480011601E6804E04806F9D5191D1E88116020
:10445800594B227E039308276F2A1ED00A271CE097
:10446800231C78214533554D197011682368081DA0
:10447800039510601E0601D50E6802E05806FBD5AC
:104488000E88D90702D52022134323601027002E57
:1044980003D1226820239A432260231C002243333D
:1044A8001A7001E003930A276368A360002B03DBFB
:1044B8002568042295432560002E02D1049D002B17
:1044C8000ED0049D301C391CFFF726FC0398013DD3
:1044D800435C301C2B70391CFFF7DAFB061EF1D148
:1044E800082F09D12168C90706D5626823699A424D
:1044F80002DC013D30232B70049E731B23612AE0EC
:10450800086813684969050604D5181D10601B68FA
:10451800196005E04606F8D5181D10601B6819805B
:1045280000232361049D16E01368191D11601D689E
:10453800281CFFF7EDFC63682061984200D92361CD
:104548002069606004E0251C42352B70012323613B
:10455800049E00233370079E05980096211C09AA23
:10456800069BFFF7A3FE013002D10120404221E063
:104578002A1C059806992369079DA8470130F4D09D
:104588002668B60705D4099BE068984212DA181C19
:1045980010E00025E0680999431A9D42F3DA221CCD
:1045A8000598069919320123079EB0470130DCD0DF
:1045B8000135EFE70BB0F0BDD34D0008E44D00081E
:1045C800C9B28218904204D003788B4202D00130DD
:1045D800F8E70020704770B5814201D300230CE052
:1045E8008C18A042FAD28518131C013B0BD35142F8
:1045F8006618F65C6918CE54F7E7934203D0CC5C92
:10460800C4540133F9E770BD04390B68181F002B37
:1046180002DAC8581B18181F704700002E2E2F7377
:10462800797374656D2F7372632F73746D3332668B
:10463800302D7374647065726970682F73746D338C
:1046480032663078785F6164632E63002E2E2F7394
:10465800797374656D2F7372632F73746D3332665B
:10466800302D7374647065726970682F73746D335C
:1046780032663078785F646D612E63002E2E2F735A
:10468800797374656D2F7372632F73746D3332662B
:10469800302D7374647065726970682F73746D332C
:1046A80032663078785F6770696F2E6300000000AB
:1046B8002E2E2F73797374656D2F7372632F737435
:1046C8006D333266302D7374647065726970682F4B
:1046D80073746D3332663078785F6D6973632E63F7
:1046E800000000002E2E2F73797374656D2F73727E
:1046F800632F73746D333266302D73746470657212
:104708006970682F73746D3332663078785F7263BE
:10471800632E63002E2E2F73797374656D2F737259
:10472800632F73746D333266302D737464706572E1
:104738006970682F73746D3332663078785F737080
:10474800692E63002E2E2F73797374656D2F737223
:10475800632F73746D333266302D737464706572B1
:104768006970682F73746D3332663078785F75734B
:104778006172742E6300000061626F727428292CC4
:104788002065786974696E672E2E2E002C20667558
:104798006E6374696F6E3A20000000006173736580
:1047A8007274696F6E2022257322206661696C65B8
:1047B800643A2066696C6520222573222C206C6976
:1047C8006E65202564257325730A0000617373657F
:1047D80072745F706172616D2829206661696C6509
:1047E800643A2066696C6520222573222C206C6946
:1047F8006E652025640A00000A0000006D61696E7C
:1048080028617267633D25642C20617267763D5B81
:10481800000000002C200000222573220000000068
:104828005D293B0A00000000C62700089C280008F4
:10483800642500089C280008AC2400089C2800086F
:104848009C280008F62300089C2800089C280008DB
:104858009C2800089C2800089C2800089C28000820
:104868009C2800089C2800089C280008302700087D
:1048780028260008BC280008C6280008D6280008F2
:10488800E6280008F828000816290008202900084A
:104898002F6B6E6F627300002F6B6579000000004C
:1048A8002F6C6564000000002F6F6C6564000000C9
:1048B8002F6765746B6E6F62730000000000000064
:1048C800003E5B4F5B3E3E6B4F6B3E1C3E7C3E1C8E
:1048D800183C7E3C181C577D571C1C5E7F5E1C00D4
:1048E800183C1800FFE7C3E7FF0018241800FFE78B
:1048F800DBE7FF30483A060E2629792926407F054E
:104908000507407F05253F5A3CE73C5A7F3E1C1C63
:1049180008081C1C3E7F14227F22145F5F005F5F23
:1049280006097F017F006689956A6060606060940F
:10493800A2FFA29408047E040810207E2010080814
:104948002A1C08081C2A08081E101010100C1E0C1F
:104958001E0C30383E3830060E3E0E0600000000B1
:104968000000005F00000007000700147F147F1498
:10497800242A7F2A122313086462364956205000DD
:1049880008070300001C2241000041221C002A1CC9
:104998007F1C2A08083E08080080703000080808B4
:1049A8000808000060600020100804023E514945D4
:1049B8003E00427F400072494949462141494D33F2
:1049C8001814127F1027454545393C4A4949314159
:1049D800211109073649494936464949291E000027
:1049E800140000004034000000081422411414147C
:1049F8001414004122140802015909063E415D5968
:104A08004E7C1211127C7F494949363E4141412270
:104A18007F4141413E7F494949417F090909013E9A
:104A2800414151737F0808087F00417F41002040C1
:104A3800413F017F081422417F404040407F021CD3
:104A4800027F7F0408107F3E4141413E7F090909EA
:104A5800063E4151215E7F091929462649494932B6
:104A680003017F01033F4040403F1F2040201F3F7C
:104A78004038403F63140814630304780403615901
:104A8800494D43007F414141020408102000414143
:104A9800417F0402010204404040404000030708EF
:104AA8000020545478407F284444383844444428EB
:104AB800384444287F385454541800087E09021892
:104AC800A4A49C787F0804047800447D400020401A
:104AD800403D007F1028440000417F40007C04785E
:104AE80004787C080404783844444438FC182424A6
:104AF8001818242418FC7C08040408485454542426
:104B080004043F44243C4040207C1C2040201C3CA2
:104B18004030403C44281028444C9090907C446499
:104B2800544C44000836410000007700000041362C
:104B3800080002010204023C2623263C1EA1A161B2
:104B4800123A4040207A38545455592155557941E4
:104B58002254547842215554784020545579400CB9
:104B68001E5272123955555559395454545939559C
:104B78005454580000457C410002457D42000145DF
:104B88007C407D1211127DF0282528F07C54554573
:104B9800002054547C547C0A097F493249494932DF
:104BA8003A4444443A324A4848303A4141217A3AF0
:104BB80042402078009DA0A07D3D4242423D3D40BC
:104BC80040403D3C24FF2424487E4943662B2FFC6B
:104BD8002F2BFF0929F620C0887E09032054547919
:104BE800410000447D413048484A32384040227AEA
:104BF800007A0A0A727D0D19317D2629292F282667
:104C08002929292630484D4020380808080808086E
:104C18000808382F10C8ACBA2F102834FA00007BC7
:104C2800000008142A142222142A1408AA00550085
:104C3800AAAA55AA55AA000000FF00101010FF00EC
:104C4800141414FF001010FF00FF1010F010F014DF
:104C58001414FC001414F700FF0000FF00FF1414E4
:104C6800F404FC141417101F10101F101F14141430
:104C78001F00101010F0000000001F101010101F6F
:104C880010101010F010000000FF1010101010107D
:104C9800101010FF10000000FF140000FF00FF00BC
:104CA800001F10170000FC04F41414171017141434
:104CB800F404F40000FF00F714141414141414F787
:104CC80000F7141414171410101F101F141414F4E0
:104CD800141010F010F000001F101F0000001F1427
:104CE800000000FC140000F010F01010FF10FF147A
:104CF8001414FF141010101F00000000F010FFFF24
:104D0800FFFFFFF0F0F0F0F0FFFFFF0000000000F1
:104D1800FFFF0F0F0F0F0F3844443844FC4A4A4A2C
:104D2800347E02020606027E027E02635549416312
:104D38003844443C04407E201E2006027E0202992C
:104D4800A5E7A5991C2A492A1C4C7201724C304AC5
:104D58004D4D303048784830BC625A463D3E49494E
:104D680049007E0101017E2A2A2A2A2A44445F44F6
:104D78004440514A444040444A51400000FF010326
:104D8800E080FF000008086B6B08361236243606F0
:104D98000F090F060000181800000010100030401E
:104DA800FF0101001F01011E00191D1712003C3CE4
:104DB8003C3C0000000000004300232D302B200065
:104DC800686C4C00656667454647003031323334BD
:104DD800353637383941424344454600303132335D
:0D4DE8003435363738396162636465660022
:104DF8007856341200000000010203040102030483
:104E0800060708099000002000000000006CDC0282
:104E1800000000000000000000000000000000008A
:104E2800000000000000000000000000000000007A
:104E3800C04D000800000000000000000000000055
:104E4800000000000000000000000000000000005A
:104E5800000000000000000000000000000000004A
:104E6800000000000000000000000000000000003A
:084E780020000020325476985E
:04000005080000C52A
:00000001FF
