:020000040800F2
:1000000000200020D5010008DD010008E101000802
:1000100000000000000000000000000000000000E0
:10002000000000000000000000000000E5010008E2
:100030000000000000000000E9010008252C000875
:10004000F1010008F1010008F1010008F1010008C8
:10005000F1010008F1010008F1010008F1010008B8
:10006000F1010008F1010008F1010008F1010008A8
:10007000F1010008F1010008F1010008F101000898
:10008000F1010008F101000800000000F101000882
:10009000F1010008F1010008F1010008F101000878
:1000A000F1010008F1010008253B0008F1010008FA
:1000B0004140000800000000F101000800000000BD
:1000C0005FF808F130B583B0314B324A1360324AE1
:1000D0001360324B3249002201E01A6004338B4234
:1000E000FBD32C4B1B68002B03D12B4B1B68002B25
:1000F00000D0FEE7264B2B4A13602B4A13602B4B94
:100100002B4A2C4903E010681860043304328B42F8
:10011000F9D3244B1A68284B9A4204D1224B1A680F
:100120001B689A4200D0FEE701F094FB01A86946E3
:1001300001F084FB214B224DED1AAD10002404E0A8
:10014000A3001E4A9B5898470134A542F8DC1D4B7A
:100150001D4DED1AAD10002404E0A30019481B58F2
:1001600098470134A542F8DC0198009903F024FB7C
:10017000051C164B164CE41AA41004E0013CA30025
:10018000124A9B589847002CF8DC281C01F02EFBE3
:10019000BABADECA8C000020B00C00208C0000200F
:1001A000B40C002000000020880000200000002087
:1001B0001C5800088C00002078563412F401000806
:1001C000F4010008F4010008F8010008F801000833
:1001D000FC01000808B5FFF775FFC046FEE7C04602
:1001E000FEE7C046FEE7C046FEE7C046FEE7C04663
:0401F000FEE7C04620
:0801F400153A0008253A000845
:1001FC0010B5041C0A4B984203D00A48852101F023
:10020C001FFB074B9C4209D18024A400201C012118
:10021C0000F096FE201C002100F092FE10BDC0469E
:10022C0000240140084A000838B5051C0C1C314B51
:10023C00984203D03048A12101F002FB2368002B27
:10024C0009D0082B07D0102B05D0182B03D02A4827
:10025C00A22101F0F5FA2379012B03D92648A32119
:10026C0001F0EEFAA368002B0FD08022D20093424B
:10027C000BD080221201934207D0C022120193426C
:10028C0003D01D48A42101F0DBFAE368002B0DD04C
:10029C00402B0BD0802B09D0C02B07D080225200D2
:1002AC00934203D01448A52101F0CAFA2369002B0C
:1002BC0005D0202B03D01048A62101F0C1FA6369A8
:1002CC00002B05D0042B03D00B48A72101F0B8FA62
:1002DC00EA680A4B1A4023795B0321680B43A16837
:1002EC000B43E1680B4321690B4361690B431343D7
:1002FC00EB6038BD00240140084A000803D2FFFF20
:10030C000023036003718360C36003614361704722
:10031C0038B5041C0D1C0C4B984203D00B48E9213A
:10032C0001F08EFA012D03D90848EA2101F088FA70
:10033C00002D04D0A26801231343A36003E0A2683C
:10034C0002231343A36038BD00240140084A00086F
:10035C0070B5041C0D1C161C0D4B984203D00D4897
:10036C000D4901F06DFA002D01D0EB0C04D00948B9
:10037C00B421890001F064FA072E03D90548074916
:10038C0001F05EFAA36A1D43A562666170BDC046AA
:10039C0000240140084A0008CF020000D1020000EE
:1003AC0010B5041C0E4B984203D00E480E4901F0B8
:1003BC0047FAA26880231B061343A3600023F02195
:1003CC000902A268D20FD20701338B4201D0002A56
:1003DC00F7D1A368002B01DB206C00E0002010BDDE
:1003EC0000240140084A00083D03000010B5041C1D
:1003FC00054B984203D00548054901F021FAA26843
:10040C0004231343A36010BD00240140084A0008D4
:10041C006F03000038B5041C0D1C0D4B984204D022
:10042C000C48EA21890001F00BFA012D03D9094887
:10043C00094901F005FA002D04D0E26801231343A9
:10044C00E36003E0E36801229343E36038BDC046F8
:10045C0000240140084A0008A903000038B5041C18
:10046C000D1C074B984203D00648074901F0E8F9E8
:10047C00E36802229343E360E3681D43E56038BD03
:10048C0000240140084A0008C303000038B5051CCD
:10049C000C1C194B984203D01848194901F0D0F99B
:1004AC00631E012B1CD9042C1AD0082C18D0802CBC
:1004BC0016D0102C14D0134B9C4211D0124B9C42D2
:1004CC000ED0124B9C420BD0114B9C4208D0812376
:1004DC001B069C4204D009488B21C90001F0B0F9DD
:1004EC00E30103D5A8680B4B184000E028680440D2
:1004FC00201C441EA04138BD00240140084A0008BD
:10050C00570400000100000102000001040000017A
:10051C0010000001FFFFFFFE10B5041C324B984287
:10052C0015D0324B984212D0314B98420FD0314BF0
:10053C0098420CD0304B984209D0304B984206D0A0
:10054C002F4B984203D02F48842101F079F922686F
:10055C002D4B13402360002323606360A360E36092
:10056C00214B9C4205D1294B59680F220A435A60F2
:10057C0039E01E4B9C4205D1244B5968F0220A43AA
:10058C005A6030E01A4B9C4206D1204B5968F0223D
:10059C0012010A435A6026E0164B9C4206D11B4BB3
:1005AC005968F02212020A435A601CE0124B9C421A
:1005BC0006D1164B5968F02212030A435A6012E016
:1005CC000E4B9C4206D1114B5968F02212040A437F
:1005DC005A6008E00A4B9C4205D10C4B5968F0223A
:1005EC0012050A435A6010BD080002401C0002406C
:1005FC003000024044000240580002406C000240AF
:10060C0080000240384A0008FEFF00000000024053
:10061C0038B5051C0C1C4E4B984215D04D4B9842CE
:10062C0012D04D4B98420FD04C4B98420CD04C4BA7
:10063C00984209D04B4B984206D04B4B984203D072
:10064C004A48CC2101F0FCF8A368002B05D0102BF4
:10065C0003D04648CD2101F0F3F8E268013A444B4F
:10066C009A4203D94148CE2101F0EAF82369002BC4
:10067C0005D0402B03D03D48CF2101F0E1F8636950
:10068C00002B05D0802B03D03848D02101F0D8F8AE
:10069C00A369002B0BD080225200934207D08022FA
:1006AC009200934203D03148D12101F0C9F8E3699B
:1006BC00002B0BD08022D200934207D08022120153
:1006CC00934203D02948D22101F0BAF8236A002BB7
:1006DC0005D0202B03D02548D32101F0B1F8636A53
:1006EC00C022920193420DD080229201934209D0F4
:1006FC0080225201934205D0002B03D01B48D421F9
:10070C0001F09EF8A36A002B07D08022D2019342FD
:10071C0003D01648D52101F093F82A68154B1A40DE
:10072C00A368216A0B4321690B4361690B43A169DF
:10073C000B43E1690B43616A0B43A16A0B431343FF
:10074C002B60E3686B602168A9606368EB6038BD5F
:10075C00080002401C0002403000024044000240ED
:10076C00580002406C00024080000240384A0008E9
:10077C00FEFF00000F80FFFF38B5041C0D1C164B4C
:10078C00984216D0154B984213D0154B984210D066
:10079C00144B98420DD0144B98420AD0134B9842EC
:1007AC0007D0134B984204D012482A21FF3101F094
:1007BC0047F8012D04D90F489521490001F040F864
:1007CC00002D04D0226801231343236003E0226828
:1007DC00094B1340236038BD080002401C00024046
:1007EC003000024044000240580002406C000240BD
:1007FC0080000240384A0008FEFF000010B5041CBF
:10080C00431E012B60D904285ED008285CD0102828
:10081C005AD0202858D0402856D0802854D0802335
:10082C005B00984250D080239B0098424CD0802390
:10083C00DB00984248D080231B01984244D080238F
:10084C005B01984240D080239B0198423CD080238E
:10085C00DB01984238D080231B02984234D080238D
:10086C005B02984230D080239B0298422CD080238C
:10087C00DB02984228D080231B03984224D080238B
:10088C005B03984220D080239B0398421CD080238A
:10089C00DB03984218D080231B04984214D0802389
:1008AC005B04984210D080239B0498420CD0802388
:1008BC00DB04984208D080231B05984204D00648DC
:1008CC008021890000F0BCFF044B18680440201CF8
:1008DC00441EA04110BDC046384A0008000002402A
:1008EC0010B5041C030F01D1002804D103488F213B
:1008FC00890000F0A5FF024B5C6010BD384A00086F
:10090C0000000240F8B5051C0E1C9023DB05984234
:10091C0012D03D4B98420FD03C4B98420CD03C4BE4
:10092C00984209D03B4B984206D03B4B984203D09F
:10093C003A48B42100F084FF3368002B03D13748C8
:10094C00B52100F07DFF3379032B03D93348B62151
:10095C0000F076FFF379022B03D93048B72100F071
:10096C006FFF002401274BE03B1CA34032681A4068
:10097C009A4244D13379013B012B28D87379012B4E
:10098C0005D9032B03D02548C72100F059FFAA68CD
:10099C006300032199408A43AA60AA68717999403F
:1009AC000B1C1343AB60B379012B03D91B48CE212D
:1009BC0000F046FFAA8823041B0C391C99408A437B
:1009CC00AA80AA88B17999408BB21343AB8029686D
:1009DC0063000322101C98408143296028683179F8
:1009EC00994001432960E9682004C00B824091437F
:1009FC00E960EA68F17999400B1C1343EB60013410
:100A0C000F2CB1D9F8BDC0460004004800080048BE
:100A1C00000C00480010004800140048684A000808
:100A2C0038B5041C0D1C9023DB05984213D0274BC2
:100A3C00984210D0264B98420DD0264B98420AD0A3
:100A4C00254B984207D0254B984204D024489B2133
:100A5C00490000F0F5FE6B1E9BB2012B30D9042D22
:100A6C002ED0082D2CD0102D2AD0202D28D0402D62
:100A7C0026D0802D24D080235B009D4220D0802363
:100A8C009B009D421CD08023DB009D4218D080230C
:100A9C001B019D4214D080235B019D4210D080230A
:100AAC009B019D420CD08023DB019D4208D080230A
:100ABC001B029D4204D00A483821FF3100F0C0FED1
:100ACC00208A0540281C451EA84138BD000400485A
:100ADC0000080048000C00480010004800140048B2
:100AEC00684A000838B5041C0D1C9023DB0598429D
:100AFC0013D00E4B984210D00D4B98420DD00D4B8D
:100B0C0098420AD00C4B984207D00C4B984204D018
:100B1C000B48C821490000F093FE002D04D1084871
:100B2C009221FF3100F08CFEA56138BD0004004815
:100B3C0000080048000C0048001000480014004851
:100B4C00684A000838B5041C0D1C9023DB0598423C
:100B5C0013D00E4B984210D00D4B98420DD00D4B2C
:100B6C0098420AD00C4B984207D00C4B984204D0B8
:100B7C000B48A621FF3100F063FE002D04D108487C
:100B8C00D321490000F05CFE258538BD00040048E7
:100B9C0000080048000C00480010004800140048F1
:100BAC00684A000870B5041C0D1C161C9023DB054C
:100BBC00984212D0174B98420FD0174B98420CD03A
:100BCC00164B984209D0164B984206D0154B9842BA
:100BDC0003D01548154900F033FE0F2D03D91248E8
:100BEC00134900F02DFE072E03D90F48114900F0D0
:100BFC0027FE07232B409B009E40E9080831890003
:100C0C000A590F20984082430A510B591E430E512A
:100C1C0070BDC0460004004800080048000C0048A5
:100C2C000010004800140048684A00080D0200003B
:100C3C000E0200000F02000070B5041C8378012B1B
:100C4C0003D91A48522100F0FBFD6378032B03D91A
:100C5C001648532100F0F4FDA378002B1BD0257807
:100C6C00AA08134BC0329200D65803210D40E9005C
:100C7C00FF20051C8D40AE43351C6678B601304014
:100C8C008840011C2943D15022781F210A400121A0
:100C9C009140196008E023781F21194001238B40F3
:100CAC00191C8023024AD15070BDC0469C4A0008D2
:100CBC0000E100E070B5041C5E4B5B680C22134035
:100CCC00042B0CD002D8002B05D028E0082B0AD01E
:100CDC000C2B20D023E0584B0360002022E0564B15
:100CEC00036000201EE0534B5D68AD025A682D0F67
:100CFC000235C0235B021A4202D15048684308E017
:100D0C004C4BDB6A0F21194001314B4803F0C8F9F9
:100D1C006843206006E04A4B0360002002E0464B2B
:100D2C0023600020434B5A681206120F454DA95CF4
:100D3C00C9B22668321CCA40111C62605A6852053E
:100D4C00520FAA5CD2B2D1400A1CA1601B6BD90510
:100D5C0002D43D4BE36008E0364B5B68590402D487
:100D6C005308E36001E09308E360324B1B6B5906B8
:100D7C0002D4364B236102E080231B0223612D4BEE
:100D8C001B6BD90602D42C4B636100E06661294BC6
:100D9C001B6B990701D1A26119E0264B1B6B032138
:100DAC000B40012B01D1A66111E0224B1B6B0321DF
:100DBC000B40022B03D180231B02A36107E01D4BC8
:100DCC001B6B03210B40032B01D11B4BA361194B54
:100DDC00196BC0239B02194201D1E26120E0154B33
:100DEC001B6BC02292021A4080235B029A4201D1F3
:100DFC00E66115E00F4B1B6BC02292021A40802358
:100E0C009B029A4203D180231B02E36108E0094B49
:100E1C001A6BC0239B021A409A4201D1064BE36124
:100E2C00044B1B6B1A0602D4054B236200E02062B4
:100E3C0070BDC0460010024000127A0000093D004F
:100E4C00006CDC0204000020809FD50012800000A2
:100E5C0038B5041C0D1C0D4B184201D1002803D1D0
:100E6C000B480C4900F0ECFC012D03D908480A4949
:100E7C0000F0E6FC002D04D0084B5A6914435C6169
:100E8C0003E0064B5A69A2435A6138BDAAFF81FEA2
:100E9C00D04A00083605000037050000001002405B
:100EAC0038B5041C0D1C0D4B184201D1002803D180
:100EBC000B480C4900F0C4FC012D03D908480A4921
:100ECC0000F0BEFC002D04D0084B9A6914439C61C1
:100EDC0003E0064B9A69A2439A6138BDFEA5B8FFA0
:100EEC00D04A00085A0500005B05000000100240C3
:100EFC0038B5041C0D1C0E4B184201D1002803D12F
:100F0C000C480D4900F09CFC012D04D90948B12175
:100F1C00C90000F095FC002D04D0084BDA6914438D
:100F2C00DC6103E0054BDA69A243DA6138BDC046E7
:100F3C00CCB61185D04A000887050000001002408D
:100F4C0038B5041C0D1C0E4B184201D1002803D1DE
:100F5C000C480D4900F074FC012D04D90948B92145
:100F6C00C90000F06DFC002D04D0084BDA68144366
:100F7C00DC6003E0054BDA68A243DA6038BDC0469A
:100F8C00FEA5B8FFD04A0008C705000000100240BB
:100F9C00F8B54F464646C0B4051C0C1C644B984231
:100FAC0006D0644B984203D06348EB2100F048FC18
:100FBC002388002B0FD08022D20093420BD08022AA
:100FCC001202934207D0C0221202934203D05A4815
:100FDC00EE2100F035FC638882225200934205D04A
:100FEC00002B03D05448EF2100F02AFCA388C02228
:100FFC009200934233D08022D20093422FD0A02271
:10100C00D20093422BD0C022D200934227D0E022B0
:10101C00D200934223D08022120193421FD09022FF
:10102C00120193421BD0A0221201934217D0B0227E
:10103C001201934213D0C022120193420FD0D0223E
:10104C00120193420BD0E0221201934207D0F022FE
:10105C001201934203D03848F02100F0F1FBE388F1
:10106C00002B05D0022B03D03348F12100F0E8FB14
:10107C002389012B03D93048F22100F0E1FB63896D
:10108C0080229200934205D0002B03D02A48F321F2
:10109C0000F0D6FBA389002B11D0082B0FD0102BFE
:1010AC000DD0182B0BD0202B09D0282B07D0302B90
:1010BC0005D0382B03D02048F42100F0C1FBE38984
:1010CC00002B05D0802B03D01B48F52100F0B8FB7A
:1010DC00238A002B03D11848F62100F0B1FB2B8892
:1010EC00C12292011A4091462288E389E788268919
:1010FC006089A18913433B43334303430B434A4663
:10110C0013432B80AA880D4B1340A2881343AB804A
:10111C00238A2B822B8804229343628813432B80CF
:10112C00AA8B074B1340AB830CBC90469946F8BD79
:10113C000030014000380040004B0008FFF0FFFF7A
:10114C00FFF7FFFF38B5041C0D1C0F4B984207D05E
:10115C000E4B984204D00E48C821FF3100F070FBB2
:10116C00012D04D90A48E421490000F069FB002D47
:10117C0004D0228840231343238003E02388402299
:10118C009343238038BDC0460030014000380040F6
:10119C00004B000838B5041C0D1C064B984206D0B9
:1011AC00054B984203D00548054900F049FB2573CF
:1011BC0038BDC0460030014000380040004B0008EC
:1011CC00EB02000038B5051C0C1C144B984206D0E1
:1011DC00134B984203D01348134900F031FB802C79
:1011EC0015D0402C13D0202C11D0102C0FD0022C49
:1011FC000DD0012C0BD080235B009C4207D0042C1B
:10120C0005D0082C03D00748084900F019FB2889A1
:10121C000440201C441EA04138BDC0460030014093
:10122C0000380040004B0008DA040000DB0400002A
:10123C00F0B5474680B48AB0041C0D1C5C4B984238
:10124C000CD05C4B984209D05B4B984206D05B4B60
:10125C00984203D05A48DC2100F0F2FA2A68013A8D
:10126C00584B9A4203D95648DD2100F0E9FA6B68D5
:10127C00002B0AD080225201934206D0524A93424C
:10128C0003D04F48DE2100F0DBFAAB68002B0BD00B
:10129C0080229201934207D0C0229201934203D044
:1012AC004748DF2100F0CCFAEB68002B0BD08022F2
:1012BC00D200934207D0C022D200934203D04048C0
:1012CC00E02100F0BDFA2B690C22191C914301D1CD
:1012DC00002B03D13A48E12100F0B2FA6B69002BE4
:1012EC000FD08022520093420BD080229200934266
:1012FC0007D0C0229200934203D03148E22100F083
:10130C009FFA236801229343236062682F4B13409A
:10131C00AA681343636022682D4B1A406B68E96816
:10132C000B4329690B4313432360A268294B1340D9
:10133C006A691343A36001A8FFF7BCFC1C4B9C42D9
:10134C0001D1079F05E01B4B9C4201D1089F00E097
:10135C00039F236819040CD57F00B8462F684046BC
:10136C00391C02F09DFE061C4046391C02F0DCFEC6
:10137C000AE02A689046381C111C02F091FE061CEB
:10138C00381C414602F0D0FE2A68520800239142D4
:10139C005B41F6182368190404D533075B0F0E4A1A
:1013AC0016401E43B6B2A6810AB004BC9046F0BDEE
:1013BC00003801400044004000480040004C004010
:1013CC00304B00087F8D5B0000100010FFCFFFFF3B
:1013DC00F3E9FFFFFFFCFFFFF0FF000038B5041C32
:1013EC000D1C124B98420DD0114B98420AD0114B48
:1013FC00984207D0104B984204D01048C82149009D
:10140C0000F01EFA012D04D90C489221FF3100F096
:10141C0017FA002D04D0226801231343236003E044
:10142C00236801229343236038BDC0460038014035
:10143C000044004000480040004C0040304B000885
:10144C0038B5041C0D1C0D4B98420CD00C4B98421B
:10145C0009D00C4B984206D00B4B984203D00B484A
:10146C000B4900F0EDF90B4B9D4203D907480A4993
:10147C0000F0E6F9ED05ED0D258538BD003801408D
:10148C000044004000480040004C0040304B000835
:10149C0095030000FF0100009603000010B5041C2A
:1014AC00094B98420CD0094B984209D0084B9842F2
:1014BC0006D0084B984203D00748084900F0C0F901
:1014CC00A08CC005C00D10BD003801400044004088
:1014DC0000480040004C0040304B0008A6030000C0
:1014EC0070B5051C0C1C161C2C4B98420CD02C4BAC
:1014FC00984209D02B4B984206D02B4B984203D0E4
:10150C002A482B4900F09CF984235B009C4225D08F
:10151C00284B9C4222D0284B9C421FD0274B9C42EC
:10152C001CD0274B9C4219D0264B9C4216D0264BE4
:10153C009C4213D0C0239B009C420FD0234B9C4257
:10154C000CD0234B9C4209D0224B9C4206D0224B00
:10155C009C4203D01548214900F072F9012E03D9A1
:10156C0012481F4900F06CF92B1CA2B2120AFF2181
:10157C000C400121A1400C1C022A01D12B1D03E0BF
:10158C00032A01D12B1C0833002E03D01A681443F4
:10159C001C6002E01A68A2431A6070BD003801405A
:1015AC000044004000480040004C0040304B000814
:1015BC0005070000070107000601060005010500EC
:1015CC0004010400060208000A0309001A010B00BA
:1015DC001B010C000E01110016031400060700007D
:1015EC000707000038B5051C0C1C314B98420CD079
:1015FC00304B984209D0304B984206D02F4B984232
:10160C0003D02F482F4900F01BF9012C49D0802C16
:10161C0047D0402C45D0202C43D0102C41D08023D7
:10162C005B009C423DD080239B009C4239D0082C0F
:10163C0037D0042C35D0022C33D08023DB009C42D5
:10164C002FD080231B019C422BD080235B019C421A
:10165C0027D08023DB019C4223D080231B029C4299
:10166C001FD080235B029C421BD080239B029C4298
:10167C0017D08023DB029C4213D080231B039C4297
:10168C000FD080235B039C420BD080239B039C4296
:10169C0007D08023DB039C4203D009480A4900F0A1
:1016AC00CFF8E8690440201C441EA04138BDC04658
:1016BC00003801400044004000480040004C00400D
:1016CC00304B0008930700009407000038B5051C48
:1016DC000C1C2F4B98420CD02E4B984209D02E4B01
:1016EC00984206D02D4B984203D02D482D4900F03E
:1016FC00A7F884235B009C422AD02B4B9C4227D01A
:10170C002A4B9C4224D02A4B9C4221D0294B9C42F0
:10171C001ED0294B9C421BD0284B9C4218D0284BE6
:10172C009C4215D0274B9C4212D0274B9C420FD089
:10173C00264B9C420CD0264B9C4209D0254B9C42FC
:10174C0006D0254B9C4203D01548244900F078F86C
:10175C00A3B21B0AFF222240012191400A1C012B3B
:10176C0002D129680A4006E0022B02D169680A40BE
:10177C0001E0A9680A40240C0123A3401C1CEB695E
:10178C001C400020002A02D0201C441EA04138BD61
:10179C00003801400044004000480040004C00402C
:1017AC00304B0008E60700000701070006010600A1
:1017BC000501050004010400060208000A030900E3
:1017CC000003030000030200000301001A010B00D8
:1017DC001B010C000E01110016031400E70700009A
:1017EC00FEE7C04608B50120FFF7FAFF08B50D4B20
:1017FC001B68002B02D10C4A0A4B1A60094B1B6860
:10180C000330032290431818084A904206D902F07C
:10181C0097FC0C2303600120404202E0014A106057
:10182C00181C08BD90000020B40C0020001C0020E7
:10183C0001230360014B0B607047C046140000206D
:10184C0008B5FFF7CFFFC04608B500F05BF808BD40
:10185C0082B0002301930093274B19688022520217
:10186C000A431A60191C80229202A020C0010B6846
:10187C0013400093019B01330193009B002B02D179
:10188C00019B8342F3D11C4B1B689A0302D50123A5
:10189C00009301E000230093009B012B2AD111221D
:1018AC00164B1A60144B5A685A605A685A60596839
:1018BC00134A0A405A605968882252030A435A60F4
:1018CC001968802252040A431A60191C802292045F
:1018DC000B681342FCD0084B5A6803218A435A60A8
:1018EC00596802220A435A60191C0C224B68134097
:1018FC00082BFBD102B070470010024000200240C0
:10190C00FF7FC0FF08B5124B196801221143196003
:10191C00586810490140596018680F490140196016
:10192C0018680E490140196058680D49014059600A
:10193C00D96A0F208143D962186B0A490140196397
:10194C00596B9143596300229A60FFF781FF08BDE0
:10195C00001002400CB8FF08FFFFF6FEFFFFFBFF74
:10196C00FFFFC0FFACFEFFFF70B5041C0E1C002374
:10197C00037073238360081C02F0F4FC0130606078
:10198C0002F0E4FB051E02D10323237003E0311C9B
:10199C0002F0E0FC2561201C70BDC04600230370E2
:1019AC006923836004234360016170470023037043
:1019BC006923836004234360016170470023037033
:1019CC0066238360042343600161704710B582B0C5
:1019DC006B460091019200220270742282600822F0
:1019EC004260021C103212CB12C202B010BDC046B3
:1019FC000021017008214160642181600261436112
:101A0C007047C046F0B54F464646C0B483B0071C7D
:101A1C00894690460023037062238360101C0430B7
:101A2C007860009201AD6C460334042304E0237803
:101A3C002B70331C0135013C5E1E002BF7DC019C26
:101A4C00009400280DDD02F081FB051E02D103235A
:101A5C003B7008E010C04946424602F08BFB3D61EA
:101A6C0001E000233B61381C03B00CBC9046994646
:101A7C00F0BDC04610B5041C4368002B0BDD836819
:101A8C00732B03D1006902F06BFB04E0622B02D1D3
:101A9C00006902F065FB201C10BDC04602230370D8
:101AAC00816000234360704700238268692A00D15B
:101ABC000369181C7047C04610B5041C0020A368AD
:101ACC00622B08D16368934205DC081C21691A1C3F
:101ADC0002F050FB606810BD70B5431C01228256A9
:101AEC000126212A01D1831C002670427041C0B20C
:101AFC0014E001241C572D2C0AD10C7852B265B27B
:101B0C00AA4203DC02229A5695420DDD033305E00E
:101B1C0052B200240C57A24208D001331A785D2A25
:101B2C0005D0002AE5D102E0301C00E0301C70BD6D
:101B3C0070B50E1C013013E0013400E0041C237856
:101B4C007D2B05D0002B03D02F2B01D02C2BF3D1C8
:101B5C00251A311C2A1C02F00CFC002809D0601C30
:101B6C0003787D2B07D0002B07D02F2BE6D100203C
:101B7C0004E0281C02E0002000E0002070BDC046FC
:101B8C0008B5031C02785D2A12D050B25D2805DC22
:101B9C0001203F2A27D05B2A05D01EE07B2A0FD0DC
:101BAC007D2A12D019E0181CFFF796FF1BE0013BB1
:101BBC0000229A565B2AFAD1181CFFF78DFF12E00F
:101BCC00181CFFF7B5FF0EE0013B00229A567B2A4A
:101BDC00FAD1181CFFF7ACFF05E050B20023CB562E
:101BEC00C01A4242504108BD70B5041C0D1C0B7844
:101BFC002F2B01D0002B0ED123782F2B2ED0012090
:101C0C00002B2ED000202A2B2BD160782F2827D008
:101C1C004342584125E006782A2E0BD10130FFF7BC
:101C2C00E3FF031C0120002B1BD1691C201CFFF7B8
:101C3C00DBFF16E0FFF7A4FF002812D05B2E03D0C9
:101C4C007B2E06D100E0013423785D2B01D07D2B57
:101C5C00F9D1601C691CFFF7C7FF02E0012000E00E
:101C6C00012070BDF0B557464E464546E0B480465F
:101C7C000F1C0B7800200A1C002B01D178E00132DC
:101C8C0013782F2B04D0002BF9D14446002008E008
:101C9C004446002005E05BB22A3B59424B41C01838
:101CAC00013423782F2B01D0002BF4D1013C551E8D
:101CBC00012815D002282BD054E0201C291CFFF73A
:101CCC005FFF002854D05D2E03D07D2E06D100E09E
:101CDC00013C23785B2B01D07B2BF9D1013C013DDE
:101CEC0026782A2EE9D1012042E0201C291CFFF77E
:101CFC0047FF00283CD05D2E03D07D2E06D100E09E
:101D0C00013C23785B2B01D07B2BF9D1013C013DAD
:101D1C0026782A2EE9D10135A946013CA2461DE0C0
:101D2C00544601235B4299444E4612E0201C311C60
:101D3C00FFF726FF00280FD05D2D03D07D2D06D197
:101D4C0000E0013C23785B2B01D07B2BF9D1013CCB
:101D5C00013E25782A2DE9D1444508D0B945DFD874
:101D6C00002005E04046391CFFF73EFF00E0012053
:101D7C001CBC90469946A246F0BDC046F0B55746ED
:101D8C004E464546E0B480460F1C9246994602F0FA
:101D9C00D7FA00280BD1404602F0E4FA5246106004
:101DAC00381C02F0DFFA4B461860032064E0002375
:101DBC00524613604A4613603D1C444645E02A2EA9
:101DCC0014D1201C291CFFF74DFF002801D153E032
:101DDC00013423782F2B03D0002BF9D100E00135EF
:101DEC002B782F2B31D0002BF9D12EE02A2B0ED1B2
:101DFC0000E0013426782F2E03D0002EF9D100E01C
:101E0C0001352E782F2E20D0002EF9D11DE0201C6C
:101E1C00291CFFF7B5FE00282DD05B2E08D100E061
:101E2C0001340023E3565D2BFAD1013401350CE06B
:101E3C007B2E08D100E001340023E3567D2BFAD130
:101E4C0001342D1801E0013401352B78002B02D020
:101E5C002678002EB3D14246A31A52461360EF1BCC
:101E6C004B461F602878434258412378002B03D1FE
:101E7C000223184300E000201CBC90469946A24661
:101E8C00F0BDC04683688B4203DD43688900C858A7
:101E9C0002E00423037300207047C04600B583B0F2
:101EAC000068801801AA6B46FFF768FF03384342AD
:101EBC005841C0B203B000BD38B5041C151C1A1C27
:101ECC00FFF7ECFF0023002802D0201CA8470123B9
:101EDC00181C38BD70B5051C0E1C006802F040F9CA
:101EEC00301C02F03FFA013002F030F9041E04D12C
:101EFC0003232B7300232B6003E0311C02F02AFA1E
:101F0C002C6070BD70B5051C067B731E9E41F6B22D
:101F1C00002408E0281C211CFFF7B4FF03785A1E8C
:101F2C0093411E430134AB68A342F3DC301C70BDFB
:101F3C0038B5041CFFF7A6FF051C201CFFF7E2FFB9
:101F4C00021C0020002A02D1281CFFF7ADFD38BD71
:101F5C00F8B5041C171C1D1CFFF794FF061C201C55
:101F6C00FFF7D0FF0024002809D17368AB4200DCD6
:101F7C001D1C301C391C2A1CFFF79EFD041C201C48
:101F8C00F8BDC04638B5041CFFF77CFF051C201CAF
:101F9C00FFF7B8FF0023002800D12B7A58B238BDC8
:101FAC0070B5041C151CFFF76DFF061C201CFFF7F9
:101FBC00A9FF011C0020002904D1B3685B1B5D4202
:101FCC006B41D8B270BDC04608B56922FFF7E8FF77
:101FDC0008BDC04608B56222FFF7E2FF08BDC04647
:101FEC00F0B54F464646C0B485B0061C0C1C081C08
:101FFC0000F054FC301CFFF785FF002800D0B6E041
:10200C003768381C02F0AEF9421C03258543201CAE
:10201C00391C00F059FC04E0201C002100F04CFCA1
:10202C003D1C6F1E002DF7D1201C2C2100F044FC10
:10203C0008E0301C291CFFF7A5FFC1B2201C00F0E2
:10204C003BFC0135B268AA42F3DC0323934306D16F
:10205C00042304E0201C002100F02EFC2B1C5D1E30
:10206C00002BF7D10027032291460423984678E0F1
:10207C00301C391CFFF706FF051C8368732B01D03D
:10208C00622B12D1201C29696A6800F01DFC6B6858
:10209C005B424A46134004E0201C002100F00CFC7B
:1020AC002B1C5D1E002BF7D15AE0642B11D117307D
:1020BC0002AA082304E0037813700B1C01320138C8
:1020CC00591E002BF7DC201C02A9082200F0FCFB97
:1020DC0046E0742B2ED1011C103102A8082202F00C
:1020EC0049F801A96A460B32434604E013780B7099
:1020FC00031C0131013A581E002BF7DC019B0093A5
:10210C00201C6946424600F0DFFB01A96A460F32EB
:10211C00434604E013780B70031C0131013A581E3E
:10212C00002BF7DC019A0092201C6946424600F015
:10213C00CBFB15E0542B13D0462B11D0011C1331C3
:10214C0002AA434604E00B781370031C01320139D8
:10215C00581E002BF7DC6A68201C02A900F0B4FBA7
:10216C000137B368BB4283DC201C00F09DFB05B03B
:10217C000CBC90469946F0BD70B5041CCEB218202C
:10218C0001F07AFF051C71B2FFF788FC2B78032B4A
:10219C0001D1237311E0A16801318900606802F05C
:1021AC008FF8002802D10323237306E06060A26835
:1021BC009300C550A3680133A36070BD38B5041CEF
:1021CC000D1C8269002A08DD43695A1C42610269B0
:1021DC00D1548369013B836110E04169113100697D
:1021EC0002F06EF82061002806D063695A1C626107
:1021FC00C5541023A36101E00323237338BDC046EB
:10220C0010B5041C0069102102F05AF82061002856
:10221C0002D01023A36103E0032323730023236163
:10222C000023636110BDC04638B5041C0025056051
:10223C00856005734560056145618561FFF7E0FFC9
:10224C00657338BD38B5041C0D1CFFF7EDFF201C61
:10225C00291CFFF73FFE201C38BDC04610B5041CDE
:10226C00FFF7E2FF02232373201C10BD70B5061C80
:10227C000023037300240BE0301C211CFFF702FE2B
:10228C00051E04D0FFF7F6FB281C01F0EFFE01340D
:10229C00B368A342F0DC706801F062FF0023736046
:1022AC00B3607373301CFFF7ABFF70BD10B5041C2B
:1022BC00006801F055FF201CFFF7D8FF206901F0E2
:1022CC004FFF201C10BDC04610B5041C2169FFF740
:1022DC0001FE00232373201CFFF792FF10BDC046A4
:1022EC00F0B5474680B48AB0071C0C1C00265FE290
:1022FC00381C311CFFF7C6FD0378022B00D056E2C8
:10230C008368623B122B00D956E29B00CB4AD35810
:10231C009F467A69042A00D04EE202A8396901F07E
:10232C0029FF04A96A460B32042304E013780B70CE
:10233C00031C0131013A581E002BF7DC049DBB68CD
:10234C009E421ADA381C311CFFF79CFD041E04D087
:10235C00FFF790FB201C01F089FE182001F08CFE89
:10236C00041C291CFFF71AFB2378032B01D13B73A8
:10237C0026E0B6007B689C5122E09E421ED11820BC
:10238C0001F07AFE041C291CFFF708FB2378032BB1
:10239C0001D13B7314E0B96801318900786801F010
:1023AC008FFF002802D103233B7309E07860BA68E1
:1023BC009300C450BB680133BB6001E004233B7342
:1023CC00381CFFF71DFFF7E17B69042B00D0F3E10C
:1023DC0002A83969042201F0CDFE04A96A460B3229
:1023EC00042304E013780B70031C0131013A581ECE
:1023FC00002BF7DC049DBB689E421ADA381C311C9A
:10240C00FFF740FD041E04D0FFF734FB201C01F045
:10241C002DFE182001F030FE041C291CFFF7CEFA0B
:10242C002378032B01D13B7326E0B6007A689451D4
:10243C0022E09E421ED1182001F01EFE041C291C15
:10244C00FFF7BCFA2378032B01D13B7314E0B96876
:10245C0001318900786801F033FF002802D1032391
:10246C003B7309E07860BA689300C450BB680133D1
:10247C00BB6001E004233B73381CFFF7C1FE9BE1FA
:10248C007B69082B00D097E102A83969082201F07A
:10249C0071FE04A96A460F32082304E013780B700E
:1024AC00031C0131013A581E002BF7DC049C059DDE
:1024BC00BB689E421EDA381C311CFFF7E3FC8046D9
:1024CC00002804D0FFF7D6FA404601F0CFFD1820C3
:1024DC0001F0D2FD8046221C2B1CFFF789FA4246E4
:1024EC001378032B01D13B7328E0B60042467B687E
:1024FC009A5123E09E421FD1182001F0BDFD061C0D
:10250C00221C2B1CFFF774FA3378032B01D13B737D
:10251C0014E0B96801318900786801F0D1FE002817
:10252C0002D103233B7309E07860BA689300C6506C
:10253C00BB680133BB6001E004233B73381CFFF71D
:10254C005FFE39E17B69082B00D035E168463969BB
:10255C00082201F00FFE04A96A460332042304E0AA
:10256C0013780B70031C0131013A581E002BF7DC59
:10257C00049A009204A96A460732042304E01378F3
:10258C000B70031C0131013A581E002BF7DC049B25
:10259C00019302A86946082201F0ECFDBB689E423B
:1025AC0020DA381C311CFFF76DFC041E04D0FFF739
:1025BC0061FA201C01F05AFD06A802A9082201F0BC
:1025CC00D9FD182001F058FD041C0699079AFFF755
:1025DC00FDF92378032B01D13B7333E0B6007A6805
:1025EC0094512FE09E422BD104A802A9082201F09D
:1025FC00C1FD08A804A9082201F0BCFD182001F0B7
:10260C003BFD041C0899099AFFF7E0F92378032B8A
:10261C0001D13B7316E0B96801318900786801F08B
:10262C004FFE002802D103233B730BE07860BA689D
:10263C009300C450BB680133BB6003E0644B0008DB
:10264C0004233B73381CFFF7DBFDB5E0002C00D0F6
:10265C00B2E03D69BB689E421ADA381C311CFFF7A8
:10266C0011FC041E04D0FFF705FA201C01F0FEFC3F
:10267C00182001F001FD041C291CFFF775F92378C3
:10268C00032B01D13B7326E0B6007B689C5122E002
:10269C009E421ED1182001F0EFFC041C291CFFF7F0
:1026AC0063F92378032B01D13B7314E0B968013132
:1026BC008900786801F004FE002802D103233B73E3
:1026CC0009E07860BA689300C450BB680133BB6002
:1026DC0001E004233B73381CFFF792FD06237B7348
:1026EC006AE07D69042D67DD3B69984602A8191CD8
:1026FC00042201F03FFD04A86A460B32042304E0D7
:10270C0013780370231C0130013A5C1E002BF7DC9C
:10271C00049C231D9D424FD104229044BB689E42D1
:10272C001BDA381C311CFFF7ADFB051E04D0FFF77C
:10273C00A1F9281C01F09AFC182001F09DFC051C45
:10274C004146221CFFF75EF92B78032B01D13B731A
:10275C0027E0B6007B689D5123E09E421FD11820D4
:10276C0001F08AFC051C4146221CFFF74BF92B7823
:10277C00032B01D13B7314E0B968013189007868EF
:10278C0001F09EFD002802D103233B7309E0786021
:10279C00BA689300C550BB680133BB6001E00423E9
:1027AC003B73381CFFF72CFD06237B7304E00136CA
:1027BC00BB68B34200DD9BE50AB004BC9046F0BD9B
:1027CC0038B5041C0D1CFFF7F9FC637B062B53D8A2
:1027DC009B002A4AD3589F462F2D4DD1012363735A
:1027EC004AE0002D48D1201CFFF76EFD02236373D5
:1027FC0042E02C2D40D103236373201CFFF700FD16
:10280C003AE0002D04D0201C291CFFF7B5FC01E098
:10281C0004236373A2680323934300D104239B18FE
:10282C006169994228D1201CFFF7EAFC05236373E8
:10283C0022E0201C291CFFF753FD1DE0A568013D7B
:10284C0018E0201C291CFFF71DFB0378002B10D16E
:10285C0043685B420322134002D1052363730BE0F0
:10286C0062699A4208D1201CFFF7CAFC05236373E6
:10287C0002E0013D002DE4DA38BDC046B04B000843
:10288C0070B5061C06E04D1C0978301CFFF798FF4C
:10289C00221C291C541E002AF5D170BD0022802355
:1028AC005B00C2547047C04680235B00C25C0223AD
:1028BC00FF33C2547047C04680235B00C25C815416
:1028CC000132C2547047C04670B5061C06E04D1C60
:1028DC000978301CFFF7F0FF221C291C541E002A1B
:1028EC00F5D170BDF0B5474680B482B08020C002EF
:1028FC000121FEF7ADFA80263601009601229046A2
:10290C006B461A7100259D7103275F71DD71144CA4
:10291C00201C6946FDF7F6FF201C311CFEF712F94E
:10292C00B0231B01009342466B461A719D715F7177
:10293C00DD71201C6946FDF7E5FF201C8021490054
:10294C00FEF7D0F8201C80218900FEF7CBF8201C64
:10295C00311CFEF7C7F802B004BC9046F0BDC0466F
:10296C0000040048012303700023044A8350812291
:10297C0092008350C32292008350704714050000CC
:10298C0010B5C0290CD18121890043585A1CC31899
:10299C00DB245C70531C43508018DC23437015E01F
:1029AC00DB290CD18121890043585A1CC318DB2424
:1029BC005C70531C43508018DD23437006E0812269
:1029CC00920083585C1C8450C018417010BDC046E6
:1029DC00F0B5474680B40024C3239B00C4500023A9
:1029EC00C326B600DB24A446C025A84629E0CC1893
:1029FC002578DB2D1BD15C1C0C192578DC2D08D11E
:102A0C0085596F1C875145198227BF00ED19474620
:102A1C002F712478DD2C08D18459651C855104193B
:102A2C008225AD00641967462771023309E0855988
:102A3C006F1C8751247845198227BF00ED192C7122
:102A4C0001339342D3DBC3239B00C258C4239B00A6
:102A5C00C25004BC9046F0BDF8B5041C214E224D6A
:102A6C00371C39E05A1C2149C95CFF2313403B80B9
:102A7C002378012B0CD1C02901D123702CE0012229
:102A8C001B4BE250C5239B00E1540223237023E02F
:102A9C00022B21D1164BE258FF2A07D901232370B0
:102AAC00144880218900FEF74DF815E0C02909D1A2
:102ABC0001232370C5239B00E118201CFFF788FF1E
:102ACC0001200EE0501C0A4BE050A218C4239B00BE
:102ADC00D21811710223237033882A889342C1D1F2
:102AEC000020F8BD9207002094070020B00B0020B6
:102AFC001405000000040048012281239B00C250F1
:102B0C00C02343707047C046812189004258531C32
:102B1C0043508218C021517082229200835070471A
:102B2C00F0B5474680B480460D1C141CFFF7E4FF3B
:102B3C0006E06F1C29784046FFF722FF341C3D1C31
:102B4C00661E002CF5D14046FFF7DEFF04BC904614
:102B5C00F0BDC04670B5051CFFF7E2FF00248226CD
:102B6C00B60004E02B19587801F054FA0134A85936
:102B7C00A042F7D870BDC0467047C0467047C046EB
:102B8C0008B50C4B18680C4901F08AFA01380B4B4C
:102B9C0098420DD80A4B58600A4A106A0002000A83
:102BAC00C02109060143116200229A6007221A60B3
:102BBC0008BDC0461C00002010270000FFFFFF00CE
:102BCC0010E000E000ED00E00022014B1A607047BD
:102BDC00AC070020014B18687047C046AC070020BA
:102BEC00034B18601A1C1368002BFCD17047C046AD
:102BFC00A8070020064B1B68002B03D0044B1A6857
:102C0C00013A1A60034B1A6801321A607047C046C9
:102C1C00A8070020AC07002008B5FFF7EBFF08BDA4
:102C2C0038B5041C524880210901FDF75BFF201CBC
:102C3C000021FFF7C9F9002800D198E0201C0021E1
:102C4C00FFF776F9C3175B0FC01807240440E41A8A
:102C5C000FD1474D281C80218900FDF743FF281C0C
:102C6C0080210901FDF73EFF281C80214900FDF75A
:102C7C0039FF012C0FD13E4D281C80218900FDF716
:102C8C0031FF281C80210901FDF72CFF281C802115
:102C9C004900FDF757FF022C0FD1354D281C802120
:102CAC008900FDF71FFF281C80210901FDF74AFF51
:102CBC00281C80214900FDF715FF032C0FD12C4D4A
:102CCC00281C80218900FDF70DFF281C802109019B
:102CDC00FDF738FF281C80214900FDF733FF042C39
:102CEC000FD1234D281C80218900FDF72BFF281CB8
:102CFC0080210901FDF7F6FE281C80214900FDF713
:102D0C00F1FE052C0FD11A4D281C80218900FDF7EE
:102D1C0019FF281C80210901FDF7E4FE281C8021E5
:102D2C004900FDF70FFF062C0FD1114D281C8021F7
:102D3C008900FDF707FF281C80210901FDF702FF20
:102D4C00281C80214900FDF7CDFE072C0FD1084C23
:102D5C00201C80218900FDF7F5FE201C8021090133
:102D6C00FDF7F0FE201C80214900FDF7EBFE38BD7D
:102D7C000004004870B5A2B0041C0021FFF724F930
:102D8C000025002805D0201C0021FFF7D1F80725CD
:102D9C000540201C0121FFF71DF9002805D0201C3F
:102DAC00012101AA8423FFF7D3F80023EE01084880
:102DBC0006E09A19191D01AC615C81540133DBB238
:102DCC005AB2002AF5DA281C01F008F822B070BDBE
:102DDC00B0070020F0B589B03D4C201CFDF708FA77
:102DEC00802080020121FEF733F88020C0020121EF
:102DFC00FEF72EF8802000030121FEF729F880272A
:102E0C00BF00381C0121FEF74BF83023009303253B
:102E1C006B461D710026DE712E486946FDF772FD6A
:102E2C0000956B461D71DE712B486946FDF76AFDF6
:102E3C00102300936B461D71DE719020C00569460E
:102E4C00FDF760FD02AD281CFDF75AFA082302932A
:102E5C0001232B71AE602E6104236B61201C291C95
:102E6C00FDF7E2F9201C8021C9010522FDF770FA5B
:102E7C00201C802109020522FDF76AFA201C102172
:102E8C000522FDF765FA201C802149000522FDF77B
:102E9C005FFA201C391C0522FDF75AFA201CFDF79D
:102EAC007FFA201C0221FDF7D9FA201C0121FDF725
:102EBC00B1FA201C0121FDF72BFA201C0121FDF792
:102ECC00E5FA0028F9D00248FDF790FA09B0F0BDF8
:102EDC0000240140000800480004004810B58CB0E4
:102EEC0001200121FDF7B4FF114C201CFDF714FB50
:102EFC00104B0193104B0293002303930522049271
:102F0C00059380220692520007928022D2000892EA
:102F1C0020220992802292010A920B93201C01A973
:102F2C00FDF776FB201C0121FDF726FC0CB010BD33
:102F3C0008000240402401407C07002038B5041CE6
:102F4C000D1C012808D1094B994205D10848FFF7FF
:102F5C0009FD0848FFF710FE002C05D1034B9D42DC
:102F6C0002D10448FFF70AFE38BDC046FFFF00003F
:102F7C004802002040020020F0B5474680B488B0DB
:102F8C0001A82349FFF75EF9FFF71EFE0024214F2D
:102F9C000322904623E0A300DE59182001F06CF8C0
:102FAC00051C311CFEF7FAFC2B78032B03D101AB6B
:102FBC0042461A7312E0029803990131890001F01C
:102FCC007FF9002803D101AB42461A7306E0029048
:102FDC00039A9300C550039B013303930134042CD3
:102FEC00D9D90D4C01A8211CFEF7FAFF0223FF339F
:102FFC00E25C0A48211C0A4BFFF7ACFD01A8FFF765
:10300C0035F901A8FFF752F908B004BC9046F0BDA1
:10301C00CC4B0008A00100209800002048020020A2
:10302C004002002010B500280ED14A4C201C402133
:10303C00FDF788FD201C8021FDF784FD201C8021DC
:10304C004900FDF77FFD84E001280ED1414C201C86
:10305C004021FDF747FD201C8021FDF773FD201C4E
:10306C0080214900FDF76EFD73E002280ED1394C2A
:10307C00201C4021FDF766FD201C8021FDF732FD50
:10308C00201C80214900FDF75DFD62E003280ED174
:10309C00304C201C4021FDF725FD201C8021FDF724
:1030AC0021FD201C80214900FDF74CFD51E0042836
:1030BC000ED1284C201C4021FDF744FD201C802102
:1030CC00FDF740FD201C80214900FDF70BFD40E081
:1030DC0005280ED11F4C201C4021FDF703FD201CA0
:1030EC008021FDF72FFD201C80214900FDF7FAFC03
:1030FC002FE006280ED1174C201C4021FDF722FD95
:10310C00201C8021FDF7EEFC201C80214900FDF7DE
:10311C00E9FC1EE007280ED10E4C201C4021FDF7C7
:10312C00E1FC201C8021FDF7DDFC201C80214900E6
:10313C00FDF7D8FC0DE0074C201C4021FDF702FDEB
:10314C00201C8021FDF7FEFC201C80214900FDF78E
:10315C00F9FC10BD0008004810B52E4B1B68002B65
:10316C0008D12D4C2068FFF75DFF2368013307223F
:10317C0013402360274B1B68022B40D127480821A2
:10318C00FDF74EFC64234242504140420340244A26
:10319C001370214B1C68013420480421FDF740FCBE
:1031AC00642342425041404203401D4A13551A4B7E
:1031BC001C68093419480221FDF732FC6423424291
:1031CC00504140420340164A1355134B1C681134AE
:1031DC0012480121FDF724FC642342425041404235
:1031EC0003400F4A13559020C0050221FDF718FC2F
:1031FC0064234242504140420340094A5376054CF5
:10320C0020680130032100F08FFF2160024B186809
:10321C0010BDC0463C0200204402002000080048BB
:10322C006007002008B50220FDF7E8FA01280ED14E
:10323C000220FDF755FB064A1188064B196151888F
:10324C00196091885960D188D96012899A6008BD3B
:10325C007C070020A001002030B520480168204BDD
:10326C001D78204C1A224A4315555D7EA2185576BE
:10327C00DC7D54705C7D94705C7CD4709C7C14718F
:10328C001C7E54719C7D9471DC7CD4711C7D1472F9
:10329C005C7B5472DC7B94729C7AD4725C7A14736F
:1032AC001C7C5473DC7A94739C7BD4731C7B1474D9
:1032BC005C795474DC7994749C78D4745C7814754F
:1032CC001C7954751C7A9475DC78D4759B791376BB
:1032DC00013103231940016030BDC0461C0200209F
:1032EC0060070020B4010020F0B5474680B488B0D8
:1032FC0000247E4D2E1C2F1CF1E02B5D002B73D077
:10330C0033199B7E002B6FD03B1934331B78002B69
:10331C006AD0764B1B194E331B78002B64D0744B40
:10332C001B5D002B60D101A87249FEF78BFF1820A2
:10333C0000F0A2FE8046211CFEF730FB41460B78C4
:10334C00032B03D1032201AB1A7313E002980399E8
:10335C000131890000F0B4FF002803D1032201AB36
:10336C001A7307E00290039A93004146C150039BE5
:10337C0001330393182000F07FFE80466421FEF792
:10338C000DFB42461378032B03D1032201AB1A73B6
:10339C0013E0029803990131890000F091FF002895
:1033AC0003D1032201AB1A7307E0029003998B003F
:1033BC004246C250039B013303934F4B984601A8DE
:1033CC00191CFEF70DFE0223FF334146CA5C4B4825
:1033DC004B4BFFF7BFFB01A8FEF748FF6422444BA1
:1033EC001A5501A8FEF762FF404B1B5D002B75D1EF
:1033FC003E4B1B199B7E002B70D13C4B1B1934335D
:10340C001B78002B6AD1394B1B194E331B78002BC0
:10341C0064D1374B1B5D002B60D001A83549FEF7FA
:10342C0011FF182000F028FE8046211CFEF7B6FA8A
:10343C0042461378032B03D1032201AB1A7313E01A
:10344C00029803990131890000F03AFF002803D15A
:10345C00032201AB1A7307E0029003998B004246DA
:10346C00C250039B01330393182000F005FE8046E5
:10347C000021FEF793FA41460B78032B03D103226C
:10348C0001AB1A7313E0029803990131890000F023
:10349C0017FF002803D1032201AB1A7307E0029037
:1034AC00039A93004146C150039B01330393124A84
:1034BC00904601A8111CFEF793FD0223FF334146F1
:1034CC00CA5C0E480E4BFFF745FB01A8FEF7CEFE7B
:1034DC000022074B1A5501A8FEF7E8FE0134192CFF
:1034EC0000D80AE708B004BC9046F0BDB401002037
:1034FC0020020020D44B0008980000204802002035
:10350C004002002008B5FFF7A7FEFFF7EDFE08BD4F
:10351C0070B588B09D488021C901FDF781FA041C63
:10352C00601E8441994880210902FDF779FA002830
:10353C0001D002231C43964B1B789C4200D1BBE06C
:10354C00002B59D101A89349FEF77CFE022C20D107
:10355C00182000F091FD051C0021FEF727FA2B78AE
:10356C00032B03D1032201AB1A7312E002980399C7
:10357C000131890000F0A4FE002803D1032201AB25
:10358C001A7306E00290039A9300C550039B013313
:10359C000393012C20D1182000F06EFD051C012195
:1035AC00FEF704FA2B78032B03D1032201AB1A7319
:1035BC0012E0029803990131890000F081FE002885
:1035CC0003D1032201AB1A7306E00290039A930015
:1035DC00C550039B013303936F4D01A8291CFEF7C3
:1035EC00FFFC0223FF33EA5C6C48291C6C4BFFF791
:1035FC00B1FA01A8FEF75AFE654B1B78032B59D183
:10360C0001A86449FEF71EFE012C20D1182000F001
:10361C0033FD051C0021FEF7C9F92B78032B03D1D0
:10362C00032201AB1A7312E002980399013189004D
:10363C0000F046FE002803D1032201AB1A7306E00A
:10364C000290039A9300C550039B01330393022C01
:10365C0020D1182000F010FD051C0121FEF7A6F961
:10366C002B78032B03D1032201AB1A7312E00298BF
:10367C0003990131890000F023FE002803D10322B5
:10368C0001AB1A7306E00290039A9300C550039B9A
:10369C0001330393404D01A8291CFEF7A1FC022322
:1036AC00FF33EA5C3D48291C3D4BFFF753FA01A858
:1036BC00FEF7FCFD364B1C70344880218901FDF768
:1036CC00AFF9051C041C374B1B7898425BD001A842
:1036DC003549FEF7B7FD002D20D1182000F0CCFCA9
:1036EC00061C0021FEF762F93378032B03D1032269
:1036FC0001AB1A7312E0029803990131890000F0B2
:10370C00DFFD002803D1032201AB1A7306E00290FF
:10371C00039A9300C650039B01330393012C20D1D1
:10372C00182000F0A9FC041C0121FEF73FF92378B6
:10373C00032B03D1032201AB1A7312E002980399F5
:10374C000131890000F0BCFD002803D1032201AB3C
:10375C001A7306E00290039A9300C450039B013342
:10376C0003930D4C01A8211CFEF73AFC0223FF33F6
:10377C00E25C0A48211C0A4BFFF7ECF9094B1D705F
:10378C0001A8FEF793FD08B070BDC04600040048C8
:10379C0090070020DC4B0008980000204802002015
:1037AC004002002020000020E44B0008F0B5474602
:1037BC0080B48EB0FFF70EFBFFF790FB8020000368
:1037CC000121FDF745FBE0235B00009301246A46D1
:1037DC0014710025957103235371D5717C4E301CE7
:1037EC006946FDF78FF8301C4021FDF7ABF9301C12
:1037FC008021FDF777F980235B009846301C191C5B
:10380C00FDF770F98027FF02381C0121FDF720FB22
:10381C00E0231B0200936B461D71DC716D4C201C68
:10382C006946FDF76FF8381C0121FDF711FB0F23DA
:10383C0000936A4615710227D771301C6946FDF753
:10384C0061F8802080020121FDF702FB00976B4696
:10385C001D71DF719020C0056946FDF753F807A86C
:10386C00FEF7FCFC00F08CFBFFF73CF880252D01EB
:10387C00201C291CFDF766F9201C80218900FDF70E
:10388C0031F9201C291CFDF72DF9201C4146FDF7B0
:10389C0029F9FFF775F9002000F0E8F94E480921E5
:1038AC000622042300F054FB4C481321042220234D
:1038BC0000F0D4FA02A84A49002200F01FFD011CB6
:1038CC0002A80822342300F0C9FA00F057FAFFF7D7
:1038DC007BF90027434D2C1C83229200AE18281C28
:1038EC004149FFF7B9F8002822D0C4239B00E258C5
:1038FC0007A8311CFEF7C4FF07A8FEF703FB00283E
:10390C0013D107A839490022FEF7C8FA002808D0BD
:10391C0007A8FEF7ABFC334C251C83239B00E61851
:10392C001FE007A8FEF7A2FC02E007A8FEF79EFC2A
:10393C00FFF750F9FA23DB009842D0D9FFF744F98E
:10394C007A1C904602A826493A1C00F0D7FC011CB0
:10395C0002A80822342300F081FA00F00FFA47463F
:10396C00BDE7201C2049FFF777F8002824D0C4239A
:10397C009B00EA5807A8311CFEF782FF07A8FEF748
:10398C00C1FA002815D107A819491A4A0023FEF7D5
:10399C0093FA07A81849194A0023FEF78DFA07A8CD
:1039AC001749184A0023FEF787FA07A8FEF75EFCB2
:1039BC0002E007A8FEF75AFCFFF7CEFB002801D166
:1039CC00FFF7A0FDFFF72EFCFFF7A2FDC9E7C046ED
:1039DC000008004800040048EC4B0008F84B0008B5
:1039EC000C4C000848020020400200201C4C00082F
:1039FC00244C00082D2C00082C4C0008812D0008AC
:103A0C00344C0008852F000808B501200149FFF748
:103A1C0095FA08BDFFFF000008B500200149FFF72B
:103A2C008DFA08BDFFFF0000F0B55F4656464D46C7
:103A3C004446F0B489B080239B029B46181C01219C
:103A4C00FDF706FA802040010121FDF729FA06ACAA
:103A5C00A0230693022323710026A6710323994603
:103A6C006371E6719025ED05281C211CFCF74AFFBB
:103A7C00281C05210022FDF795F8281C072100229F
:103A8C00FDF790F801A9224B0B8082235B004B8041
:103A9C00E023DB009A468B8000239846CE800E8173
:103AAC008027BF004F8110238B81CE8107230B828F
:103ABC00184E301CFDF76CFA301C0121FDF742FB4F
:103ACC0058460121FDF7C4F953460693012323718F
:103ADC004346A3714B4663714346E371281C211C7A
:103AEC00FCF710FF281C80214900FDF72BF8281C3F
:103AFC00391CFCF7F7FF281C8021C900FCF7F2FFEA
:103B0C0009B03CBC90469946A246AB46F0BDC046B7
:103B1C0000C0FFFF003001407047C0467F231940B2
:103B2C0093065B0FDB015918094B5B5C002806D030
:103B3C0007200240012090400343DAB205E0072041
:103B4C0002400120904083431A1C014B5A54704789
:103B5C00B0070020F8B54F464646C0B4894690469B
:103B6C00002587003F18144E1FE07B19F35C23419E
:103B7C00DA0709D54B465919C9B243461A19D2B2BC
:103B8C000120FFF7CBFF08E04A465119C9B2434662
:103B9C001A19D2B20020FFF7C1FF0134E4B200E0E1
:103BAC000024072CE1D90135EDB2042DF8D90520FC
:103BBC000CBC90469946F8BDA04C000808B50028EE
:103BCC0006D09020C0058021C900FCF78BFF05E0D2
:103BDC009020C0058021C900FCF7B4FF08BDC04689
:103BEC0008B5002806D09020C00580218900FCF77C
:103BFC0079FF05E09020C00580218900FCF7A2FF29
:103C0C0008BDC04608B5002806D09020C00580210C
:103C1C004900FCF767FF05E09020C00580214900B2
:103C2C00FCF790FF08BDC04610B5011C0548FDF718
:103C3C00B1FA044C201C8021FDF7C4FA0028F9D1FC
:103C4C0010BDC0460030014010B5041C0120FFF728
:103C5C00B5FF0020FFF7C4FF0020FFF7AFFF201CCB
:103C6C00FFF7E2FF0120FFF7A9FF10BD38B5051CD7
:103C7C00FFF7DAFE00233F4A3F4C002102E0E154FB
:103C8C0001339BB29342FAD90120FFF7BBFF052009
:103C9C00FEF7A6FF0020FFF7B5FF0520FEF7A0FFFB
:103CAC000120FFF7AFFFAE20FFF7CEFF0020FFF79C
:103CBC00CBFF1020FFF7C8FF4020FFF7C5FF812086
:103CCC00FFF7C2FF012D03D19F20FFF7BDFF02E0DC
:103CDC00CF20FFF7B9FFA120FFF7B6FFA620FFF713
:103CEC00B3FFA420FFF7B0FFA820FFF7ADFF3F20E4
:103CFC00FFF7AAFFD320FFF7A7FF0020FFF7A4FFD1
:103D0C00D520FFF7A1FF8020FFF79EFFD920FFF7FA
:103D1C009BFF012D03D12220FFF796FF02E0F1203B
:103D2C00FFF792FFDA20FFF78FFF1220FFF78CFFCF
:103D3C00DB20FFF789FF4020FFF786FF2020FFF7ED
:103D4C0083FF0020FFF780FFA120FFF77DFFC82035
:103D5C00FFF77AFF8D20FFF777FF012D03D110209D
:103D6C00FFF772FF02E01420FFF76EFFAF20FFF7A2
:103D7C006BFF38BDFF030000B0070020F8B5002032
:103D8C00FFF762FF1020FFF75FFF4020FFF75CFF9B
:103D9C000120FFF713FF0120FFF722FF0020FFF7A0
:103DAC000DFF00250A4F0B4E0B4C0BE0715D201CD8
:103DBC00FDF7F0F9201C8021FDF704FA0028F9D159
:103DCC000135ADB2BD42F1D90120FFF7F7FEF8BDC8
:103DDC00FF030000B007002000300140F8B50727B2
:103DEC0007400020FFF730FF1020FFF72DFFB02019
:103DFC003843FFF729FF154B1978013101220A408E
:103E0C001A700120FFF7DAFE0120FFF7E9FE00200F
:103E1C00FFF7D4FE0025FF010D4E0E4C0CE0EB1904
:103E2C00F15C201CFDF7B6F9201C8021FDF7CAF9C6
:103E3C000028F9D10135ADB27F2DF0D98022064B87
:103E4C001A700120FFF7BAFEF8BDC046910700209A
:103E5C00B0070020003001409C010020F0B547461F
:103E6C0080B480460E1C151C0024DFB208E04346CB
:103E7C00185DE9B23A1CFFF76DFE451901350134A6
:103E8C00B442F4DB04BC9046F0BDC046F0B55F46CE
:103E9C0056464D464446F0B485B08B46039201938A
:103EAC000425202846D02138C0B2431C254AD55CB5
:103EBC004000254BC35A5B009A46002290460123D2
:103ECC00994633E0524613192A1C7A439B181F4A11
:103EDC00D35C33414A461A4209D0019BD8B25A46A8
:103EEC001119C9B24346DAB2FFF718FE07E05A4679
:103EFC001119C9B24346DAB20020FFF70FFE0134A4
:103F0C0005E00024029A97193B1C47469846AC42A0
:103F1C00D8DBB846013605E000264246D300039AAA
:103F2C009B180293072EECDD012398444246012A8C
:103F3C00F2DD0135281C05B03CBC90469946A246E2
:103F4C00AB46F0BD404C00089C5100085C52000888
:103F5C00F0B5474680B480460E1C151C1F1C00246F
:103F6C0009E04346185D291C3A1C0123FFF78EFF1C
:103F7C002D1802350134B442F3DB04BC9046F0BD7D
:103F8C00F0B58BB08024A402201C0121FCF760FF4B
:103F9C00201C0121FCF7ACFF9025ED05281C02210B
:103FAC000122FCF7FFFD281C03210122FCF7FAFD7E
:103FBC0002A90C27029703234B7102230B710024D7
:103FCC008C710126CE71281CFCF79CFC0E4B0493C3
:103FDC00059406940794099408970C4D281C04A981
:103FEC00FDF726F9281C0A490122FDF779FA01A8E8
:103FFC001C22027044708670FCF71EFE281C0121E6
:10400C00FDF7ECF90BB0F0BD20A107000044004017
:10401C000501050038B5051C054C201C8021FDF759
:10402C00E1FA0028F9D00248291CFDF709FA38BD3D
:10403C000044004038B509480949FDF747FB002802
:10404C000BD0084C25880548FDF728FA064B585527
:10405C0023880133FF221340238038BD00440040E5
:10406C000501050094070020B00B002008B50028BE
:10407C0001D000F075F808BD10B5041E02D1012462
:10408C0000E09847201C00F061F8002805D1034B94
:10409C001B68002BF5D1FDF7A5FB10BD9807002080
:1040AC00002934D00123002210B488422CD30124DF
:1040BC002407A14204D2814202D209011B01F8E774
:1040CC00E400A14204D2814202D249005B00F8E72D
:1040DC00884201D3401A1A434C08A04202D3001B59
:1040EC005C0822438C08A04202D3001B9C0822438C
:1040FC00CC08A04202D3001BDC082243002803D0CA
:10410C001B0901D00909E3E7101C10BC70470028FB
:10411C0001D00020C04307B4024802A1401802900D
:10412C0003BDC046190000000029F0D003B5FFF70D
:10413C00B9FF0EBC4243891A1847C0467047C046A7
:10414C00014B18687047C0468400002008B5034B2B
:10415C00011C186800F060F808BDC04684000020FF
:10416C0008B5034B011C186800F00EF808BDC046DA
:10417C008400002010B50023934203D0CC5CC454BF
:10418C000133F9E710BD000030B5002940D00439E7
:10419C000B68002B00DAC9181E4A1368141C002B7C
:1041AC0002D14B60116033E099420FD208680A18B3
:1041BC009A4205D113685268C01808604A6000E042
:1041CC004B60216024E08A4203D8131C5A68002AF1
:1041DC00F9D11D685C198C420BD109686918581803
:1041EC001960904214D114685268091919605A6008
:1041FC000EE08C4202D90C23036009E008680C180D
:10420C00944203D114685268001908604A605960DE
:10421C0030BDC046A007002070B50323CD1C9D43C4
:10422C000835061C0C2D01D20C2501E0002D3FDBBE
:10423C008D423DD3204B1C681A1C211C002913D025
:10424C000868431B0DD40B2B02D90B60CC181EE055
:10425C008C4202D1636813601AE0486860600C1CE1
:10426C0016E00C1C4968E9E7144C2068002803D1BF
:10427C00301C00F031F82060301C291C00F02CF8A8
:10428C00431C15D0C41C03239C4384420AD12560D3
:10429C00201C0B300722231D9043C31A0BD05A420B
:1042AC00E25008E0211A301C00F016F80130EED173
:1042BC000C233360002070BDA00700209C07002059
:1042CC0008B50A1C0349031C0868191C00F066FB9E
:1042DC0008BDC0468400002038B5074C0023051CDF
:1042EC00081C2360FDF782FA431C03D12368002BC2
:1042FC0000D02B6038BDC046A40700200EB400B51A
:10430C009CB01DAB04CB822202A992008A810A4A7E
:10431C0002908A604A6101225242CA81074A0861AE
:10432C0010681D9A019300F09BF8029A00231370F9
:10433C001CB008BC03B01847FFFFFF7F84000020AF
:10434C0002780B7801300131002A01D09A42F7D063
:10435C00D01A7047031C0A7801311A700133002AF5
:10436C00F9D170470023C25C0133002AFBD1581EDF
:10437C007047031C002010B582420FD01C780878BF
:10438C00A04201D1012A03D118780B78C01A05E09C
:10439C00013A0028F8D001330131EFE710BD0000DD
:1043AC00F0B58D6885B0071C0C1C03920193AB42D1
:1043BC0045D390228B89D20013423DD062690326EB
:1043CC00564309692068F20F401A96190290021C94
:1043DC000198013212187610964200D2161C381C25
:1043EC005A050FD5311CFFF717FF051E13D0029A83
:1043FC002169FFF7BFFEA289184B1340802213439B
:10440C00A38111E0321C00F0C9FA051E0CD1381C36
:10441C002169FFF7B9FE0C233B60A38940221343AB
:10442C000120A381404217E0029B2561ED18256015
:10443C006661019DF61AA6600198A84200D2019D02
:10444C002A1C2068039900F090FAA2680020531BE4
:10445C00A36023685D19256005B0F0BD7FFBFFFFED
:10446C00F0B59FB0039005938B890E1C171C190691
:10447C000FD53269002A0CD14021FFF7CDFE3060F8
:10448C003061002803D103990C230B60C9E0402351
:10449C00736106AD00236B6120236B763023AB7602
:1044AC003C1C2378002B03D1E21B029211D003E0B9
:1044BC00252BF9D00134F4E70398311C3A1C029BEC
:1044CC00FFF76EFF013000D1A6E06969029A8B18E4
:1044DC006B612378002B00D19EE0012252426A606E
:1044EC006A4600235B3201342B60EB60AB601370C7
:1044FC00AB654E4F2178381C052200F02BFA0028B2
:10450C0007D0C71B2B680120B84018432860013422
:10451C00EFE72B68D90603D56A4620215B32117070
:10452C001A0703D56A462B215B32117022782A2A8E
:10453C0001D0099B0EE0059A111D12680591002A05
:10454C0001DB099204E05242EA60022213432B6021
:10455C00013409E02278303A092A04D80A214B4365
:10456C0001349B18F6E7099323782E2B18D1637826
:10457C002A2B09D1059B02341A1D1B680592002BAE
:10458C000DDA01235B420AE0013400232278303A31
:10459C00092A04D80A214B4301349B18F6E70793E8
:1045AC00234F2178381C032200F0D4F9002806D0C0
:1045BC00C71B2B684020B840184328600134217871
:1045CC001C480622671C297600F0C4F9002812D07A
:1045DC00194B002B06D1059B072207339343083355
:1045EC00059314E005AB00930398291C321C134B64
:1045FC0000E000BF07E005AB00930398291C321CB8
:10460C000E4B00F091F804900499013104D06A69C2
:10461C00049953186B6143E7B3895A0601D40B987C
:10462C0001E0012040421FB0F0BDC046E657000833
:10463C00EC570008F057000800000000AD430008DC
:10464C00F7B5151C01930A698B68061C0C1C934268
:10465C0000DA131C221C2B6043321278002A01D082
:10466C0001332B602068800602D52B6802332B6047
:10467C00216806270F401FD0231C43331B785A1E7A
:10468C009341226892061FD5E11840313020C87042
:10469C00211C5A1C45310978A21840320233D170C2
:1046AC0012E0221C301C019919320123089FB847D3
:1046BC00013011D0009F01370097E0682968009FF6
:1046CC00431A9F42EDDBD7E7221C301C0199433281
:1046DC00089FB847013002D10120404223E02068F6
:1046EC0006212B68E26801400025042903D1D51A64
:1046FC00EB43DB171D40A26823699A4201DDD31AF4
:10470C00ED1800270097009FAF420BDA221C301CDB
:10471C0001991A320123089FB8470130DCD0009F61
:10472C000137EFE70020FEBDF0B50D1C8BB0433513
:10473C0006920590079304950B7E0C1C109A6E2B19
:10474C0000D1A7E011D8632B22D009D8002B00D1BF
:10475C00B0E0582B00D0C0E045310B707B4D4EE0E3
:10476C00642B1CD0692B1AD0B7E0732B00D1A5E0B9
:10477C0009D86F2B29D0702B00D0AEE00E68202307
:10478C0033430B6036E0752B1FD0782B32D0A4E06E
:10479C0013680D1C191D423511601B689FE02168C0
:1047AC0013680E0603D5191D11601E6805E0480636
:1047BC00F9D5191D116000215E5E644B002E3BDAA9
:1047CC00049D2D2276422A7036E0216813680E066D
:1047DC0003D5191D11601E6804E04806F9D5191D92
:1047EC001E881160594B227E039308276F2A1ED016
:1047FC000A271CE0231C78214533554D197011688C
:10480C002368081D039510601E0601D50E6802E092
:10481C005806FBD50E88D90702D5202213432360F6
:10482C001027002E03D1226820239A432260231CD8
:10483C00002243331A7001E003930A276368A360D4
:10484C00002B03DB2568042295432560002E02D142
:10485C00049D002B0ED0049D301C391CFFF764FC0A
:10486C000398013D435C301C2B70391CFFF718FC7E
:10487C00061EF1D1082F09D12168C90706D5626837
:10488C0023699A4202DC013D30232B70049E731B7A
:10489C0023612AE0086813684969050604D5181DC8
:1048AC0010601B68196005E04606F8D5181D1060ED
:1048BC001B68198000232361049D16E01368191DE1
:1048CC0011601D68281CFFF74DFD6368206198423C
:1048DC0000D923612069606004E0251C42352B70EF
:1048EC0001232361049E00233370079E05980096D4
:1048FC00211C09AA069BFFF7A3FE013002D101205F
:10490C00404221E02A1C059806992369079DA84777
:10491C000130F4D02668B60705D4099BE0689842AC
:10492C0012DA181C10E00025E0680999431A9D4220
:10493C00F3DA221C0598069919320123079EB04719
:10494C000130DCD00135EFE70BB0F0BDF7570008B4
:10495C0008580008C9B28218904204D003788B42E0
:10496C0002D00130F8E70020704770B5814201D3C6
:10497C0000230CE08C18A042FAD28518131C013BC2
:10498C000BD351426618F65C6918CE54F7E7934284
:10499C0003D0CC5CC4540133F9E770BDF8B5061CE8
:1049AC000C1C151C002904D1111CFFF735FC041C30
:1049BC0018E0002A03D1FFF7E7FB2C1C12E000F0F3
:1049CC0013F8A8420ED2301C291CFFF725FC071E39
:1049DC0007D0211C2A1CFFF7CDFB301C211CFFF734
:1049EC00D3FB3C1C201CF8BD04390B68181F002B92
:1049FC0002DAC8581B18181F704700002E2E2F7390
:104A0C00797374656D2F7372632F73746D333266A3
:104A1C00302D7374647065726970682F73746D33A4
:104A2C0032663078785F6164632E63002E2E2F73AC
:104A3C00797374656D2F7372632F73746D33326673
:104A4C00302D7374647065726970682F73746D3374
:104A5C0032663078785F646D612E63002E2E2F7372
:104A6C00797374656D2F7372632F73746D33326643
:104A7C00302D7374647065726970682F73746D3344
:104A8C0032663078785F6770696F2E6300000000C3
:104A9C002E2E2F73797374656D2F7372632F73744D
:104AAC006D333266302D7374647065726970682F63
:104ABC0073746D3332663078785F6D6973632E630F
:104ACC00000000002E2E2F73797374656D2F737296
:104ADC00632F73746D333266302D7374647065722A
:104AEC006970682F73746D3332663078785F7263D7
:104AFC00632E63002E2E2F73797374656D2F737272
:104B0C00632F73746D333266302D737464706572F9
:104B1C006970682F73746D3332663078785F737098
:104B2C00692E63002E2E2F73797374656D2F73723B
:104B3C00632F73746D333266302D737464706572C9
:104B4C006970682F73746D3332663078785F757363
:104B5C006172742E63000000EE260008C427000862
:104B6C008C240008C4270008D4230008C42700089C
:104B7C00C42700081E230008C4270008C427000807
:104B8C00C4270008C4270008C4270008C42700084D
:104B9C00C4270008C4270008C427000858260008AA
:104BAC0050250008E4270008EE270008FE2700081F
:104BBC000E280008202800083E2800084828000875
:104BCC002F6B6E6F627300002F6B65790000000015
:104BDC002F656E63000000002F656E6362757400B4
:104BEC004F5247414E454C4C450000007777772E8D
:104BFC006F7267616E656C6C652E696F00000000EA
:104C0C007374617274696E673A20256420252500DF
:104C1C002F726561647900002F6C656400000000E0
:104C2C002F6F6C65640000002F6765746B6E6F628C
:104C3C007300000000020607070F0B0204040508AE
:104C4C0002040204080508080808080808080202FB
:104C5C00080808080F0B0A0A0A09080A0A02080AB7
:104C6C00080B0A0A090A0B090A0A0B0F090A09049C
:104C7C0004040809030808070807050808020307C5
:104C8C00020C0808080805070508070D07090706A0
:104C9C000206080800000000003E5B4F5B3E3E6BC6
:104CAC004F6B3E1C3E7C3E1C183C7E3C181C577DBA
:104CBC00571C1C5E7F5E1C00183C1800FFE7C3E706
:104CCC00FF0018241800FFE7DBE7FF30483A060E18
:104CDC002629792926407F050507407F05253F5A5F
:104CEC003CE73C5A7F3E1C1C08081C1C3E7F1422CF
:104CFC007F22145F5F005F5F06097F017F0066897A
:104D0C00956A606060606094A2FFA29408047E04BF
:104D1C000810207E201008082A1C08081C2A0808E5
:104D2C001E101010100C1E0C1E0C30383E383006A5
:104D3C000E3E0E06000000000000005F00000007A1
:104D4C00000700147F147F14242A7F2A12231308CF
:104D5C00646236495620500008070300001C2241AB
:104D6C00000041221C002A1C7F1C2A08083E08084F
:104D7C0000807030000808080808000060600020FF
:104D8C00100804023E5149453E00427F40007249E2
:104D9C004949462141494D331814127F1027454586
:104DAC0045393C4A4949314121110907364949499C
:104DBC0036464949291E000014000000403400000A
:104DCC000008142241141414141400412214080273
:104DDC00015909063E415D594E7C1211127C7F49E6
:104DEC004949363E414141227F4141413E7F49493B
:104DFC0049417F090909013E414151737F08080867
:104E0C007F00417F41002040413F017F0814224137
:104E1C007F404040407F021C027F7F0408107F3E91
:104E2C004141413E7F090909063E4151215E7F09FE
:104E3C00192946264949493203017F01033F404065
:104E4C00403F1F2040201F3F4038403F6314081450
:104E5C006303047804036159494D43007F41414188
:104E6C000204081020004141417F04020102044069
:104E7C0040404040000307080020545478407F28ED
:104E8C004444383844444428384444287F385454E3
:104E9C00541800087E090218A4A49C787F08040406
:104EAC007800447D40002040403D007F10284400A5
:104EBC0000417F40007C047804787C080404783836
:104ECC0044444438FC1824241818242418FC7C0866
:104EDC00040408485454542404043F44243C4040E3
:104EEC00207C1C2040201C3C4030403C4428102896
:104EFC00444C9090907C4464544C440008364100DF
:104F0C000000770000004136080002010204023C58
:104F1C002623263C1EA1A161123A4040207A385427
:104F2C0054555921555579412254547842215554A0
:104F3C00784020545579400C1E52721239555555F3
:104F4C0059395454545939555454580000457C41DE
:104F5C000002457D420001457C407D1211127DF01E
:104F6C00282528F07C545545002054547C547C0A48
:104F7C00097F4932494949323A4444443A324A4811
:104F8C0048303A4141217A3A42402078009DA0A015
:104F9C007D3D4242423D3D4040403D3C24FF242467
:104FAC00487E4943662B2FFC2F2BFF0929F620C086
:104FBC00887E090320545479410000447D413048D7
:104FCC00484A32384040227A007A0A0A727D0D191A
:104FDC00317D2629292F28262929292630484D407C
:104FEC0020380808080808080808382F10C8ACBA78
:104FFC002F102834FA00007B000008142A142222F7
:10500C00142A1408AA005500AAAA55AA55AA0000E9
:10501C0000FF00101010FF00141414FF001010FFFC
:10502C0000FF1010F010F0141414FC001414F7000E
:10503C00FF0000FF00FF1414F404FC141417101FDD
:10504C0010101F101F1414141F00101010F000006B
:10505C0000001F101010101F10101010F010000086
:10506C0000FF101010101010101010FF1000000096
:10507C00FF140000FF00FF00001F10170000FC04CD
:10508C00F414141710171414F404F40000FF00F7B0
:10509C0014141414141414F700F714141417141013
:1050AC00101F101F141414F4141010F010F0000042
:1050BC001F101F0000001F14000000FC140000F063
:1050CC0010F01010FF10FF141414FF141010101F08
:1050DC0000000000F010FFFFFFFFFFF0F0F0F0F019
:1050EC00FFFFFF0000000000FFFF0F0F0F0F0F3836
:1050FC0044443844FC4A4A4A347E02020606027E84
:10510C00027E0263554941633844443C04407E208E
:10511C001E2006027E020299A5E7A5991C2A492A9F
:10512C001C4C7201724C304A4D4D3030487848302E
:10513C00BC625A463D3E494949007E0101017E2A26
:10514C002A2A2A2A44445F444440514A4440404459
:10515C004A51400000FF0103E080FF000008086B8B
:10516C006B083612362436060F090F060000181885
:10517C000000001010003040FF0101001F01011E53
:10518C0000191D1712003C3C3C3C000000000000C4
:10519C000000020008000F0016002500300032004D
:1051AC0036003A003F00470049004D004F005300C5
:1051BC005B00600068007000780080008800900040
:1051CC009800A000A200A400AC00B400BC00C40075
:1051DC00D300DE00E800F200FC0005010D01170110
:1051EC00210123012B0135013D01480152015C01D4
:1051FC0065016F017A0183018D019701A201B10153
:10520C00BA01C401CD01D101D501D901E101EA01F5
:10521C00ED01F501FD0104020C021302180220023B
:10522C0028022A022D023402360242024A0252029B
:10523C005A02620267026E0273027B0282028F02C2
:10524C0096029F02A602AC02AE02B402BC02C402D9
:10525C00FEFE1B1B1E1E00001E1E00000000000098
:10526C0030F0FE3EF0FE3E1F1F031F1F0303387C71
:10527C00E6FFC68C08060E183F190F073C7E42420B
:10528C007E3C80E0701C8E82808000000000101834
:10529C000E0701000F1F10101F0F009CFEE6E6E624
:1052AC003E1C800000070F1818191B0F0E0F1D084D
:1052BC001E1E0000E0FC1E020F7FF080021EFCE0B0
:1052CC0080F07F0F14140E14140000000000C0C0F6
:1052DC00C0F8F8C0C0C000000007070000000000C4
:1052EC00987800000000030303030000181800F076
:1052FC00FE0E1C1F0300F0FC0E06060EFCF0030F46
:10530C001C18181C0F0330180CFEFE0000001F1F89
:10531C00181C0E0686C6FC38181C1E1B1B191818E8
:10532C00080C066666E6FE9C060E1C18181C0F0779
:10533C000080E0701CFEFE0007070606061F1F0615
:10534C00F0FE7E6666E6C680060E1C18181C0F075B
:10535C00F0FCCE6666E6CE8C030F1C1818180F07EF
:10536C00060606C6F63E0E0600001C1F03000000D3
:10537C0038FCC6C6C6C6FC38070F181818180F0715
:10538C0078FCCE8686CEFCF00C1C1919191C0F0368
:10539C00303018183030987880C0C06060303018C9
:1053AC00000101030306060CB0B0B0B0B0B0B0B051
:1053BC0001010101010101011830306060C0C080A1
:1053CC000C06060303010100181C0E86C6E67C3889
:1053DC000000001B1B000000C0F0789CEC66363609
:1053EC0036E6F67C1CF8E00F3F70EFDF9898988C4F
:1053FC009F9FD8CC67230000C0F83E063EF8C00043
:10540C0000101E0F03030303030F1E10FEFEC6C67F
:10541C00C6C6C6FEBC001F1F1818181818190F078F
:10542C00F0FC0C060606060E1C08030F0C181818C8
:10543C00181C0E04FEFE06060606060CFCF01F1FCA
:10544C0018181818180C0F03FEFEC6C6C6C6C6C61A
:10545C00C61F1F18181818181818FEFEC6C6C6C680
:10546C00C6061F1F000000000000F0FC0C0606869C
:10547C00868E9C88030F0C181819190D0F07FEFE49
:10548C00C0C0C0C0C0C0FEFE1F1F00000000000056
:10549C001F1FFEFE1F1F000000000000FEFE060E78
:1054AC001C18181C0F07FEFE80C060F0D80C0602FA
:1054BC001F1F01000000030F1C18FEFE000000005F
:1054CC0000001F1F181818181818FEFE1EF8C00030
:1054DC00C0F81EFEFE1F1F00010F1E0F01001F1F34
:1054EC00FEFE1C38E0C00000FEFE1F1F0000000185
:1054FC00070E1F1FF0FC0C060606060CFCF0030F33
:10550C000C181818180C0F03FEFEC6C6C6C6EE7C87
:10551C00381F1F00000000000000F0FC0C060606FF
:10552C00060CFCF0030F0C181A1E0C1C3F23FEFE7D
:10553C00C6C6C6C6C66E7C38001F1F00000001031D
:10554C000F1E1810387C6EE6C6C6CE9C18060E1CB4
:10555C001818181D0F0706060606FEFE0606060698
:10556C00000000001F1F00000000FEFE00000000F5
:10557C000000FEFE070F1C181818181C0F07061E3B
:10558C00F8E0000000E0F81E06000000031F1C1FDE
:10559C0003000000063EFCC000F0FE0EFEF000C052
:1055AC00F83E060000011F1E1F0100011F1E1F03F5
:1055BC000000060E3CF0E0F03C0E06181C0F030138
:1055CC00030F1C18060E3C70C0C0703C0E06000089
:1055DC0000001F1F0000000000060686E6763E0E47
:1055EC0006181C1F1B1918181818FEFE0606FFFFBC
:1055FC00C0C00EFEF00000031F1C0606FEFEC0C05D
:10560C00FFFF40703C0E0E3C70400000000000009C
:10561C000000000000000000000000C0C0C0C0C0BE
:10562C00C0C0C0C0020604000000607030B0B0F012
:10563C00E0000E1F1B19190F1F10FEFE603030709A
:10564C00E0C01F1F0C18181C0F07C0E07030307022
:10565C0060070F1C18180C04C0E070303060FEFEA0
:10566C00070F1C18180C1F1FC0E0B0B0B0E0C0072B
:10567C000F1D19190D0530FCFE3636001F1F0000DA
:10568C00C0E070303060F0F067EFDCD8D8CCFF7F32
:10569C00FEFE60303030F0E01F1F000000001F1FC6
:1056AC00F6F61F1F00F6F6C0FF7FFEFE80C0E0304E
:1056BC00101F1F0301071E18FEFE1F1FF0F06030A5
:1056CC0030F0E0603030F0E01F1F0000001F1F00C2
:1056DC0000001F1FF0F060303030F0E01F1F0000A2
:1056EC0000001F1FC0E070303070E0C0070F1C18A6
:1056FC00181C0F07F0F060303070E0C0FFFF0C1882
:10570C00181C0F07C0E070303060F0F0070F1C1849
:10571C00180CFFFFF0F06030301F1F000000E0F0AD
:10572C00B0B03070600C1D191B1B1F0E30FCFE300E
:10573C0030000F1F1818F0F000000000F0F00F1FE1
:10574C001818180C1F1F70F0800080F07000031FD9
:10575C001C1F030030F0C00080F070F08000C0F01F
:10576C003000031F1C1F0300031F1C1F030030709D
:10577C00E080E07030181C0F030F1C1830F0C000D4
:10578C000000C0F03000C0C7FF7C1F0700003030A5
:10579C0030B0F0F030181E1F1B19181880C0FC7E9A
:1057AC00060601037FFEC0C0FEFEFFFF06067EFC60
:1057BC00C080C0C0FE7F010180C0C0C0808080C09E
:1057CC000100000001010100FC040404040404FCB9
:1057DC001F1010101010101F4300232D302B200011
:1057EC00686C4C006566674546470030313233348F
:1057FC00353637383941424344454600303132332F
:0D580C0034353637383961626364656600F3
:10581C007856341200000000010203040102030454
:10582C00060708099400002000000000006CDC0250
:10583C00010000000000000000000000000000005B
:10584C00000000000000000000000000000000004C
:10585C0000000000E45700080000000000000000F9
:10586C00000000000000000000000000000000002C
:10587C00000000000000000000000000000000001C
:10588C00000000000000000000000000000000000C
:0C589C0000000000240000203254769828
:04000005080000C52A
:00000001FF
