:020000040800F2
:1000000000200020D5010008DD010008E101000802
:1000100000000000000000000000000000000000E0
:10002000000000000000000000000000E5010008E2
:100030000000000000000000E9010008F1220008B3
:10004000F1010008F1010008F1010008F1010008C8
:10005000F1010008F1010008F1010008F1010008B8
:10006000F1010008F1010008F1010008F1010008A8
:10007000F1010008F1010008F1010008F101000898
:10008000F1010008F101000800000000F101000882
:10009000F1010008F1010008F1010008F101000878
:1000A000F1010008F10100086D280008F1010008C5
:1000B000652C000800000000F101000800000000AD
:1000C0005FF808F130B583B0314B324A1360324AE1
:1000D0001360324B3249002201E01A6004338B4234
:1000E000FBD32C4B1B68002B03D12B4B1B68002B25
:1000F00000D0FEE7264B2B4A13602B4A13602B4B94
:100100002B4A2C4903E010681860043304328B42F8
:10011000F9D3244B1A68284B9A4204D1224B1A680F
:100120001B689A4200D0FEE701F0DAF801A86946A0
:1001300001F05CF8214B224DED1AAD10002404E0D3
:10014000A3001E4A9B5898470134A542F8DC1D4B7A
:100150001D4DED1AAD10002404E0A30019481B58F2
:1001600098470134A542F8DC0198009902F08CF917
:10017000051C164B164CE41AA41004E0013CA30025
:10018000124A9B589847002CF8DC281C01F000F814
:10019000BABADECA8800002070050020880000205E
:1001A00074050020000000208400002000000020D2
:1001B000003E00088800002078563412F401000840
:1001C000F4010008F4010008F8010008F801000833
:1001D000F801000808B5FFF775FFC046FEE7C04606
:1001E000FEE7C046FEE7C046FEE7C046FEE7C04663
:0401F000FEE7C04620
:0401F4005D2700087B
:1001F80010B5041C0A4B984203D00A48852100F028
:10020800F9FF074B9C4209D18024A400201C01213E
:1002180000F00CFC201C002100F008FC10BDC046BA
:10022800002401405C36000838B5051C0C1C314B15
:10023800984203D03048A12100F0DCFF2368002B4E
:1002480009D0082B07D0102B05D0182B03D02A482B
:10025800A22100F0CFFF2379012B03D92648A3213F
:1002680000F0C8FFA368002B0FD08022D200934271
:100278000BD080221201934207D0C0221201934270
:1002880003D01D48A42100F0B5FFE368002B0DD072
:10029800402B0BD0802B09D0C02B07D080225200D6
:1002A800934203D01448A52100F0A4FF2369002B32
:1002B80005D0202B03D01048A62100F09BFF6369CE
:1002C800002B05D0042B03D00B48A72100F092FF88
:1002D800EA680A4B1A4023795B0321680B43A1683B
:1002E8000B43E1680B4321690B4361690B431343DB
:1002F800EB6038BD002401405C36000803D2FFFFE4
:1003080038B5041C0D1C0C4B984203D00B48E9214E
:1003180000F070FF012D03D90848EA2100F06AFFB8
:10032800002D04D0A26801231343A36003E0A26850
:1003380002231343A36038BD002401405C36000843
:1003480070B5041C0D1C161C0D4B984203D00D48AB
:100358000D4900F04FFF002D01D0EB0C04D00948E7
:10036800B421890000F046FF072E03D90548074944
:1003780000F040FFA36A1D43A562666170BDC046D8
:10038800002401405C360008CF020000D1020000C2
:1003980010B5041C0E4B984203D00E480E4900F0CD
:1003A80029FFA26880231B061343A3600023F021C2
:1003B8000902A268D20FD20701338B4201D0002A6A
:1003C800F7D1A368002B01DB206C00E0002010BDF2
:1003D800002401405C3600083D03000010B5041CF1
:1003E800054B984203D00548054900F003FFA26871
:1003F80004231343A36010BD002401405C360008A9
:100408006F03000010B5041C054B984204D0054842
:10041800DF21890000F0EEFE206C80B210BDC046DE
:10042800002401405C36000838B5051C0C1C194B2B
:10043800984203D01848194900F0DCFE631E012BCE
:100448001CD9042C1AD0082C18D0802C16D0102CAB
:1004580014D0134B9C4211D0124B9C420ED0124B1D
:100468009C420BD0114B9C4208D081231B069C4216
:1004780004D009488B21C90000F0BCFEE30103D574
:10048800A8680B4B184000E028680440201C441E54
:10049800A04138BD002401405C3600085704000024
:1004A8000100000102000001040000011000000129
:1004B800FFFFFFFEF8B5051C0E1C9023DB059842D4
:1004C80012D03D4B98420FD03C4B98420CD03C4B3D
:1004D800984209D03B4B984206D03B4B984203D0F8
:1004E8003A48B42100F086FE3368002B03D1374820
:1004F800B52100F07FFE3379032B03D93348B621A9
:1005080000F078FEF379022B03D93048B72100F0C8
:1005180071FE002401274BE03B1CA34032681A40BF
:100528009A4244D13379013B012B28D87379012BA6
:1005380005D9032B03D02548C72100F05BFEAA6824
:100548006300032199408A43AA60AA687179994097
:100558000B1C1343AB60B379012B03D91B48CE2185
:1005680000F048FEAA8823041B0C391C99408A43D2
:10057800AA80AA88B17999408BB21343AB802968C5
:1005880063000322101C9840814329602868317950
:10059800994001432960E9682004C00B82409143D7
:1005A800E960EA68F17999400B1C1343EB60013468
:1005B8000F2CB1D9F8BDC046000400480008004817
:1005C800000C004800100048001400488C36000851
:1005D80038B5041C0D1C9023DB05984213D00E4B34
:1005E800984210D00D4B98420DD00D4B98420AD02E
:1005F8000C4B984207D00C4B984204D00B48C821AA
:10060800490000F0F7FD002D04D108489221FF3180
:1006180000F0F0FDA56138BD00040048000800485E
:10062800000C004800100048001400488C360008F0
:1006380038B5041C0D1C9023DB05984213D00E4BD3
:10064800984210D00D4B98420DD00D4B98420AD0CD
:100658000C4B984207D00C4B984204D00B48A6216B
:10066800FF3100F0C7FD002D04D10848D32149000F
:1006780000F0C0FD258538BD00040048000800488A
:10068800000C004800100048001400488C36000890
:1006980070B5041C0D1C161C9023DB05984212D063
:1006A800174B98420FD0174B98420CD0164B9842D4
:1006B80009D0164B984206D0154B984203D01548DE
:1006C800154900F097FD0F2D03D91248134900F082
:1006D80091FD072E03D90F48114900F08BFD072320
:1006E8002B409B009E40E908083189000A590F20D9
:1006F800984082430A510B591E430E5170BDC046A3
:100708000004004800080048000C00480010004899
:10071800001400488C3600080D0200000E0200008C
:100728000F02000070B5041C8378012B03D91A4806
:10073800522100F05FFD6378032B03D9164853213B
:1007480000F058FDA378002B1BD02578AA08134B7E
:10075800C0329200D65803210D40E900FF20051C45
:100768008D40AE43351C6678B60130408840011C88
:100778002943D15022781F210A4001219140196054
:1007880008E023781F21194001238B40191C80237E
:10079800024AD15070BDC046C036000800E100E0F2
:1007A80070B5041C5E4B5B680C221340042B0CD004
:1007B80002D8002B05D028E0082B0AD00C2B20D01B
:1007C80023E0584B0360002022E0564B03600020D2
:1007D8001EE0534B5D68AD025A682D0F0235C023E9
:1007E8005B021A4202D15048684308E04C4BDB6A6E
:1007F8000F21194001314B4802F066FA6843206026
:1008080006E04A4B0360002002E0464B23600020CC
:10081800434B5A681206120F454DA95CC9B22668A7
:10082800321CCA40111C62605A685205520FAA5CF9
:10083800D2B2D1400A1CA1601B6BD90502D43D4B32
:10084800E36008E0364B5B68590402D45308E36060
:1008580001E09308E360324B1B6B590602D4364B18
:10086800236102E080231B0223612D4B1B6BD906F9
:1008780002D42C4B636100E06661294B1B6B99071E
:1008880001D1A26119E0264B1B6B03210B40012B00
:1008980001D1A66111E0224B1B6B03210B40022BF7
:1008A80003D180231B02A36107E01D4B1B6B0321AF
:1008B8000B40032B01D11B4BA361194B196BC023B0
:1008C8009B02194201D1E26120E0154B1B6BC0224B
:1008D80092021A4080235B029A4201D1E66115E038
:1008E8000F4B1B6BC02292021A4080239B029A4234
:1008F80003D180231B02E36108E0094B1A6BC02374
:100908009B021A409A4201D1064BE361044B1B6BD0
:100918001A0602D4054B236200E0206270BDC0466F
:100928000010024000127A0000093D00006CDC0251
:1009380004000020809FD5001280000038B5041CF8
:100948000D1C0D4B184201D1002803D10B480C494E
:1009580000F050FC012D03D908480A4900F04AFC70
:10096800002D04D0084B5A6914435C6103E0064B20
:100978005A69A2435A6138BDAAFF81FEF4360008BD
:1009880036050000370500000010024038B5041C89
:100998000D1C0D4B184201D1002803D10B480C49FE
:1009A80000F028FC012D03D908480A4900F022FC70
:1009B800002D04D0084B9A6914439C6103E0064B50
:1009C8009A69A2439A6138BDFEA5B8FFF4360008BB
:1009D8005A0500005B0500000010024038B5041CF1
:1009E8000D1C0E4B184201D1002803D10C480D49AB
:1009F80000F000FC012D04D90948B121C90000F01C
:100A0800F9FB002D04D0084BDA691443DC6103E0DC
:100A1800054BDA69A243DA6138BDC046CCB6118508
:100A2800F4360008870500000010024038B5041CA1
:100A38000D1C0E4B184201D1002803D10C480D495A
:100A480000F0D8FB012D04D90948B921C90000F0EC
:100A5800D1FB002D04D0084BDA681443DC6003E0B6
:100A6800054BDA68A243DA6038BDC046FEA5B8FF78
:100A7800F4360008C705000000100240F8B54F46DC
:100A88004646C0B4051C0C1C644B984206D0644B07
:100A9800984203D06348EB2100F0ACFB2388002B7D
:100AA8000FD08022D20093420BD0802212029342B0
:100AB80007D0C0221202934203D05A48EE2100F018
:100AC80099FB638882225200934205D0002B03D001
:100AD8005448EF2100F08EFBA388C0229200934275
:100AE80033D08022D20093422FD0A022D20093424A
:100AF8002BD0C022D200934227D0E022D2009342CA
:100B080023D08022120193421FD0902212019342D7
:100B18001BD0A0221201934217D0B0221201934297
:100B280013D0C022120193420FD0D0221201934257
:100B38000BD0E0221201934207D0F0221201934217
:100B480003D03848F02100F055FBE388002B05D08E
:100B5800022B03D03348F12100F04CFB2389012BF1
:100B680003D93048F22100F045FB638980229200C6
:100B7800934205D0002B03D02A48F32100F03AFB1A
:100B8800A389002B11D0082B0FD0102B0DD0182BB8
:100B98000BD0202B09D0282B07D0302B05D0382B91
:100BA80003D02048F42100F025FBE389002B05D071
:100BB800802B03D01B48F52100F01CFB238A002B57
:100BC80003D11848F62100F015FB2B88C1229201A9
:100BD8001A4091462288E389E78826896089A18995
:100BE80013433B43334303430B434A4613432B808E
:100BF800AA880D4B1340A2881343AB80238A2B820B
:100C08002B8804229343628813432B80AA8B074BBB
:100C18001340AB830CBC90469946F8BD00300140A8
:100C28000038004024370008FFF0FFFFFFF7FFFF00
:100C380038B5041C0D1C0F4B984207D00E4B984238
:100C480004D00E48C821FF3100F0D4FA012D04D990
:100C58000A48E421490000F0CDFA002D04D022888A
:100C680040231343238003E02388402293432380B7
:100C780038BDC04600300140003800402437000825
:100C880038B5041C0D1C064B984206D0054B9842FB
:100C980003D00548054900F0ADFA257338BDC046B4
:100CA800003001400038004024370008EB02000003
:100CB80038B5051C0C1C144B984206D0134B9842AF
:100CC80003D01348134900F095FA802C15D0402C16
:100CD80013D0202C11D0102C0FD0022C0DD0012CA9
:100CE8000BD080235B009C4207D0042C05D0082C35
:100CF80003D00748084900F07DFA28890440201CE1
:100D0800441EA04138BDC0460030014000380040B4
:100D180024370008DA040000DB040000F0B5474679
:100D280080B48AB0041C0D1C5C4B98420CD05C4B00
:100D3800984209D05B4B984206D05B4B984203D04F
:100D48005A48DC2100F056FA2A68013A584B9A4270
:100D580003D95648DD2100F04DFA6B68002B0AD004
:100D680080225201934206D0524A934203D04F4800
:100D7800DE2100F03FFAAB68002B0BD080229201F5
:100D8800934207D0C0229201934203D04748DF2103
:100D980000F030FAEB68002B0BD08022D20093428F
:100DA80007D0C022D200934203D04048E02100F08F
:100DB80021FA2B690C22191C914301D1002B03D174
:100DC8003A48E12100F016FA6B69002B0FD0802217
:100DD800520093420BD080229200934207D0C02247
:100DE8009200934203D03148E22100F003FA2368CD
:100DF80001229343236062682F4B1340AA68134370
:100E0800636022682D4B1A406B68E9680B432969B7
:100E18000B4313432360A268294B13406A691343A9
:100E2800A36001A8FFF7BCFC1C4B9C4201D1079FA3
:100E380005E01B4B9C4201D1089F00E0039F2368FB
:100E480019040CD57F00B8462F684046391C01F0BC
:100E58003BFF061C4046391C01F07AFF0AE02A686D
:100E68009046381C111C01F02FFF061C381C414607
:100E780001F06EFF2A685208002391425B41F61880
:100E88002368190404D533075B0F0E4A16401E4326
:100E9800B6B2A6810AB004BC9046F0BD0038014045
:100EA8000044004000480040004C0040543700080F
:100EB8007F8D5B0000100010FFCFFFFFF3E9FFFFFD
:100EC800FFFCFFFFF0FF000038B5041C0D1C124B9F
:100ED80098420DD0114B98420AD0114B984207D036
:100EE800104B984204D01048C821490000F082F9FC
:100EF800012D04D90C489221FF3100F07BF9002D17
:100F080004D0226801231343236003E023680122ED
:100F18009343236038BDC046003801400044004078
:100F280000480040004C00405437000810B5041C2D
:100F3800094B98420CD0094B984209D0084B98426B
:100F480006D0084B984203D00748084900F052F9E8
:100F5800A08CC005C00D10BD003801400044004001
:100F680000480040004C004054370008A603000029
:100F780070B5051C0C1C161C2C4B98420CD02C4B25
:100F8800984209D02B4B984206D02B4B984203D05D
:100F98002A482B4900F02EF984235B009C4225D077
:100FA800284B9C4222D0284B9C421FD0274B9C4266
:100FB8001CD0274B9C4219D0264B9C4216D0264B5E
:100FC8009C4213D0C0239B009C420FD0234B9C42D1
:100FD8000CD0234B9C4209D0224B9C4206D0224B7A
:100FE8009C4203D01548214900F004F9012E03D989
:100FF80012481F4900F0FEF82B1CA2B2120AFF216A
:101008000C400121A1400C1C022A01D12B1D03E038
:10101800032A01D12B1C0833002E03D01A6814436D
:101028001C6002E01A68A2431A6070BD00380140D3
:101038000044004000480040004C0040543700087D
:101048000507000007010700060106000501050065
:1010580004010400060208000A0309001A010B0033
:101068001B010C000E0111001603140006070000F6
:101078000707000038B5051C0C1C2F4B98420CD0F4
:101088002E4B984209D02E4B984206D02D4B9842B1
:1010980003D02D482D4900F0ADF884235B009C4215
:1010A8002AD02B4B9C4227D02A4B9C4224D02A4B37
:1010B8009C4221D0294B9C421ED0294B9C421BD0DC
:1010C800284B9C4218D0284B9C4215D0274B9C4259
:1010D80012D0274B9C420FD0264B9C420CD0264B5B
:1010E8009C4209D0254B9C4206D0254B9C4203D0FC
:1010F8001548244900F07EF8A3B21B0AFF222240BB
:10110800012191400A1C012B02D129680A4006E0FE
:10111800022B02D169680A4001E0A9680A40240C40
:101128000123A3401C1CEB691C400020002A02D0AC
:10113800201C441EA04138BD003801400044004036
:1011480000480040004C004054370008E607000003
:101158000701070006010600050105000401040057
:10116800060208000A030900000303000003020046
:10117800000301001A010B001B010C000E011100F5
:1011880016031400E7070000FEE7C04608B5034849
:1011980000F054F80120FFF7F7FFC0468837000831
:1011A80008B50D4B1B68002B02D10C4A0A4B1A607C
:1011B800094B1B680330032290431818084A9042D1
:1011C80006D901F0D1FD0C2303600120404202E062
:1011D800014A1060181C08BD8C000020740500200E
:1011E800001C002001230360014B0B607047C046C0
:1011F8001400002008B5031C0A1C0348191C00F041
:1012080005F8FFF7C3FFC046DC3700080FB400B588
:1012180083B004AB04CB01930748802101F0DCFEC6
:10122800011E03DD044800F053F8011C081C03B03C
:1012380008BC04B01847C0469400002010B5041C30
:1012480001F082FE011C201C00F042F80248012136
:1012580000F03EF810BDC04608380008F0B55F46FB
:1012680056464D464446F0B485B0041C8A46435C55
:101278000E1C002B1BD10425281C211CABBE041CF2
:101288001DE0351E102D00D95D46434604E0227846
:101298006946CA5401330134AB42F8D36F4642461B
:1012A800FA544846391CABBE071C761B05E01023D0
:1012B8009B460021884604229146002EE1D15046E3
:1012C80005B03CBC90469946A246AB46F0BDC04628
:1012D80008B5FFF7C3FF08BD08B500F05BF808BD07
:1012E80082B0002301930093274B19688022520291
:1012F8000A431A60191C80229202A020C0010B68C0
:1013080013400093019B01330193009B002B02D1F2
:10131800019B8342F3D11C4B1B689A0302D501231E
:10132800009301E000230093009B012B2AD1112296
:10133800164B1A60144B5A685A605A685A605968B2
:10134800134A0A405A605968882252030A435A606D
:101358001968802252040A431A60191C80229204D8
:101368000B681342FCD0084B5A6803218A435A6021
:10137800596802220A435A60191C0C224B68134010
:10138800082BFBD102B07047001002400020024039
:10139800FF7FC0FF08B5124B19680122114319607D
:1013A800586810490140596018680F490140196090
:1013B80018680E490140196058680D490140596084
:1013C800D96A0F208143D962186B0A490140196311
:1013D800596B9143596300229A60FFF781FF08BD5A
:1013E800001002400CB8FF08FFFFF6FEFFFFFBFFEE
:1013F800FFFFC0FFACFEFFFF70B5041C0E1C0023EE
:10140800037073238360081C01F09EFD0130606047
:1014180001F0B0FC051E02D10323237003E0311C48
:1014280001F08AFD2561201C70BDC04600230370B1
:1014380069238360042343600161704700230370BC
:1014480069238360042343600161704700230370AC
:1014580066238360042343600161704710B582B03E
:101468006B46009101920022027074228260082269
:101478004260021C103212CB12C202B010BDC0462C
:10148800002101700821416064218160026143618B
:101498007047C046F0B54F464646C0B483B0071CF7
:1014A800894690460023037062238360101C043031
:1014B8007860009201AD6C460334042304E023787D
:1014C8002B70331C0135013C5E1E002BF7DC019CA0
:1014D800009400280DDD01F04DFC051E02D1032308
:1014E8003B7008E010C04946424601F057FC3D6198
:1014F80001E000233B61381C03B00CBC90469946C0
:10150800F0BDC04610B5041C4368002B0BDD836892
:10151800732B03D1006901F037FC04E0622B02D180
:10152800006901F031FC201C10BDC0460223037085
:10153800816000234360704700238268692A00D1D4
:101548000369181C7047C04670B5431C01228256B7
:101558000126212A01D1831C002670427041C0B2A5
:1015680014E001241C572D2C0AD10C7852B265B214
:10157800AA4203DC02229A5695420DDD033305E0A8
:1015880052B200240C57A24208D001331A785D2ABF
:1015980005D0002AE5D102E0301C00E0301C70BD07
:1015A80070B50E1C013013E0013400E0041C2378F0
:1015B8007D2B05D0002B03D02F2B01D02C2BF3D162
:1015C800251A311C2A1C01F0C6FC002809D0601C11
:1015D80003787D2B07D0002B07D02F2BE6D10020D6
:1015E80004E0281C02E0002000E0002070BDC04696
:1015F80008B5031C02785D2A12D050B25D2805DCBC
:1016080001203F2A27D05B2A05D01EE07B2A0FD075
:101618007D2A12D019E0181CFFF796FF1BE0013B4A
:1016280000229A565B2AFAD1181CFFF78DFF12E0A8
:10163800181CFFF7B5FF0EE0013B00229A567B2AE3
:10164800FAD1181CFFF7ACFF05E050B20023CB56C7
:10165800C01A4242504108BD70B5041C0D1C0B78DD
:101668002F2B01D0002B0ED123782F2B2ED0012029
:10167800002B2ED000202A2B2BD160782F2827D0A2
:101688004342584125E006782A2E0BD10130FFF756
:10169800E3FF031C0120002B1BD1691C201CFFF752
:1016A800DBFF16E0FFF7A4FF002812D05B2E03D063
:1016B8007B2E06D100E0013423785D2B01D07D2BF1
:1016C800F9D1601C691CFFF7C7FF02E0012000E0A8
:1016D800012070BDF0B557464E464546E0B48046F9
:1016E8000F1C0B7800200A1C002B01D178E0013276
:1016F80013782F2B04D0002BF9D14446002008E0A2
:101708004446002005E05BB22A3B59424B41C018D1
:10171800013423782F2B01D0002BF4D1013C551E26
:10172800012815D002282BD054E0201C291CFFF7D3
:101738005FFF002854D05D2E03D07D2E06D100E037
:10174800013C23785B2B01D07B2BF9D1013C013D77
:1017580026782A2EE9D1012042E0201C291CFFF717
:1017680047FF00283CD05D2E03D07D2E06D100E037
:10177800013C23785B2B01D07B2BF9D1013C013D47
:1017880026782A2EE9D10135A946013CA2461DE05A
:10179800544601235B4299444E4612E0201C311CFA
:1017A800FFF726FF00280FD05D2D03D07D2D06D131
:1017B80000E0013C23785B2B01D07B2BF9D1013C65
:1017C800013E25782A2DE9D1444508D0B945DFD80E
:1017D800002005E04046391CFFF73EFF00E00120ED
:1017E8001CBC90469946A246F0BDC046F0B5574687
:1017F8004E464546E0B480460F1C9246994601F095
:1018080091FB00280BD1404601F09EFB5246106028
:10181800381C01F099FB4B461860032064E0002354
:10182800524613604A4613603D1C444645E02A2E42
:1018380014D1201C291CFFF74DFF002801D153E0CB
:10184800013423782F2B03D0002BF9D100E0013588
:101858002B782F2B31D0002BF9D12EE02A2B0ED14B
:1018680000E0013426782F2E03D0002EF9D100E0B5
:1018780001352E782F2E20D0002EF9D11DE0201C06
:10188800291CFFF7B5FE00282DD05B2E08D100E0FB
:1018980001340023E3565D2BFAD1013401350CE005
:1018A8007B2E08D100E001340023E3567D2BFAD1CA
:1018B80001342D1801E0013401352B78002B02D0BA
:1018C8002678002EB3D14246A31A52461360EF1B66
:1018D8004B461F602878434258412378002B03D198
:1018E8000223184300E000201CBC90469946A246FB
:1018F800F0BDC04683688B4203DD43688900C85841
:1019080002E00423037300207047C04600B583B08B
:101918000068801801AA6B46FFF768FF0338434246
:101928005841C0B203B000BD38B5041C151C1A1CC0
:10193800FFF7ECFF0023002802D0201CA847012352
:10194800181C38BD70B5051C0E1C006801F01CFA87
:10195800301C01F0F9FA013001F00CFA041E04D130
:1019680003232B7300232B6003E0311C01F0E4FAFE
:101978002C6070BD70B5051C067B731E9E41F6B2C7
:10198800002408E0281C211CFFF7B4FF03785A1E26
:1019980093411E430134AB68A342F3DC301C70BD95
:1019A80038B5041CFFF7A6FF051C201CFFF7E2FF53
:1019B800021C0020002A02D1281CFFF7BDFD38BDFB
:1019C80070B5041C151CFFF795FF061C201CFFF7BB
:1019D800D1FF011C0020002904D1B3685B1B5D42C4
:1019E8006B41D8B270BDC04608B56922FFF7E8FF61
:1019F80008BDC04670B5041CCEB2182001F050F9DD
:101A0800051C71B2FFF792FD2B78032B01D12373CC
:101A180011E0A16801318900606801F065FA0028C9
:101A280002D10323237306E06060A2689300C550C7
:101A3800A3680133A36070BD38B5041C0D1C82690E
:101A4800002A08DD43695A1C42610269D15483693E
:101A5800013B836110E041691131006901F044FAEA
:101A68002061002806D063695A1C6261C55410239E
:101A7800A36101E00323237338BDC04610B5041CDD
:101A88000069102101F030FA2061002802D01023EB
:101A9800A36103E00323237300232361002363610D
:101AA80010BDC04638B5041C002505608560057367
:101AB8004560056145618561FFF7E0FF657338BDE5
:101AC80038B5041C0D1CFFF7EDFF201C291CFFF77F
:101AD80039FF201C38BDC04610B5041CFFF7E2FFD3
:101AE80002232373201C10BD70B5061C002303734A
:101AF80000240BE0301C211CFFF7FCFE051E04D05F
:101B0800FFF700FD281C01F0C5F80134B368A342B3
:101B1800F0DC706801F038F900237360B360737308
:101B2800301CFFF7ABFF70BD10B5041C006801F056
:101B38002BF9201CFFF7D8FF206901F025F9201C9C
:101B480010BDC04610B5041C2169FFF7FBFE002339
:101B58002373201CFFF792FF10BDC046F0B547461F
:101B680080B48AB0071C0C1C00265FE2381C311CAC
:101B7800FFF7C0FE0378022B00D056E28368623B71
:101B8800122B00D956E29B00CB4AD3589F467A695C
:101B9800042A00D04EE202A8396901F0FFF804A92E
:101BA8006A460B32042304E013780B70031C0131DE
:101BB800013A581E002BF7DC049DBB689E421ADAD6
:101BC800381C311CFFF796FE041E04D0FFF79AFC60
:101BD800201C01F05FF8182001F062F8041C291C91
:101BE800FFF724FC2378032B01D13B7326E0B600D2
:101BF8007B689C5122E09E421ED1182001F050F8CB
:101C0800041C291CFFF712FC2378032B01D13B731A
:101C180014E0B96801318900786801F065F9002895
:101C280002D103233B7309E07860BA689300C4507B
:101C3800BB680133BB6001E004233B73381CFFF72A
:101C48001DFFF7E17B69042B00D0F3E102A8396995
:101C5800042201F0A3F804A96A460B32042304E025
:101C680013780B70031C0131013A581E002BF7DC66
:101C7800049DBB689E421ADA381C311CFFF73AFEF5
:101C8800041E04D0FFF73EFC201C01F003F81820C6
:101C980001F006F8041C291CFFF7D8FB2378032B56
:101CA80001D13B7326E0B6007A68945122E09E4247
:101CB8001ED1182000F0F4FF041C291CFFF7C6FBF6
:101CC8002378032B01D13B7314E0B96801318900F3
:101CD800786801F009F9002802D103233B7309E071
:101CE8007860BA689300C450BB680133BB6001E0F8
:101CF80004233B73381CFFF7C1FE9BE17B69082B6B
:101D080000D097E102A83969082201F047F804A930
:101D18006A460F32082304E013780B70031C013164
:101D2800013A581E002BF7DC049C059DBB689E42B7
:101D38001EDA381C311CFFF7DDFD8046002804D070
:101D4800FFF7E0FB404600F0A5FF182000F0A8FFD1
:101D58008046221C2B1CFFF793FB42461378032B6B
:101D680001D13B7328E0B60042467B689A5123E0D4
:101D78009E421FD1182000F093FF061C221C2B1C2A
:101D8800FFF77EFB3378032B01D13B7314E0B9686E
:101D980001318900786801F0A7F8002802D10323EF
:101DA8003B7309E07860BA689300C650BB6801339A
:101DB800BB6001E004233B73381CFFF75FFE39E189
:101DC8007B69082B00D035E168463969082200F0A4
:101DD800E5FF04A96A460332042304E013780B7074
:101DE800031C0131013A581E002BF7DC049A0092BB
:101DF80004A96A460732042304E013780B70031C15
:101E08000131013A581E002BF7DC049B019302A80C
:101E18006946082200F0C2FFBB689E4220DA381CDF
:101E2800311CFFF767FD041E04D0FFF76BFB201C75
:101E380000F030FF06A802A9082200F0AFFF182022
:101E480000F02EFF041C0699079AFFF707FB23787A
:101E5800032B01D13B7333E0B6007A6894512FE02D
:101E68009E422BD104A802A9082200F097FF08A8D7
:101E780004A9082200F092FF182000F011FF041CAA
:101E88000899099AFFF7EAFA2378032B01D13B73E3
:101E980016E0B96801318900786801F025F8002852
:101EA80002D103233B730BE07860BA689300C450F7
:101EB800BB680133BB6003E03838000804233B7378
:101EC800381CFFF7DBFDB5E0002C00D0B2E03D691F
:101ED800BB689E421ADA381C311CFFF70BFD041E42
:101EE80004D0FFF70FFB201C00F0D4FE182000F0F0
:101EF800D7FE041C291CFFF77FFA2378032B01D196
:101F08003B7326E0B6007B689C5122E09E421ED1BE
:101F1800182000F0C5FE041C291CFFF76DFA237871
:101F2800032B01D13B7314E0B9680131890078684B
:101F380000F0DAFF002802D103233B7309E0786040
:101F4800BA689300C450BB680133BB6001E0042346
:101F58003B73381CFFF792FD06237B736AE07D69AB
:101F6800042D67DD3B69984602A8191C042200F07D
:101F780015FF04A86A460B32042304E013780370A3
:101F8800231C0130013A5C1E002BF7DC049C231D46
:101F98009D424FD104229044BB689E421BDA381CF4
:101FA800311CFFF7A7FC051E04D0FFF7ABFA281C6D
:101FB80000F070FE182000F073FE051C4146221C3C
:101FC800FFF768FA2B78032B01D13B7327E0B600A3
:101FD8007B689D5123E09E421FD1182000F060FECF
:101FE800051C4146221CFFF755FA2B78032B01D11B
:101FF8003B7314E0B96801318900786800F074FF18
:10200800002802D103233B7309E07860BA68930083
:10201800C550BB680133BB6001E004233B73381C27
:10202800FFF72CFD06237B7304E00136BB68B3423F
:1020380000DD9BE50AB004BC9046F0BD38B5041C31
:102048000D1CFFF7F9FC637B062B4FD89B00284A31
:10205800D3589F462F2D49D10123637346E0002DA5
:1020680044D1201CFFF76EFD022363733EE02C2D44
:102078003CD103236373201CFFF700FD36E0002DDD
:1020880004D0201C291CFFF7B5FC01E0042363736E
:10209800A2680323934300D104239B1861699942E2
:1020A80024D1201CFFF7EAFC052363731EE0201CE3
:1020B800291CFFF753FD19E0A568013D14E0201C19
:1020C800291CFFF717FC0378002B0CD143685B42EF
:1020D8000322134062699A4208D1201CFFF7CEFC04
:1020E8000523637302E0013D002DE8DA38BDC046E0
:1020F8008438000808B5FFF7A1FF08BD0023037066
:102108007047C04610B5041C0378022B03D1002386
:102118000370012010E00020012B0DD100F062FDBA
:10212800002806D000F070FDC0B2C02801D100F030
:102138007DFD00232370012010BDC04670B5041C2E
:102148000125032600F04EFD002829D02378002B16
:102158000ED100F059FDC3B2DB2B03D1267000F07D
:1021680065FDEFE7C02B1DD1257000F05FFDE9E7A5
:10217800032B19D0012B0DD100F046FDC02805D145
:102188000223237000F052FD00200EE0002323708C
:1021980000200AE00020022B07D10023237004E06E
:1021A800002002E0012000E0012070BD38B5041CC9
:1021B800032500F03BFDC3B22278002A08D1DB2BAF
:1021C80001D12570F5E7C02B10D0FF23184012E08D
:1021D800032A0ED100222270C020DC2B0BD0DD3B5D
:1021E8005A1E93415842DB23184304E00120404221
:1021F80001E00120404238BDF0B5474680B482B0C6
:102208008020C0020121FEF799FB80263601009646
:10221800012290466B461A7100259D7103275F7154
:10222800DD71144C201C6946FEF744F9201C311C52
:10223800FEF7FEF9B0231B01009342466B461A7164
:102248009D715F71DD71201C6946FEF733F9201C12
:1022580080214900FEF7BCF9201C80218900FEF787
:10226800B7F9201C311CFEF7B3F902B004BC904644
:10227800F0BDC0460004004808B50C4B1868FA21A8
:10228800890000F021FD0138094B98420DD8094B0F
:102298005860094A106A0002000AC0210906014371
:1022A800116200229A6007221A6008BD1C000020F3
:1022B800FFFFFF0010E000E000ED00E0034B1860B6
:1022C8001A1C1368002BFCD17047C0462C01002053
:1022D800044B1B68002B03D0024B1A68013A1A60A2
:1022E8007047C0462C01002008B5FFF7F1FF08BD74
:1022F80008B5034880210901FEF79AF908BDC046D0
:102308000004004808B5034880210901FEF760F978
:1023180008BDC0460004004838B5041C5048802158
:102328000901FEF755F9201C0021FFF75DFB002885
:1023380000D193E0201C0021FFF732FB041E0FD1CF
:10234800474D281C80218900FEF742F9281C80216E
:102358000901FEF73DF9281C80214900FEF738F9EC
:10236800012C0FD13E4D281C80218900FEF730F941
:10237800281C80210901FEF72BF9281C802149001F
:10238800FEF756F9022C0FD1354D281C8021890003
:10239800FEF71EF9281C80210901FEF749F9281CBF
:1023A80080214900FEF714F9032C0FD12C4D281C6D
:1023B80080218900FEF70CF9281C80210901FEF70D
:1023C80037F9281C80214900FEF732F9042C0FD177
:1023D800234D281C80218900FEF72AF9281C80211A
:1023E8000901FEF7F5F8281C80214900FEF7F0F8EE
:1023F800052C0FD11A4D281C80218900FEF718F9E9
:10240800281C80210901FEF7E3F8281C80214900D7
:10241800FEF70EF9062C0FD1114D281C80218900DA
:10242800FEF706F9281C80210901FEF701F9281C8E
:1024380080214900FEF7CCF8072C0FD1084C201C4E
:1024480080218900FEF7F4F8201C80210901FEF79D
:10245800EFF8201C80214900FEF7EAF838BDC04695
:102468000004004808B5012805D1034B994202D160
:102478000248FFF743FE08BDFFFF000014010020DB
:10248800F0B55F4656464D464446F0B49FB0A54D5C
:10249800281CFDF7ADFE802080000121FEF776FAAA
:1024A800802000030121FEF749FA01A908230193BE
:1024B80003230B710024CC719B48FDF7FBFF03A994
:1024C80003940C718C60CC600C614C61281CFDF786
:1024D800ABFE281CFDF75CFF281C0121FDF710FF4F
:1024E800924C281C211CFDF79FFF0028F9D009A851
:1024F8008F49FFF7E5FA182000F0D2FB041C63218E
:10250800FEF79CFF2378032B03D1032209AB1A7330
:1025180012E00A980B990131890000F0E5FC0028C7
:1025280003D1032209AB1A7306E00A900B998B00BA
:10253800C4500B9B01330B9310A8FFF7CDFA00F0A2
:1025480007FBFFF759FE7B4D80263601281C311CFE
:10255800FEF73EF8281C311CFEF76AF8FFF78CFEE0
:10256800002000F033FA49200021002200F0A2F9EF
:102578004F203021002200F09DF9002000F0AEFA33
:10258800FA246400201CFFF799FE012000F0A6FA47
:10259800201CFFF793FE022000F0A0FA201CFFF792
:1025A8008DFE032000F09AFA201CFFF787FE042016
:1025B80000F094FA201CFFF781FE052000F08EFA47
:1025C800201CFFF77BFE062000F088FA201CFFF78E
:1025D80075FE072000F082FA201CFFF76FFE281C0A
:1025E80080218900FDF7F4FF281C311CFEF720F834
:1025F800281C80214900FEF71BF84D4A93464E4D92
:102608002E1C0520FFF75AFE464C201C802189010C
:102618000722FDF795FE201CFDF7E0FE201C042193
:10262800FDF702FF0028F9D03E48FDF7EBFE071C36
:1026380017A85946FFF744FA182000F031FB041C8C
:10264800391CFEF7F3FE2378032B03D1032217ABC3
:102658001A7312E0189819990131890000F044FCA6
:10266800002803D1032217AB1A7306E018901999B2
:102678008B00C450199B01331993002403229146FF
:10268800D3179A4614E0301CFFF758FD00280FDDD9
:1026980009E04046FFF78AFDC1B210A8FFF72AFDFE
:1026A8000134381C01E024498846471E0028F0D12F
:1026B800281CFFF727FD0123002804D0E30F52460A
:1026C8004946A1425341002BDDD110A8FFF752F92A
:1026D800002820D1174F80242401381C211CFDF725
:1026E80077FF381C211CFDF7A3FF10A81349144AD3
:1026F8000023FFF719F910A81249134A0023FFF71E
:1027080013F910A81149124A0023FFF70DF910A870
:10271800FFF7EAF902E010A8FFF7E6F917A8FFF7B4
:1027280003FA6EE700240140000800480100000198
:10273800A03800080004004814010020A838000848
:102748000D230008B8380008F9220008C43800082A
:102758002123000808B501200149FFF783FE08BDC1
:10276800FFFF0000F0B55F4656464D464446F0B4BC
:1027780089B080239B029B46181C0121FEF7DEF8D6
:10278800802040010121FEF701F906AC10230693D1
:102798000123994623710026A67103276771E67104
:1027A8009025ED05281C211CFDF784FEA023069327
:1027B80002232371A6716771E671281C211CFDF79D
:1027C80079FE281C05210022FDF762FF281C07213D
:1027D8000022FDF75DFF01A9204B0B8082235B00DF
:1027E8004B80E023DB009A468B80CE800E818023CD
:1027F8009B0098464B8118238B81CE8107230B823F
:10280800174E301CFEF73AF9301C0121FEF710FA7A
:1028180058460121FEF792F8534606934B4623711A
:102828000023A3716771E371281C211CFDF742FE88
:10283800281C80214900FDF7FBFE281C4146FDF7B6
:10284800C7FE281C8021C900FDF7C2FE09B03CBCA8
:1028580090469946A246AB46F0BDC04600C0FFFF71
:10286800003001407047C04610B57F2319403F2310
:102878001A40D3080724E41AE4B27F235B1ADBB2B8
:10288800E101C9180A4B5B5C002807D00720904378
:10289800021C012090400343DAB206E0072090436F
:1028A800021C0120904083431A1C014B5A5410BD4E
:1028B80030010020F8B54F464646C0B489469046D8
:1028C800002587003F18144E1FE07B19F35C234155
:1028D800DA0709D54B465919C9B243461A19D2B273
:1028E8000120FFF7C1FF08E04A465119C9B2434623
:1028F8001A19D2B20020FFF7B7FF0134E4B200E0A2
:102908000024072CE1D90135EDB2042DF8D90520B2
:102918000CBC90469946F8BDCC38000808B500288C
:1029280006D09020C0058021C900FDF751FE05E0C2
:102938009020C0058021C900FDF77AFE08BDC04679
:1029480008B5002806D09020C00580218900FDF731
:102958003FFE05E09020C00580218900FDF768FE54
:1029680008BDC04608B5002806D09020C0058021C3
:102978004900FDF72DFE05E09020C00580214900A3
:10298800FDF756FE08BDC04610B5011C0548FEF708
:1029980077F9044C201C8021FEF78AF90028F9D128
:1029A80010BDC0460030014010B5041C0120FFF7DF
:1029B800B5FF0020FFF7C4FF0020FFF7AFFF201C82
:1029C800FFF7E2FF0120FFF7A9FF10BD38B5051C8E
:1029D800FFF7C8FE00233F4A3F4CAA2102E0E1541A
:1029E80001339BB29342FAD90120FFF7BBFF0520C0
:1029F800FFF764FC0020FFF7B5FF0520FFF75EFC3A
:102A08000120FFF7AFFFAE20FFF7CEFF0020FFF752
:102A1800CBFF1020FFF7C8FF4020FFF7C5FF81203C
:102A2800FFF7C2FF012D03D19F20FFF7BDFF02E092
:102A3800CF20FFF7B9FFA120FFF7B6FFA620FFF7C9
:102A4800B3FFA420FFF7B0FFA820FFF7ADFF3F209A
:102A5800FFF7AAFFD320FFF7A7FF0020FFF7A4FF87
:102A6800D520FFF7A1FF8020FFF79EFFD920FFF7B1
:102A78009BFF012D03D12220FFF796FF02E0F120F2
:102A8800FFF792FFDA20FFF78FFF1220FFF78CFF86
:102A9800DB20FFF789FF4020FFF786FF2020FFF7A4
:102AA80083FF0020FFF780FFA120FFF77DFFC820EC
:102AB800FFF77AFF8D20FFF777FF012D03D1102054
:102AC800FFF772FF02E01420FFF76EFFAF20FFF759
:102AD8006BFF38BDFF03000030010020F8B5072761
:102AE80007400020FFF760FF1020FFF75DFFB020D0
:102AF8003843FFF759FF134B1978013101220A4077
:102B08001A700120FFF70AFF0120FFF719FF0020C4
:102B1800FFF704FF0025FF010B4E0C4C0CE0EB19EE
:102B2800F15C201CFEF7ACF8201C8021FEF7C0F8F1
:102B38000028F9D10135ADB27F2DF0D90120FFF77A
:102B4800EDFEF8BD180100203001002000300140E2
:102B5800F0B58BB08024A402201C0121FDF7EEFE05
:102B6800201C0121FDF73AFF9025ED05281C0221C4
:102B78000122FDF78DFD281C03210122FDF788FDA8
:102B880002A90C27029703234B7102230B7100241F
:102B98008C710126CE71281CFDF78CFC0E4B04931A
:102BA800059406940794099408970C4D281C04A9C9
:102BB800FEF7B4F8281C0A490122FEF7D9F901A842
:102BC8001C22027044708670FDF7ACFD281C0121A0
:102BD800FEF77AF90BB0F0BD20A1070000440040D1
:102BE80005010500064B18784030064B1B78C01AC3
:102BF800C3179B0EC0183F221040C01A7047C0462A
:102C08001A01002019010020054B1A78054B1B7882
:102C18009A4202D0044AD05C01E001204042704749
:102C28001A0100201901002030050020084B1A78ED
:102C3800084B1B789A4207D0074AD05C01333F22E1
:102C48001340044A137001E0012040427047C04617
:102C58001A010020190100203005002038B5094864
:102C68000949FEF707FA00280BD0084C25780548D3
:102C7800FEF75CF9064B5855237801333F22134081
:102C8800237038BD00440040050105001A010020EA
:102C98003005002008B5002801D000F075F808BDFF
:102CA80010B5041E02D1012400E09847201C00F052
:102CB80061F8002805D1034B1B68002BF5D1FEF7FE
:102CC80065FA10BD1C010020002934D00123002220
:102CD80010B488422CD301242407A14204D2814293
:102CE80002D209011B01F8E7E400A14204D28142A3
:102CF80002D249005B00F8E7884201D3401A1A4320
:102D08004C08A04202D3001B5C0822438C08A04256
:102D180002D3001B9C082243CC08A04202D3001B0C
:102D2800DC082243002803D01B0901D00909E3E786
:102D3800101C10BC7047002801D00020C04307B405
:102D4800024802A14018029003BDC04619000000C5
:102D58000029F0D003B5FFF7B9FF0EBC4243891A2A
:102D68001847C0467047C046014B18687047C046B0
:102D78008000002008B5034B011C186800F060F8BB
:102D880008BDC0468000002008B5034B011C186828
:102D980000F00EF808BDC0468000002010B50023E2
:102DA800934203D0CC5CC4540133F9E710BD000052
:102DB80030B5002940D004390B68002B00DAC91857
:102DC8001E4A1368141C002B02D14B60116033E0BB
:102DD80099420FD208680A189A4205D113685268B6
:102DE800C01808604A6000E04B60216024E08A4215
:102DF80003D8131C5A68002AF9D11D685C198C4243
:102E08000BD10968691858181960904214D11468D0
:102E18005268091919605A600EE08C4202D90C23D5
:102E2800036009E008680C18944203D114685268DA
:102E3800001908604A60596030BDC046240100206E
:102E480070B50323CD1C9D430835061C0C2D01D2FB
:102E58000C2501E0002D3FDB8D423DD3204B1C6843
:102E68001A1C211C002913D00868431B0DD40B2BF6
:102E780002D90B60CC181EE08C4202D16368136043
:102E88001AE0486860600C1C16E00C1C4968E9E709
:102E9800144C2068002803D1301C00F031F8206061
:102EA800301C291C00F02CF8431C15D0C41C03232B
:102EB8009C4384420AD12560201C0B300722231D25
:102EC8009043C31A0BD05A42E25008E0211A301C32
:102ED80000F016F80130EED10C233360002070BDED
:102EE800240100202001002008B50A1C0349031C06
:102EF8000868191C00F080F808BDC0468000002052
:102F080038B5074C0023051C081C2360FEF748F958
:102F1800431C03D12368002B00D02B6038BDC0466A
:102F28002801002002780B7801300131002A01D0F5
:102F38009A42F7D0D01A7047031C0A7801311A70E8
:102F48000133002AF9D170470023C25C0133002AFB
:102F5800FBD1581E7047031C002010B582420FD0C9
:102F68001C780878A04201D1012A03D118780B787F
:102F7800C01A05E0013A0028F8D001330131EFE723
:102F880010BD30B5051C9BB0141E04DA8B230360FA
:102F9800012040421DE0822292006846009104917F
:102FA800002182818C4200D0611E0122524202918E
:102FB80005916946CA81281C1A1C1E9B00F0A2F8BC
:102FC800421C01DA8B232B60002C02D000990023CD
:102FD8000B701BB030BD000073B5141C054A061CED
:102FE8000D1C1068311C00932A1C231CFFF7C9FF15
:102FF80076BDC04680000020F8B5061C0C1C151CC8
:10300800002904D1111CFFF71BFF041C18E0002A3B
:1030180003D1FFF7CDFE2C1C12E000F011FBA842F3
:103028000ED2301C291CFFF70BFF071E07D0211CEE
:103038002A1CFFF7B3FE301C211CFFF7B9FE3C1C0D
:10304800201CF8BDF0B58D6885B0071C0C1C0392D8
:103058000193AB4245D390228B89D20013423DD0D5
:1030680062690326564309692068F20F401A9619C7
:103078000290021C0198013212187610964200D272
:10308800161C381C5A050FD5311CFFF7D9FE051E32
:1030980013D0029A2169FFF781FEA289184B1340C9
:1030A80080221343A38111E0321CFFF7A5FF051E00
:1030B8000CD1381C2169FFF77BFE0C233B60A389E8
:1030C800402213430120A381404217E0029B25615F
:1030D800ED1825606661019DF61AA6600198A84260
:1030E80000D2019D2A1C2068039900F090FAA2687A
:1030F8000020531BA36023685D19256005B0F0BD4F
:103108007FFBFFFFF0B59FB0039005938B890E1CE2
:10311800171C19060FD53269002A0CD14021FFF778
:103128008FFE30603061002803D103990C230B60B7
:10313800C9E04023736106AD00236B6120236B76E1
:103148003023AB763C1C2378002B03D1E21B029280
:1031580011D003E0252BF9D00134F4E70398311C92
:103168003A1C029BFFF76EFF013000D1A6E06969A7
:10317800029A8B186B612378002B00D19EE0012204
:1031880052426A606A4600235B3201342B60EB606E
:10319800AB601370AB654E4F2178381C052200F0E8
:1031A8002BFA002807D0C71B2B680120B84018430A
:1031B80028600134EFE72B68D90603D56A46202139
:1031C8005B3211701A0703D56A462B215B321170E6
:1031D80022782A2A01D0099B0EE0059A111D12684F
:1031E8000591002A01DB099204E05242EA600222BA
:1031F80013432B60013409E02278303A092A04D8B5
:103208000A214B4301349B18F6E7099323782E2BA8
:1032180018D163782A2B09D1059B02341A1D1B6823
:103228000592002B0DDA01235B420AE001340023EA
:103238002278303A092A04D80A214B4301349B18D2
:10324800F6E70793234F2178381C032200F0D4F9BE
:10325800002806D0C71B2B684020B84018432860B8
:10326800013421781C480622671C297600F0C4F92D
:10327800002812D0194B002B06D1059B07220733D3
:1032880093430833059314E005AB00930398291C76
:10329800321C134B00E000BF07E005AB0093039816
:1032A800291C321C0E4B00F091F80490049901314E
:1032B80004D06A69049953186B6143E7B3895A06C5
:1032C80001D40B9801E0012040421FB0F0BDC04678
:1032D800CA3D0008D03D0008D43D000800000000A9
:1032E8004D300008F7B5151C01930A698B68061C58
:1032F8000C1C934200DA131C221C2B6043321278F8
:10330800002A01D001332B602068800602D52B6883
:1033180002332B60216806270F401FD0231C43333C
:103328001B785A1E9341226892061FD5E118403136
:103338003020C870211C5A1C45310978A218403227
:103348000233D17012E0221C301C0199193201237A
:10335800089FB847013011D0009F01370097E068F7
:103368002968009F431A9F42EDDBD7E7221C301CD7
:1033780001994332089FB847013002D101204042E9
:1033880023E0206806212B68E26801400025042913
:1033980003D1D51AEB43DB171D40A26823699A4273
:1033A80001DDD31AED1800270097009FAF420BDA12
:1033B800221C301C01991A320123089FB84701309A
:1033C800DCD0009F0137EFE70020FEBDF0B50D1CF3
:1033D8008BB0433506920590079304950B7E0C1C21
:1033E800109A6E2B00D1A7E011D8632B22D009D8F0
:1033F800002B00D1B0E0582B00D0C0E045310B7055
:103408007B4D4EE0642B1CD0692B1AD0B7E0732B90
:1034180000D1A5E009D86F2B29D0702B00D0AEE0E1
:103428000E68202333430B6036E0752B1FD0782BB2
:1034380032D0A4E013680D1C191D423511601B68B9
:103448009FE0216813680E0603D5191D11601E68D8
:1034580005E04806F9D5191D116000215E5E644B30
:10346800002E3BDA049D2D2276422A7036E0216830
:1034780013680E0603D5191D11601E6804E048067E
:10348800F9D5191D1E881160594B227E0393082710
:103498006F2A1ED00A271CE0231C78214533554D7E
:1034A800197011682368081D039510601E0601D560
:1034B8000E6802E05806FBD50E88D90702D52022EF
:1034C800134323601027002E03D1226820239A4338
:1034D8002260231C002243331A7001E003930A2759
:1034E8006368A360002B03DB2568042295432560ED
:1034F800002E02D1049D002B0ED0049D301C391CD7
:10350800FFF726FC0398013D435C301C2B70391CE7
:10351800FFF7DAFB061EF1D1082F09D12168C90788
:1035280006D5626823699A4202DC013D30232B707C
:10353800049E731B23612AE008681368496905061D
:1035480004D5181D10601B68196005E04606F8D5FB
:10355800181D10601B68198000232361049D16E064
:103568001368191D11601D68281CFFF7EDFC6368BE
:103578002061984200D923612069606004E0251C1D
:1035880042352B7001232361049E00233370079E6C
:1035980005980096211C09AA069BFFF7A3FE013097
:1035A80002D10120404221E02A1C0598069923698E
:1035B800079DA8470130F4D02668B60705D4099BB3
:1035C800E068984212DA181C10E00025E0680999B2
:1035D800431A9D42F3DA221C0598069919320123F1
:1035E800079EB0470130DCD00135EFE70BB0F0BDE6
:1035F800DB3D0008EC3D0008C9B28218904204D0B7
:1036080003788B4202D00130F8E70020704770B58C
:10361800814201D300230CE08C18A042FAD285180D
:10362800131C013B0BD351426618F65C6918CE5443
:10363800F7E7934203D0CC5CC4540133F9E770BD7B
:1036480004390B68181F002B02DAC8581B18181FFA
:10365800704700002E2E2F73797374656D2F737267
:10366800632F73746D333266302D737464706572B2
:103678006970682F73746D3332663078785F61646F
:10368800632E63002E2E2F73797374656D2F7372FA
:10369800632F73746D333266302D73746470657282
:1036A8006970682F73746D3332663078785F67702D
:1036B800696F2E63000000002E2E2F7379737465D6
:1036C8006D2F7372632F73746D333266302D73747C
:1036D800647065726970682F73746D333266307800
:1036E800785F6D6973632E63000000002E2E2F73C0
:1036F800797374656D2F7372632F73746D333266CB
:10370800302D7374647065726970682F73746D33CB
:1037180032663078785F7263632E63002E2E2F73C3
:10372800797374656D2F7372632F73746D3332669A
:10373800302D7374647065726970682F73746D339B
:1037480032663078785F7370692E63002E2E2F737F
:10375800797374656D2F7372632F73746D3332666A
:10376800302D7374647065726970682F73746D336B
:1037780032663078785F75736172742E630000006A
:1037880061626F727428292C2065786974696E6784
:103798002E2E2E002C2066756E6374696F6E3A208B
:1037A80000000000617373657274696F6E202225D2
:1037B8007322206661696C65643A2066696C6520CD
:1037C800222573222C206C696E65202564257325BB
:1037D800730A00006173736572745F706172616D62
:1037E8002829206661696C65643A2066696C6520E1
:1037F800222573222C206C696E652025640A00003E
:103808000A0000006D61696E28617267633D256476
:103818002C20617267763D5B000000002C200000C0
:1038280022257322000000005D293B0A00000000E9
:10383800661F00083C200008041D00083C20000802
:103848004C1C00083C2000083C200008961B00087F
:103858003C2000083C2000083C2000083C200008D0
:103868003C2000083C2000083C2000083C200008C0
:103878003C200008D01E0008C81D00085C20000875
:103888006620000876200008862000089820000896
:10389800B6200008C02000082F6B657900000000E2
:1038A8002F7379732F72656E756D626572000000F3
:1038B8002F7379732F726573657400002F6C6564BC
:1038C8000000000000000000003E5B4F5B3E3E6BC6
:1038D8004F6B3E1C3E7C3E1C183C7E3C181C577DA2
:1038E800571C1C5E7F5E1C00183C1800FFE7C3E7EE
:1038F800FF0018241800FFE7DBE7FF30483A060E00
:103908002629792926407F050507407F05253F5A46
:103918003CE73C5A7F3E1C1C08081C1C3E7F1422B6
:103928007F22145F5F005F5F06097F017F00668961
:10393800956A606060606094A2FFA29408047E04A7
:103948000810207E201008082A1C08081C2A0808CD
:103958001E101010100C1E0C1E0C30383E3830068D
:103968000E3E0E06000000000000005F0000000789
:10397800000700147F147F14242A7F2A12231308B7
:10398800646236495620500008070300001C224193
:10399800000041221C002A1C7F1C2A08083E080837
:1039A80000807030000808080808000060600020E7
:1039B800100804023E5149453E00427F40007249CA
:1039C8004949462141494D331814127F102745456E
:1039D80045393C4A49493141211109073649494984
:1039E80036464949291E00001400000040340000F2
:1039F800000814224114141414140041221408025B
:103A0800015909063E415D594E7C1211127C7F49CD
:103A18004949363E414141227F4141413E7F494922
:103A280049417F090909013E414151737F0808084E
:103A38007F00417F41002040413F017F081422411F
:103A48007F404040407F021C027F7F0408107F3E79
:103A58004141413E7F090909063E4151215E7F09E6
:103A6800192946264949493203017F01033F40404D
:103A7800403F1F2040201F3F4038403F6314081438
:103A88006303047804036159494D43007F41414170
:103A98000204081020004141417F04020102044051
:103AA80040404040000307080020545478407F28D5
:103AB8004444383844444428384444287F385454CB
:103AC800541800087E090218A4A49C787F080404EE
:103AD8007800447D40002040403D007F102844008D
:103AE80000417F40007C047804787C08040478381E
:103AF80044444438FC1824241818242418FC7C084E
:103B0800040408485454542404043F44243C4040CA
:103B1800207C1C2040201C3C4030403C442810287D
:103B2800444C9090907C4464544C440008364100C6
:103B38000000770000004136080002010204023C40
:103B48002623263C1EA1A161123A4040207A38540F
:103B58005455592155557941225454784221555488
:103B6800784020545579400C1E52721239555555DB
:103B780059395454545939555454580000457C41C6
:103B88000002457D420001457C407D1211127DF006
:103B9800282528F07C545545002054547C547C0A30
:103BA800097F4932494949323A4444443A324A48F9
:103BB80048303A4141217A3A42402078009DA0A0FD
:103BC8007D3D4242423D3D4040403D3C24FF24244F
:103BD800487E4943662B2FFC2F2BFF0929F620C06E
:103BE800887E090320545479410000447D413048BF
:103BF800484A32384040227A007A0A0A727D0D1902
:103C0800317D2629292F28262929292630484D4063
:103C180020380808080808080808382F10C8ACBA5F
:103C28002F102834FA00007B000008142A142222DE
:103C3800142A1408AA005500AAAA55AA55AA0000D1
:103C480000FF00101010FF00141414FF001010FFE4
:103C580000FF1010F010F0141414FC001414F700F6
:103C6800FF0000FF00FF1414F404FC141417101FC5
:103C780010101F101F1414141F00101010F0000053
:103C880000001F101010101F10101010F01000006E
:103C980000FF101010101010101010FF100000007E
:103CA800FF140000FF00FF00001F10170000FC04B5
:103CB800F414141710171414F404F40000FF00F798
:103CC80014141414141414F700F7141414171410FB
:103CD800101F101F141414F4141010F010F000002A
:103CE8001F101F0000001F14000000FC140000F04B
:103CF80010F01010FF10FF141414FF141010101FF0
:103D080000000000F010FFFFFFFFFFF0F0F0F0F000
:103D1800FFFFFF0000000000FFFF0F0F0F0F0F381D
:103D280044443844FC4A4A4A347E02020606027E6B
:103D3800027E0263554941633844443C04407E2076
:103D48001E2006027E020299A5E7A5991C2A492A87
:103D58001C4C7201724C304A4D4D30304878483016
:103D6800BC625A463D3E494949007E0101017E2A0E
:103D78002A2A2A2A44445F444440514A4440404441
:103D88004A51400000FF0103E080FF000008086B73
:103D98006B083612362436060F090F06000018186D
:103DA8000000001010003040FF0101001F01011E3B
:103DB80000191D1712003C3C3C3C000000000000AC
:103DC8004300232D302B2000686C4C006566674546
:103DD800464700303132333435363738394142437B
:103DE800444546003031323334353637383961622C
:053DF800636465660034
:103E0000785634120000000001020304010203048A
:103E1000060708099000002000000000006CDC028A
:103E20000000000000000000000000000000000092
:103E30000000000000000000000000000000000082
:103E4000C83D000800000000000000000000000065
:103E50000000000000000000000000000000000062
:103E60000000000000000000000000000000000052
:103E70000000000000000000000000000000000042
:083E8000200000203254769866
:04000005080000C52A
:00000001FF
