:020000040800F2
:1000000000200020D5010008DD010008E101000802
:1000100000000000000000000000000000000000E0
:10002000000000000000000000000000E5010008E2
:100030000000000000000000E9010008192C000881
:10004000F1010008F1010008F1010008F1010008C8
:10005000F1010008F1010008F1010008F1010008B8
:10006000F1010008F1010008F1010008F1010008A8
:10007000F1010008F1010008F1010008F101000898
:10008000F1010008F101000800000000F101000882
:10009000F1010008F1010008F1010008F101000878
:1000A000F1010008F10100088D3A0008F101000893
:1000B000853E000800000000F1010008000000007B
:1000C0005FF808F130B583B0314B324A1360324AE1
:1000D0001360324B3249002201E01A6004338B4234
:1000E000FBD32C4B1B68002B03D12B4B1B68002B25
:1000F00000D0FEE7264B2B4A13602B4A13602B4B94
:100100002B4A2C4903E010681860043304328B42F8
:10011000F9D3244B1A68284B9A4204D1224B1A680F
:100120001B689A4200D0FEE701F094FB01A86946E3
:1001300001F084FB214B224DED1AAD10002404E0A8
:10014000A3001E4A9B5898470134A542F8DC1D4B7A
:100150001D4DED1AAD10002404E0A30019481B58F2
:1001600098470134A542F8DC0198009903F00EFB92
:10017000051C164B164CE41AA41004E0013CA30025
:10018000124A9B589847002CF8DC281C01F02EFBE3
:10019000BABADECA8C000020AC0C00208C00002013
:1001A000B00C00200000002088000020000000208B
:1001B000104900088C00002078563412F401000821
:1001C000F4010008F4010008F8010008F801000833
:1001D000FC01000808B5FFF775FFC046FEE7C04602
:1001E000FEE7C046FEE7C046FEE7C046FEE7C04663
:0401F000FEE7C04620
:0801F4007D3900088D39000877
:1001FC0010B5041C0A4B984203D00A48852101F023
:10020C001FFB074B9C4209D18024A400201C012118
:10021C0000F096FE201C002100F092FE10BDC0469E
:10022C00002401400842000838B5051C0C1C314B59
:10023C00984203D03048A12101F002FB2368002B27
:10024C0009D0082B07D0102B05D0182B03D02A4827
:10025C00A22101F0F5FA2379012B03D92648A32119
:10026C0001F0EEFAA368002B0FD08022D20093424B
:10027C000BD080221201934207D0C022120193426C
:10028C0003D01D48A42101F0DBFAE368002B0DD04C
:10029C00402B0BD0802B09D0C02B07D080225200D2
:1002AC00934203D01448A52101F0CAFA2369002B0C
:1002BC0005D0202B03D01048A62101F0C1FA6369A8
:1002CC00002B05D0042B03D00B48A72101F0B8FA62
:1002DC00EA680A4B1A4023795B0321680B43A16837
:1002EC000B43E1680B4321690B4361690B431343D7
:1002FC00EB6038BD002401400842000803D2FFFF28
:10030C000023036003718360C36003614361704722
:10031C0038B5041C0D1C0C4B984203D00B48E9213A
:10032C0001F08EFA012D03D90848EA2101F088FA70
:10033C00002D04D0A26801231343A36003E0A2683C
:10034C0002231343A36038BD002401400842000877
:10035C0070B5041C0D1C161C0D4B984203D00D4897
:10036C000D4901F06DFA002D01D0EB0C04D00948B9
:10037C00B421890001F064FA072E03D90548074916
:10038C0001F05EFAA36A1D43A562666170BDC046AA
:10039C000024014008420008CF020000D1020000F6
:1003AC0010B5041C0E4B984203D00E480E4901F0B8
:1003BC0047FAA26880231B061343A3600023F02195
:1003CC000902A268D20FD20701338B4201D0002A56
:1003DC00F7D1A368002B01DB206C00E0002010BDDE
:1003EC0000240140084200083D03000010B5041C25
:1003FC00054B984203D00548054901F021FAA26843
:10040C0004231343A36010BD0024014008420008DC
:10041C006F03000038B5041C0D1C0D4B984204D022
:10042C000C48EA21890001F00BFA012D03D9094887
:10043C00094901F005FA002D04D0E26801231343A9
:10044C00E36003E0E36801229343E36038BDC046F8
:10045C000024014008420008A903000038B5041C20
:10046C000D1C074B984203D00648074901F0E8F9E8
:10047C00E36802229343E360E3681D43E56038BD03
:10048C000024014008420008C303000038B5051CD5
:10049C000C1C194B984203D01848194901F0D0F99B
:1004AC00631E012B1CD9042C1AD0082C18D0802CBC
:1004BC0016D0102C14D0134B9C4211D0124B9C42D2
:1004CC000ED0124B9C420BD0114B9C4208D0812376
:1004DC001B069C4204D009488B21C90001F0B0F9DD
:1004EC00E30103D5A8680B4B184000E028680440D2
:1004FC00201C441EA04138BD0024014008420008C5
:10050C00570400000100000102000001040000017A
:10051C0010000001FFFFFFFE10B5041C324B984287
:10052C0015D0324B984212D0314B98420FD0314BF0
:10053C0098420CD0304B984209D0304B984206D0A0
:10054C002F4B984203D02F48842101F079F922686F
:10055C002D4B13402360002323606360A360E36092
:10056C00214B9C4205D1294B59680F220A435A60F2
:10057C0039E01E4B9C4205D1244B5968F0220A43AA
:10058C005A6030E01A4B9C4206D1204B5968F0223D
:10059C0012010A435A6026E0164B9C4206D11B4BB3
:1005AC005968F02212020A435A601CE0124B9C421A
:1005BC0006D1164B5968F02212030A435A6012E016
:1005CC000E4B9C4206D1114B5968F02212040A437F
:1005DC005A6008E00A4B9C4205D10C4B5968F0223A
:1005EC0012050A435A6010BD080002401C0002406C
:1005FC003000024044000240580002406C000240AF
:10060C008000024038420008FEFF0000000002405B
:10061C0038B5051C0C1C4E4B984215D04D4B9842CE
:10062C0012D04D4B98420FD04C4B98420CD04C4BA7
:10063C00984209D04B4B984206D04B4B984203D072
:10064C004A48CC2101F0FCF8A368002B05D0102BF4
:10065C0003D04648CD2101F0F3F8E268013A444B4F
:10066C009A4203D94148CE2101F0EAF82369002BC4
:10067C0005D0402B03D03D48CF2101F0E1F8636950
:10068C00002B05D0802B03D03848D02101F0D8F8AE
:10069C00A369002B0BD080225200934207D08022FA
:1006AC009200934203D03148D12101F0C9F8E3699B
:1006BC00002B0BD08022D200934207D08022120153
:1006CC00934203D02948D22101F0BAF8236A002BB7
:1006DC0005D0202B03D02548D32101F0B1F8636A53
:1006EC00C022920193420DD080229201934209D0F4
:1006FC0080225201934205D0002B03D01B48D421F9
:10070C0001F09EF8A36A002B07D08022D2019342FD
:10071C0003D01648D52101F093F82A68154B1A40DE
:10072C00A368216A0B4321690B4361690B43A169DF
:10073C000B43E1690B43616A0B43A16A0B431343FF
:10074C002B60E3686B602168A9606368EB6038BD5F
:10075C00080002401C0002403000024044000240ED
:10076C00580002406C0002408000024038420008F1
:10077C00FEFF00000F80FFFF38B5041C0D1C164B4C
:10078C00984216D0154B984213D0154B984210D066
:10079C00144B98420DD0144B98420AD0134B9842EC
:1007AC0007D0134B984204D012482A21FF3101F094
:1007BC0047F8012D04D90F489521490001F040F864
:1007CC00002D04D0226801231343236003E0226828
:1007DC00094B1340236038BD080002401C00024046
:1007EC003000024044000240580002406C000240BD
:1007FC008000024038420008FEFF000010B5041CC7
:10080C00431E012B60D904285ED008285CD0102828
:10081C005AD0202858D0402856D0802854D0802335
:10082C005B00984250D080239B0098424CD0802390
:10083C00DB00984248D080231B01984244D080238F
:10084C005B01984240D080239B0198423CD080238E
:10085C00DB01984238D080231B02984234D080238D
:10086C005B02984230D080239B0298422CD080238C
:10087C00DB02984228D080231B03984224D080238B
:10088C005B03984220D080239B0398421CD080238A
:10089C00DB03984218D080231B04984214D0802389
:1008AC005B04984210D080239B0498420CD0802388
:1008BC00DB04984208D080231B05984204D00648DC
:1008CC008021890000F0BCFF044B18680440201CF8
:1008DC00441EA04110BDC046384200080000024032
:1008EC0010B5041C030F01D1002804D103488F213B
:1008FC00890000F0A5FF024B5C6010BD3842000877
:10090C0000000240F8B5051C0E1C9023DB05984234
:10091C0012D03D4B98420FD03C4B98420CD03C4BE4
:10092C00984209D03B4B984206D03B4B984203D09F
:10093C003A48B42100F084FF3368002B03D13748C8
:10094C00B52100F07DFF3379032B03D93348B62151
:10095C0000F076FFF379022B03D93048B72100F071
:10096C006FFF002401274BE03B1CA34032681A4068
:10097C009A4244D13379013B012B28D87379012B4E
:10098C0005D9032B03D02548C72100F059FFAA68CD
:10099C006300032199408A43AA60AA68717999403F
:1009AC000B1C1343AB60B379012B03D91B48CE212D
:1009BC0000F046FFAA8823041B0C391C99408A437B
:1009CC00AA80AA88B17999408BB21343AB8029686D
:1009DC0063000322101C98408143296028683179F8
:1009EC00994001432960E9682004C00B824091437F
:1009FC00E960EA68F17999400B1C1343EB60013410
:100A0C000F2CB1D9F8BDC0460004004800080048BE
:100A1C00000C004800100048001400486842000810
:100A2C0038B5041C0D1C9023DB05984213D0274BC2
:100A3C00984210D0264B98420DD0264B98420AD0A3
:100A4C00254B984207D0254B984204D024489B2133
:100A5C00490000F0F5FE6B1E9BB2012B30D9042D22
:100A6C002ED0082D2CD0102D2AD0202D28D0402D62
:100A7C0026D0802D24D080235B009D4220D0802363
:100A8C009B009D421CD08023DB009D4218D080230C
:100A9C001B019D4214D080235B019D4210D080230A
:100AAC009B019D420CD08023DB019D4208D080230A
:100ABC001B029D4204D00A483821FF3100F0C0FED1
:100ACC00208A0540281C451EA84138BD000400485A
:100ADC0000080048000C00480010004800140048B2
:100AEC006842000838B5041C0D1C9023DB059842A5
:100AFC0013D00E4B984210D00D4B98420DD00D4B8D
:100B0C0098420AD00C4B984207D00C4B984204D018
:100B1C000B48C821490000F093FE002D04D1084871
:100B2C009221FF3100F08CFEA56138BD0004004815
:100B3C0000080048000C0048001000480014004851
:100B4C006842000838B5041C0D1C9023DB05984244
:100B5C0013D00E4B984210D00D4B98420DD00D4B2C
:100B6C0098420AD00C4B984207D00C4B984204D0B8
:100B7C000B48A621FF3100F063FE002D04D108487C
:100B8C00D321490000F05CFE258538BD00040048E7
:100B9C0000080048000C00480010004800140048F1
:100BAC006842000870B5041C0D1C161C9023DB0554
:100BBC00984212D0174B98420FD0174B98420CD03A
:100BCC00164B984209D0164B984206D0154B9842BA
:100BDC0003D01548154900F033FE0F2D03D91248E8
:100BEC00134900F02DFE072E03D90F48114900F0D0
:100BFC0027FE07232B409B009E40E9080831890003
:100C0C000A590F20984082430A510B591E430E512A
:100C1C0070BDC0460004004800080048000C0048A5
:100C2C000010004800140048684200080D02000043
:100C3C000E0200000F02000070B5041C8378012B1B
:100C4C0003D91A48522100F0FBFD6378032B03D91A
:100C5C001648532100F0F4FDA378002B1BD0257807
:100C6C00AA08134BC0329200D65803210D40E9005C
:100C7C00FF20051C8D40AE43351C6678B601304014
:100C8C008840011C2943D15022781F210A400121A0
:100C9C009140196008E023781F21194001238B40F3
:100CAC00191C8023024AD15070BDC0469C420008DA
:100CBC0000E100E070B5041C5E4B5B680C22134035
:100CCC00042B0CD002D8002B05D028E0082B0AD01E
:100CDC000C2B20D023E0584B0360002022E0564B15
:100CEC00036000201EE0534B5D68AD025A682D0F67
:100CFC000235C0235B021A4202D15048684308E017
:100D0C004C4BDB6A0F21194001314B4803F0EAF8D8
:100D1C006843206006E04A4B0360002002E0464B2B
:100D2C0023600020434B5A681206120F454DA95CF4
:100D3C00C9B22668321CCA40111C62605A6852053E
:100D4C00520FAA5CD2B2D1400A1CA1601B6BD90510
:100D5C0002D43D4BE36008E0364B5B68590402D487
:100D6C005308E36001E09308E360324B1B6B5906B8
:100D7C0002D4364B236102E080231B0223612D4BEE
:100D8C001B6BD90602D42C4B636100E06661294BC6
:100D9C001B6B990701D1A26119E0264B1B6B032138
:100DAC000B40012B01D1A66111E0224B1B6B0321DF
:100DBC000B40022B03D180231B02A36107E01D4BC8
:100DCC001B6B03210B40032B01D11B4BA361194B54
:100DDC00196BC0239B02194201D1E26120E0154B33
:100DEC001B6BC02292021A4080235B029A4201D1F3
:100DFC00E66115E00F4B1B6BC02292021A40802358
:100E0C009B029A4203D180231B02E36108E0094B49
:100E1C001A6BC0239B021A409A4201D1064BE36124
:100E2C00044B1B6B1A0602D4054B236200E02062B4
:100E3C0070BDC0460010024000127A0000093D004F
:100E4C00006CDC0204000020809FD50012800000A2
:100E5C0038B5041C0D1C0D4B184201D1002803D1D0
:100E6C000B480C4900F0ECFC012D03D908480A4949
:100E7C0000F0E6FC002D04D0084B5A6914435C6169
:100E8C0003E0064B5A69A2435A6138BDAAFF81FEA2
:100E9C00D042000836050000370500000010024063
:100EAC0038B5041C0D1C0D4B184201D1002803D180
:100EBC000B480C4900F0C4FC012D03D908480A4921
:100ECC0000F0BEFC002D04D0084B9A6914439C61C1
:100EDC0003E0064B9A69A2439A6138BDFEA5B8FFA0
:100EEC00D04200085A0500005B05000000100240CB
:100EFC0038B5041C0D1C0E4B184201D1002803D12F
:100F0C000C480D4900F09CFC012D04D90948B12175
:100F1C00C90000F095FC002D04D0084BDA6914438D
:100F2C00DC6103E0054BDA69A243DA6138BDC046E7
:100F3C00CCB61185D0420008870500000010024095
:100F4C0038B5041C0D1C0E4B184201D1002803D1DE
:100F5C000C480D4900F074FC012D04D90948B92145
:100F6C00C90000F06DFC002D04D0084BDA68144366
:100F7C00DC6003E0054BDA68A243DA6038BDC0469A
:100F8C00FEA5B8FFD0420008C705000000100240C3
:100F9C00F8B54F464646C0B4051C0C1C644B984231
:100FAC0006D0644B984203D06348EB2100F048FC18
:100FBC002388002B0FD08022D20093420BD08022AA
:100FCC001202934207D0C0221202934203D05A4815
:100FDC00EE2100F035FC638882225200934205D04A
:100FEC00002B03D05448EF2100F02AFCA388C02228
:100FFC009200934233D08022D20093422FD0A02271
:10100C00D20093422BD0C022D200934227D0E022B0
:10101C00D200934223D08022120193421FD09022FF
:10102C00120193421BD0A0221201934217D0B0227E
:10103C001201934213D0C022120193420FD0D0223E
:10104C00120193420BD0E0221201934207D0F022FE
:10105C001201934203D03848F02100F0F1FBE388F1
:10106C00002B05D0022B03D03348F12100F0E8FB14
:10107C002389012B03D93048F22100F0E1FB63896D
:10108C0080229200934205D0002B03D02A48F321F2
:10109C0000F0D6FBA389002B11D0082B0FD0102BFE
:1010AC000DD0182B0BD0202B09D0282B07D0302B90
:1010BC0005D0382B03D02048F42100F0C1FBE38984
:1010CC00002B05D0802B03D01B48F52100F0B8FB7A
:1010DC00238A002B03D11848F62100F0B1FB2B8892
:1010EC00C12292011A4091462288E389E788268919
:1010FC006089A18913433B43334303430B434A4663
:10110C0013432B80AA880D4B1340A2881343AB804A
:10111C00238A2B822B8804229343628813432B80CF
:10112C00AA8B074B1340AB830CBC90469946F8BD79
:10113C00003001400038004000430008FFF0FFFF82
:10114C00FFF7FFFF38B5041C0D1C0F4B984207D05E
:10115C000E4B984204D00E48C821FF3100F070FBB2
:10116C00012D04D90A48E421490000F069FB002D47
:10117C0004D0228840231343238003E02388402299
:10118C009343238038BDC0460030014000380040F6
:10119C000043000838B5041C0D1C064B984206D0C1
:1011AC00054B984203D00548054900F049FB2573CF
:1011BC0038BDC046003001400038004000430008F4
:1011CC00EB02000038B5051C0C1C144B984206D0E1
:1011DC00134B984203D01348134900F031FB802C79
:1011EC0015D0402C13D0202C11D0102C0FD0022C49
:1011FC000DD0012C0BD080235B009C4207D0042C1B
:10120C0005D0082C03D00748084900F019FB2889A1
:10121C000440201C441EA04138BDC0460030014093
:10122C000038004000430008DA040000DB04000032
:10123C00F0B5474680B48AB0041C0D1C5C4B984238
:10124C000CD05C4B984209D05B4B984206D05B4B60
:10125C00984203D05A48DC2100F0F2FA2A68013A8D
:10126C00584B9A4203D95648DD2100F0E9FA6B68D5
:10127C00002B0AD080225201934206D0524A93424C
:10128C0003D04F48DE2100F0DBFAAB68002B0BD00B
:10129C0080229201934207D0C0229201934203D044
:1012AC004748DF2100F0CCFAEB68002B0BD08022F2
:1012BC00D200934207D0C022D200934203D04048C0
:1012CC00E02100F0BDFA2B690C22191C914301D1CD
:1012DC00002B03D13A48E12100F0B2FA6B69002BE4
:1012EC000FD08022520093420BD080229200934266
:1012FC0007D0C0229200934203D03148E22100F083
:10130C009FFA236801229343236062682F4B13409A
:10131C00AA681343636022682D4B1A406B68E96816
:10132C000B4329690B4313432360A268294B1340D9
:10133C006A691343A36001A8FFF7BCFC1C4B9C42D9
:10134C0001D1079F05E01B4B9C4201D1089F00E097
:10135C00039F236819040CD57F00B8462F684046BC
:10136C00391C02F0BFFD061C4046391C02F0FEFD84
:10137C000AE02A689046381C111C02F0B3FD061CCA
:10138C00381C414602F0F2FD2A68520800239142B3
:10139C005B41F6182368190404D533075B0F0E4A1A
:1013AC0016401E43B6B2A6810AB004BC9046F0BDEE
:1013BC00003801400044004000480040004C004010
:1013CC00304300087F8D5B0000100010FFCFFFFF43
:1013DC00F3E9FFFFFFFCFFFFF0FF000038B5041C32
:1013EC000D1C124B98420DD0114B98420AD0114B48
:1013FC00984207D0104B984204D01048C82149009D
:10140C0000F01EFA012D04D90C489221FF3100F096
:10141C0017FA002D04D0226801231343236003E044
:10142C00236801229343236038BDC0460038014035
:10143C000044004000480040004C0040304300088D
:10144C0038B5041C0D1C0D4B98420CD00C4B98421B
:10145C0009D00C4B984206D00B4B984203D00B484A
:10146C000B4900F0EDF90B4B9D4203D907480A4993
:10147C0000F0E6F9ED05ED0D258538BD003801408D
:10148C000044004000480040004C0040304300083D
:10149C0095030000FF0100009603000010B5041C2A
:1014AC00094B98420CD0094B984209D0084B9842F2
:1014BC0006D0084B984203D00748084900F0C0F901
:1014CC00A08CC005C00D10BD003801400044004088
:1014DC0000480040004C004030430008A6030000C8
:1014EC0070B5051C0C1C161C2C4B98420CD02C4BAC
:1014FC00984209D02B4B984206D02B4B984203D0E4
:10150C002A482B4900F09CF984235B009C4225D08F
:10151C00284B9C4222D0284B9C421FD0274B9C42EC
:10152C001CD0274B9C4219D0264B9C4216D0264BE4
:10153C009C4213D0C0239B009C420FD0234B9C4257
:10154C000CD0234B9C4209D0224B9C4206D0224B00
:10155C009C4203D01548214900F072F9012E03D9A1
:10156C0012481F4900F06CF92B1CA2B2120AFF2181
:10157C000C400121A1400C1C022A01D12B1D03E0BF
:10158C00032A01D12B1C0833002E03D01A681443F4
:10159C001C6002E01A68A2431A6070BD003801405A
:1015AC000044004000480040004C0040304300081C
:1015BC0005070000070107000601060005010500EC
:1015CC0004010400060208000A0309001A010B00BA
:1015DC001B010C000E01110016031400060700007D
:1015EC000707000038B5051C0C1C314B98420CD079
:1015FC00304B984209D0304B984206D02F4B984232
:10160C0003D02F482F4900F01BF9012C49D0802C16
:10161C0047D0402C45D0202C43D0102C41D08023D7
:10162C005B009C423DD080239B009C4239D0082C0F
:10163C0037D0042C35D0022C33D08023DB009C42D5
:10164C002FD080231B019C422BD080235B019C421A
:10165C0027D08023DB019C4223D080231B029C4299
:10166C001FD080235B029C421BD080239B029C4298
:10167C0017D08023DB029C4213D080231B039C4297
:10168C000FD080235B039C420BD080239B039C4296
:10169C0007D08023DB039C4203D009480A4900F0A1
:1016AC00CFF8E8690440201C441EA04138BDC04658
:1016BC00003801400044004000480040004C00400D
:1016CC0030430008930700009407000038B5051C50
:1016DC000C1C2F4B98420CD02E4B984209D02E4B01
:1016EC00984206D02D4B984203D02D482D4900F03E
:1016FC00A7F884235B009C422AD02B4B9C4227D01A
:10170C002A4B9C4224D02A4B9C4221D0294B9C42F0
:10171C001ED0294B9C421BD0284B9C4218D0284BE6
:10172C009C4215D0274B9C4212D0274B9C420FD089
:10173C00264B9C420CD0264B9C4209D0254B9C42FC
:10174C0006D0254B9C4203D01548244900F078F86C
:10175C00A3B21B0AFF222240012191400A1C012B3B
:10176C0002D129680A4006E0022B02D169680A40BE
:10177C0001E0A9680A40240C0123A3401C1CEB695E
:10178C001C400020002A02D0201C441EA04138BD61
:10179C00003801400044004000480040004C00402C
:1017AC0030430008E60700000701070006010600A9
:1017BC000501050004010400060208000A030900E3
:1017CC000003030000030200000301001A010B00D8
:1017DC001B010C000E01110016031400E70700009A
:1017EC00FEE7C04608B50120FFF7FAFF08B50D4B20
:1017FC001B68002B02D10C4A0A4B1A60094B1B6860
:10180C000330032290431818084A904206D902F07C
:10181C00B9FB0C2303600120404202E0014A106036
:10182C00181C08BD90000020B00C0020001C0020EB
:10183C0001230360014B0B607047C046140000206D
:10184C0008B5FFF7CFFFC04608B500F05BF808BD40
:10185C0082B0002301930093274B19688022520217
:10186C000A431A60191C80229202A020C0010B6846
:10187C0013400093019B01330193009B002B02D179
:10188C00019B8342F3D11C4B1B689A0302D50123A5
:10189C00009301E000230093009B012B2AD111221D
:1018AC00164B1A60144B5A685A605A685A60596839
:1018BC00134A0A405A605968882252030A435A60F4
:1018CC001968802252040A431A60191C802292045F
:1018DC000B681342FCD0084B5A6803218A435A60A8
:1018EC00596802220A435A60191C0C224B68134097
:1018FC00082BFBD102B070470010024000200240C0
:10190C00FF7FC0FF08B5124B196801221143196003
:10191C00586810490140596018680F490140196016
:10192C0018680E490140196058680D49014059600A
:10193C00D96A0F208143D962186B0A490140196397
:10194C00596B9143596300229A60FFF781FF08BDE0
:10195C00001002400CB8FF08FFFFF6FEFFFFFBFF74
:10196C00FFFFC0FFACFEFFFF70B5041C0E1C002374
:10197C00037073238360081C02F0F4FB0130606079
:10198C0002F006FB051E02D10323237003E0311C79
:10199C0002F0E0FB2561201C70BDC04600230370E3
:1019AC006923836004234360016170470023037043
:1019BC006923836004234360016170470023037033
:1019CC0066238360042343600161704710B582B0C5
:1019DC006B460091019200220270742282600822F0
:1019EC004260021C103212CB12C202B010BDC046B3
:1019FC000021017008214160642181600261436112
:101A0C007047C046F0B54F464646C0B483B0071C7D
:101A1C00894690460023037062238360101C0430B7
:101A2C007860009201AD6C460334042304E0237803
:101A3C002B70331C0135013C5E1E002BF7DC019C26
:101A4C00009400280DDD02F0A3FA051E02D1032339
:101A5C003B7008E010C04946424602F0ADFA3D61C9
:101A6C0001E000233B61381C03B00CBC9046994646
:101A7C00F0BDC04610B5041C4368002B0BDD836819
:101A8C00732B03D1006902F08DFA04E0622B02D1B2
:101A9C00006902F087FA201C10BDC04602230370B7
:101AAC00816000234360704700238268692A00D15B
:101ABC000369181C7047C04610B5041C0020A368AD
:101ACC00622B08D16368934205DC081C21691A1C3F
:101ADC0002F072FA606810BD70B5431C0122825688
:101AEC000126212A01D1831C002670427041C0B20C
:101AFC0014E001241C572D2C0AD10C7852B265B27B
:101B0C00AA4203DC02229A5695420DDD033305E00E
:101B1C0052B200240C57A24208D001331A785D2A25
:101B2C0005D0002AE5D102E0301C00E0301C70BD6D
:101B3C0070B50E1C013013E0013400E0041C237856
:101B4C007D2B05D0002B03D02F2B01D02C2BF3D1C8
:101B5C00251A311C2A1C02F00CFB002809D0601C31
:101B6C0003787D2B07D0002B07D02F2BE6D100203C
:101B7C0004E0281C02E0002000E0002070BDC046FC
:101B8C0008B5031C02785D2A12D050B25D2805DC22
:101B9C0001203F2A27D05B2A05D01EE07B2A0FD0DC
:101BAC007D2A12D019E0181CFFF796FF1BE0013BB1
:101BBC0000229A565B2AFAD1181CFFF78DFF12E00F
:101BCC00181CFFF7B5FF0EE0013B00229A567B2A4A
:101BDC00FAD1181CFFF7ACFF05E050B20023CB562E
:101BEC00C01A4242504108BD70B5041C0D1C0B7844
:101BFC002F2B01D0002B0ED123782F2B2ED0012090
:101C0C00002B2ED000202A2B2BD160782F2827D008
:101C1C004342584125E006782A2E0BD10130FFF7BC
:101C2C00E3FF031C0120002B1BD1691C201CFFF7B8
:101C3C00DBFF16E0FFF7A4FF002812D05B2E03D0C9
:101C4C007B2E06D100E0013423785D2B01D07D2B57
:101C5C00F9D1601C691CFFF7C7FF02E0012000E00E
:101C6C00012070BDF0B557464E464546E0B480465F
:101C7C000F1C0B7800200A1C002B01D178E00132DC
:101C8C0013782F2B04D0002BF9D14446002008E008
:101C9C004446002005E05BB22A3B59424B41C01838
:101CAC00013423782F2B01D0002BF4D1013C551E8D
:101CBC00012815D002282BD054E0201C291CFFF73A
:101CCC005FFF002854D05D2E03D07D2E06D100E09E
:101CDC00013C23785B2B01D07B2BF9D1013C013DDE
:101CEC0026782A2EE9D1012042E0201C291CFFF77E
:101CFC0047FF00283CD05D2E03D07D2E06D100E09E
:101D0C00013C23785B2B01D07B2BF9D1013C013DAD
:101D1C0026782A2EE9D10135A946013CA2461DE0C0
:101D2C00544601235B4299444E4612E0201C311C60
:101D3C00FFF726FF00280FD05D2D03D07D2D06D197
:101D4C0000E0013C23785B2B01D07B2BF9D1013CCB
:101D5C00013E25782A2DE9D1444508D0B945DFD874
:101D6C00002005E04046391CFFF73EFF00E0012053
:101D7C001CBC90469946A246F0BDC046F0B55746ED
:101D8C004E464546E0B480460F1C9246994602F0FA
:101D9C00D7F900280BD1404602F0E4F95246106006
:101DAC00381C02F0DFF94B461860032064E0002376
:101DBC00524613604A4613603D1C444645E02A2EA9
:101DCC0014D1201C291CFFF74DFF002801D153E032
:101DDC00013423782F2B03D0002BF9D100E00135EF
:101DEC002B782F2B31D0002BF9D12EE02A2B0ED1B2
:101DFC0000E0013426782F2E03D0002EF9D100E01C
:101E0C0001352E782F2E20D0002EF9D11DE0201C6C
:101E1C00291CFFF7B5FE00282DD05B2E08D100E061
:101E2C0001340023E3565D2BFAD1013401350CE06B
:101E3C007B2E08D100E001340023E3567D2BFAD130
:101E4C0001342D1801E0013401352B78002B02D020
:101E5C002678002EB3D14246A31A52461360EF1BCC
:101E6C004B461F602878434258412378002B03D1FE
:101E7C000223184300E000201CBC90469946A24661
:101E8C00F0BDC04683688B4203DD43688900C858A7
:101E9C0002E00423037300207047C04600B583B0F2
:101EAC000068801801AA6B46FFF768FF03384342AD
:101EBC005841C0B203B000BD38B5041C151C1A1C27
:101ECC00FFF7ECFF0023002802D0201CA8470123B9
:101EDC00181C38BD70B5051C0E1C006802F062F8A9
:101EEC00301C02F03FF9013002F052F8041E04D10C
:101EFC0003232B7300232B6003E0311C02F02AF91F
:101F0C002C6070BD70B5051C067B731E9E41F6B22D
:101F1C00002408E0281C211CFFF7B4FF03785A1E8C
:101F2C0093411E430134AB68A342F3DC301C70BDFB
:101F3C0038B5041CFFF7A6FF051C201CFFF7E2FFB9
:101F4C00021C0020002A02D1281CFFF7ADFD38BD71
:101F5C00F8B5041C171C1D1CFFF794FF061C201C55
:101F6C00FFF7D0FF0024002809D17368AB4200DCD6
:101F7C001D1C301C391C2A1CFFF79EFD041C201C48
:101F8C00F8BDC04638B5041CFFF77CFF051C201CAF
:101F9C00FFF7B8FF0023002800D12B7A58B238BDC8
:101FAC0070B5041C151CFFF76DFF061C201CFFF7F9
:101FBC00A9FF011C0020002904D1B3685B1B5D4202
:101FCC006B41D8B270BDC04608B56922FFF7E8FF77
:101FDC0008BDC04608B56222FFF7E2FF08BDC04647
:101FEC00F0B54F464646C0B485B0061C0C1C081C08
:101FFC0000F054FC301CFFF785FF002800D0B6E041
:10200C003768381C02F0AEF8421C03258543201CAF
:10201C00391C00F059FC04E0201C002100F04CFCA1
:10202C003D1C6F1E002DF7D1201C2C2100F044FC10
:10203C0008E0301C291CFFF7A5FFC1B2201C00F0E2
:10204C003BFC0135B268AA42F3DC0323934306D16F
:10205C00042304E0201C002100F02EFC2B1C5D1E30
:10206C00002BF7D10027032291460423984678E0F1
:10207C00301C391CFFF706FF051C8368732B01D03D
:10208C00622B12D1201C29696A6800F01DFC6B6858
:10209C005B424A46134004E0201C002100F00CFC7B
:1020AC002B1C5D1E002BF7D15AE0642B11D117307D
:1020BC0002AA082304E0037813700B1C01320138C8
:1020CC00591E002BF7DC201C02A9082200F0FCFB97
:1020DC0046E0742B2ED1011C103102A8082201F00D
:1020EC006BFF01A96A460B32434604E013780B7070
:1020FC00031C0131013A581E002BF7DC019B0093A5
:10210C00201C6946424600F0DFFB01A96A460F32EB
:10211C00434604E013780B70031C0131013A581E3E
:10212C00002BF7DC019A0092201C6946424600F015
:10213C00CBFB15E0542B13D0462B11D0011C1331C3
:10214C0002AA434604E00B781370031C01320139D8
:10215C00581E002BF7DC6A68201C02A900F0B4FBA7
:10216C000137B368BB4283DC201C00F09DFB05B03B
:10217C000CBC90469946F0BD70B5041CCEB218202C
:10218C0001F09CFE051C71B2FFF788FC2B78032B29
:10219C0001D1237311E0A16801318900606801F05D
:1021AC00B1FF002802D10323237306E06060A2680C
:1021BC009300C550A3680133A36070BD38B5041CEF
:1021CC000D1C8269002A08DD43695A1C42610269B0
:1021DC00D1548369013B836110E04169113100697D
:1021EC0001F090FF2061002806D063695A1C6261DF
:1021FC00C5541023A36101E00323237338BDC046EB
:10220C0010B5041C0069102101F07CFF206100282E
:10221C0002D01023A36103E0032323730023236163
:10222C000023636110BDC04638B5041C0025056051
:10223C00856005734560056145618561FFF7E0FFC9
:10224C00657338BD38B5041C0D1CFFF7EDFF201C61
:10225C00291CFFF73FFE201C38BDC04610B5041CDE
:10226C00FFF7E2FF02232373201C10BD70B5061C80
:10227C000023037300240BE0301C211CFFF702FE2B
:10228C00051E04D0FFF7F6FB281C01F011FE0134EB
:10229C00B368A342F0DC706801F084FE0023736025
:1022AC00B3607373301CFFF7ABFF70BD10B5041C2B
:1022BC00006801F077FE201CFFF7D8FF206901F0C1
:1022CC0071FE201C10BDC04610B5041C2169FFF71F
:1022DC0001FE00232373201CFFF792FF10BDC046A4
:1022EC00F0B5474680B48AB0071C0C1C00265FE290
:1022FC00381C311CFFF7C6FD0378022B00D056E2C8
:10230C008368623B122B00D956E29B00CB4AD35810
:10231C009F467A69042A00D04EE202A8396901F07E
:10232C004BFE04A96A460B32042304E013780B70AD
:10233C00031C0131013A581E002BF7DC049DBB68CD
:10234C009E421ADA381C311CFFF79CFD041E04D087
:10235C00FFF790FB201C01F0ABFD182001F0AEFD47
:10236C00041C291CFFF71AFB2378032B01D13B73A8
:10237C0026E0B6007B689C5122E09E421ED11820BC
:10238C0001F09CFD041C291CFFF708FB2378032B90
:10239C0001D13B7314E0B96801318900786801F010
:1023AC00B1FE002802D103233B7309E07860BA68C0
:1023BC009300C450BB680133BB6001E004233B7342
:1023CC00381CFFF71DFFF7E17B69042B00D0F3E10C
:1023DC0002A83969042201F0EFFD04A96A460B3208
:1023EC00042304E013780B70031C0131013A581ECE
:1023FC00002BF7DC049DBB689E421ADA381C311C9A
:10240C00FFF740FD041E04D0FFF734FB201C01F045
:10241C004FFD182001F052FD041C291CFFF7CEFAC9
:10242C002378032B01D13B7326E0B6007A689451D4
:10243C0022E09E421ED1182001F040FD041C291CF4
:10244C00FFF7BCFA2378032B01D13B7314E0B96876
:10245C0001318900786801F055FE002802D1032370
:10246C003B7309E07860BA689300C450BB680133D1
:10247C00BB6001E004233B73381CFFF7C1FE9BE1FA
:10248C007B69082B00D097E102A83969082201F07A
:10249C0093FD04A96A460F32082304E013780B70ED
:1024AC00031C0131013A581E002BF7DC049C059DDE
:1024BC00BB689E421EDA381C311CFFF7E3FC8046D9
:1024CC00002804D0FFF7D6FA404601F0F1FC1820A2
:1024DC0001F0F4FC8046221C2B1CFFF789FA4246C3
:1024EC001378032B01D13B7328E0B60042467B687E
:1024FC009A5123E09E421FD1182001F0DFFC061CEC
:10250C00221C2B1CFFF774FA3378032B01D13B737D
:10251C0014E0B96801318900786801F0F3FD0028F6
:10252C0002D103233B7309E07860BA689300C6506C
:10253C00BB680133BB6001E004233B73381CFFF71D
:10254C005FFE39E17B69082B00D035E168463969BB
:10255C00082201F031FD04A96A460332042304E089
:10256C0013780B70031C0131013A581E002BF7DC59
:10257C00049A009204A96A460732042304E01378F3
:10258C000B70031C0131013A581E002BF7DC049B25
:10259C00019302A86946082201F00EFDBB689E4219
:1025AC0020DA381C311CFFF76DFC041E04D0FFF739
:1025BC0061FA201C01F07CFC06A802A9082201F09B
:1025CC00FBFC182001F07AFC041C0699079AFFF713
:1025DC00FDF92378032B01D13B7333E0B6007A6805
:1025EC0094512FE09E422BD104A802A9082201F09D
:1025FC00E3FC08A804A9082201F0DEFC182001F075
:10260C005DFC041C0899099AFFF7E0F92378032B69
:10261C0001D13B7316E0B96801318900786801F08B
:10262C0071FD002802D103233B730BE07860BA687C
:10263C009300C450BB680133BB6003E064430008E3
:10264C0004233B73381CFFF7DBFDB5E0002C00D0F6
:10265C00B2E03D69BB689E421ADA381C311CFFF7A8
:10266C0011FC041E04D0FFF705FA201C01F020FC1D
:10267C00182001F023FC041C291CFFF775F92378A2
:10268C00032B01D13B7326E0B6007B689C5122E002
:10269C009E421ED1182001F011FC041C291CFFF7CE
:1026AC0063F92378032B01D13B7314E0B968013132
:1026BC008900786801F026FD002802D103233B73C2
:1026CC0009E07860BA689300C450BB680133BB6002
:1026DC0001E004233B73381CFFF792FD06237B7348
:1026EC006AE07D69042D67DD3B69984602A8191CD8
:1026FC00042201F061FC04A86A460B32042304E0B6
:10270C0013780370231C0130013A5C1E002BF7DC9C
:10271C00049C231D9D424FD104229044BB689E42D1
:10272C001BDA381C311CFFF7ADFB051E04D0FFF77C
:10273C00A1F9281C01F0BCFB182001F0BFFB051C03
:10274C004146221CFFF75EF92B78032B01D13B731A
:10275C0027E0B6007B689D5123E09E421FD11820D4
:10276C0001F0ACFB051C4146221CFFF74BF92B7802
:10277C00032B01D13B7314E0B968013189007868EF
:10278C0001F0C0FC002802D103233B7309E0786000
:10279C00BA689300C550BB680133BB6001E00423E9
:1027AC003B73381CFFF72CFD06237B7304E00136CA
:1027BC00BB68B34200DD9BE50AB004BC9046F0BD9B
:1027CC0038B5041C0D1CFFF7F9FC637B062B53D8A2
:1027DC009B002A4AD3589F462F2D4DD1012363735A
:1027EC004AE0002D48D1201CFFF76EFD02236373D5
:1027FC0042E02C2D40D103236373201CFFF700FD16
:10280C003AE0002D04D0201C291CFFF7B5FC01E098
:10281C0004236373A2680323934300D104239B18FE
:10282C006169994228D1201CFFF7EAFC05236373E8
:10283C0022E0201C291CFFF753FD1DE0A568013D7B
:10284C0018E0201C291CFFF71DFB0378002B10D16E
:10285C0043685B420322134002D1052363730BE0F0
:10286C0062699A4208D1201CFFF7CAFC05236373E6
:10287C0002E0013D002DE4DA38BDC046B04300084B
:10288C0070B5061C06E04D1C0978301CFFF798FF4C
:10289C00221C291C541E002AF5D170BD0022802355
:1028AC005B00C2547047C04680235B00C25C0223AD
:1028BC00FF33C2547047C04680235B00C25C815416
:1028CC000132C2547047C04670B5061C06E04D1C60
:1028DC000978301CFFF7F0FF221C291C541E002A1B
:1028EC00F5D170BDF0B5474680B482B08020C002EF
:1028FC000121FEF7ADFA80263601009601229046A2
:10290C006B461A7100259D7103275F71DD71144CA4
:10291C00201C6946FDF7F6FF201C311CFEF712F94E
:10292C00B0231B01009342466B461A719D715F7177
:10293C00DD71201C6946FDF7E5FF201C8021490054
:10294C00FEF7D0F8201C80218900FEF7CBF8201C64
:10295C00311CFEF7C7F802B004BC9046F0BDC0466F
:10296C0000040048012303700023044A8350812291
:10297C0092008350C32292008350704714050000CC
:10298C0010B5C0290CD18121890043585A1CC31899
:10299C00DB245C70531C43508018DC23437015E01F
:1029AC00DB290CD18121890043585A1CC318DB2424
:1029BC005C70531C43508018DD23437006E0812269
:1029CC00920083585C1C8450C018417010BDC046E6
:1029DC00F0B5474680B40024C3239B00C4500023A9
:1029EC00C326B600DB24A446C025A84629E0CC1893
:1029FC002578DB2D1BD15C1C0C192578DC2D08D11E
:102A0C0085596F1C875145198227BF00ED19474620
:102A1C002F712478DD2C08D18459651C855104193B
:102A2C008225AD00641967462771023309E0855988
:102A3C006F1C8751247845198227BF00ED192C7122
:102A4C0001339342D3DBC3239B00C258C4239B00A6
:102A5C00C25004BC9046F0BDF8B5041C214E224D6A
:102A6C00371C39E05A1C2149C95CFF2313403B80B9
:102A7C002378012B0CD1C02901D123702CE0012229
:102A8C001B4BE250C5239B00E1540223237023E02F
:102A9C00022B21D1164BE258FF2A07D901232370B0
:102AAC00144880218900FEF74DF815E0C02909D1A2
:102ABC0001232370C5239B00E118201CFFF788FF1E
:102ACC0001200EE0501C0A4BE050A218C4239B00BE
:102ADC00D21811710223237033882A889342C1D1F2
:102AEC000020F8BD8E07002090070020AC0B0020C2
:102AFC001405000000040048012281239B00C250F1
:102B0C00C02343707047C046812189004258531C32
:102B1C0043508218C021517082229200835070471A
:102B2C00F0B5474680B480460D1C141CFFF7E4FF3B
:102B3C0006E06F1C29784046FFF722FF341C3D1C31
:102B4C00661E002CF5D14046FFF7DEFF04BC904614
:102B5C00F0BDC04670B5051CFFF7E2FF00248226CD
:102B6C00B60004E02B19587801F076F90134A85915
:102B7C00A042F7D870BDC0467047C0467047C046EB
:102B8C0008B50C4B18680C4901F0ACF901380B4B2B
:102B9C0098420DD80A4B58600A4A106A0002000A83
:102BAC00C02109060143116200229A6007221A60B3
:102BBC0008BDC0461C00002010270000FFFFFF00CE
:102BCC0010E000E000ED00E00022014B1A607047BD
:102BDC00A8070020034B18601A1C1368002BFCD1AB
:102BEC007047C046A4070020064B1B68002B03D07F
:102BFC00044B1A68013A1A60034B1A6801321A60C6
:102C0C007047C046A4070020A807002008B5FFF7AE
:102C1C00EBFF08BD38B5041C524880210901FDF7B3
:102C2C0061FF201C0021FFF7CFF9002800D198E0AC
:102C3C00201C0021FFF77CF9C3175B0FC018072479
:102C4C000440E41A0FD1474D281C80218900FDF760
:102C5C0049FF281C80210901FDF744FF281C802115
:102C6C004900FDF73FFF012C0FD13E4D281C802160
:102C7C008900FDF737FF281C80210901FDF732FF81
:102C8C00281C80214900FDF75DFF022C0FD1354D2A
:102C9C00281C80218900FDF725FF281C80210901B3
:102CAC00FDF750FF281C80214900FDF71BFF032C6A
:102CBC000FD12C4D281C80218900FDF713FF281CF7
:102CCC0080210901FDF73EFF281C80214900FDF7FA
:102CDC0039FF042C0FD1234D281C80218900FDF7CE
:102CEC0031FF281C80210901FDF7FCFE281C8021E6
:102CFC004900FDF7F7FE052C0FD11A4D281C802139
:102D0C008900FDF71FFF281C80210901FDF7EAFE51
:102D1C00281C80214900FDF715FF062C0FD1114D01
:102D2C00281C80218900FDF70DFF281C802109013A
:102D3C00FDF708FF281C80214900FDF7D3FE072C66
:102D4C000FD1084C201C80218900FDF7FBFE201CB4
:102D5C0080210901FDF7F6FE201C80214900FDF7BA
:102D6C00F1FE38BD0004004870B5A2B0041C00216F
:102D7C00FFF72AF90025002805D0201C0021FFF7B9
:102D8C00D7F807250540201C0121FFF723F900285F
:102D9C0005D0201C012101AA8423FFF7D9F80023B8
:102DAC00EE01084806E09A19191D01AC615C8154CA
:102DBC000133DBB25AB2002AF5DA281C00F0C2FF4C
:102DCC0022B070BDAC070020F0B589B03D4C201C82
:102DDC00FDF70EFA802080020121FEF739F88020E1
:102DEC00C0020121FEF734F8802000030121FEF718
:102DFC002FF88027BF00381C0121FEF751F8302333
:102E0C00009303256B461D710026DE712E48694622
:102E1C00FDF778FD00956B461D71DE712B486946F8
:102E2C00FDF770FD102300936B461D71DE71902031
:102E3C00C0056946FDF766FD02AD281CFDF760FA7A
:102E4C000823029301232B71AE602E6104236B6166
:102E5C00201C291CFDF7E8F9201C8021C901052242
:102E6C00FDF776FA201C802109020522FDF770FA85
:102E7C00201C10210522FDF76BFA201C8021490033
:102E8C000522FDF765FA201C391C0522FDF760FAB6
:102E9C00201CFDF785FA201C0221FDF7DFFA201C0F
:102EAC000121FDF7B7FA201C0121FDF731FA201C96
:102EBC000121FDF7EBFA0028F9D00248FDF796FA4C
:102ECC0009B0F0BD0024014000080048000400488F
:102EDC0010B58CB001200121FDF7BAFF114C201C5C
:102EEC00FDF71AFB104B0193104B02930023039335
:102EFC0005220492059380220692520007928022AA
:102F0C00D200089220220992802292010A920B93FD
:102F1C00201C01A9FDF77CFB201C0121FDF72CFCDA
:102F2C000CB010BD0800024040240140780700207E
:102F3C0038B5041C0D1C012808D1094B994205D148
:102F4C000848FFF70FFD0848FFF716FE002C05D1C7
:102F5C00034B9D4202D10448FFF710FE38BDC0461A
:102F6C00FFFF0000440200203C020020F0B5474661
:102F7C0080B488B001A82349FFF764F9FFF724FE59
:102F8C000024214F0322904623E0A300DE59182091
:102F9C0000F094FF051C311CFEF700FD2B78032B71
:102FAC0003D101AB42461A7312E002980399013126
:102FBC00890001F0A7F8002803D101AB42461A732F
:102FCC0006E00290039A9300C550039B01330393D0
:102FDC000134042CD9D90D4C01A8211CFFF700F8A1
:102FEC000223FF33E25C0A48211C0A4BFFF7B2FDB7
:102FFC0001A8FFF73BF901A8FFF758F908B004BC8A
:10300C009046F0BDCC430008A001002098000020A1
:10301C00440200203C02002010B500280ED14A4C7E
:10302C00201C4021FDF78EFD201C8021FDF78AFD20
:10303C00201C80214900FDF785FD84E001280ED17C
:10304C00414C201C4021FDF74DFD201C8021FDF73B
:10305C0079FD201C80214900FDF774FD73E00228E6
:10306C000ED1394C201C4021FDF76CFD201C802119
:10307C00FDF738FD201C80214900FDF763FD62E05F
:10308C0003280ED1304C201C4021FDF72BFD201CB9
:10309C008021FDF727FD201C80214900FDF752FD02
:1030AC0051E004280ED1284C201C4021FDF74AFD8C
:1030BC00201C8021FDF746FD201C80214900FDF7D6
:1030CC0011FD40E005280ED11F4C201C4021FDF7BE
:1030DC0009FD201C8021FDF735FD201C80214900B5
:1030EC00FDF700FD2FE006280ED1174C201C4021C7
:1030FC00FDF728FD201C8021FDF7F4FC201C80210D
:10310C004900FDF7EFFC1EE007280ED10E4C201CE9
:10311C004021FDF7E7FC201C8021FDF7E3FC201C7F
:10312C0080214900FDF7DEFC0DE0074C201C4021FE
:10313C00FDF708FD201C8021FDF704FD201C8021DB
:10314C004900FDF7FFFC10BD0008004810B5264BE8
:10315C001B68002B08D1254C2068FFF75DFF236806
:10316C0001330722134023601F4B1B68022B30D105
:10317C001F480821FDF754FC0023002800D06423CD
:10318C001C4A1370194B1C68013419480421FDF7B3
:10319C0047FC0023002800D06423164A1355134B18
:1031AC001C68093412480221FDF73AFC0023002860
:1031BC0000D064230F4A13550C4B1C6811340C4877
:1031CC000121FDF72DFC0023002800D06423094ABF
:1031DC001355054C20680130032100F0C7FE216017
:1031EC00024B186810BDC046380200204002002077
:1031FC00000800485C07002008B50220FDF7FEFA25
:10320C0001280ED10220FDF76BFB064A1188064BF4
:10321C0019615188196091885960D188D9601289D7
:10322C009A6008BD78070020A001002070B52048E6
:10323C000168204B1D78204C8A0052189600921978
:10324C001555DD7DA21855705C7D94705C7CD47036
:10325C009C7C14711C7E54719C7D9471DC7CD471AB
:10326C001C7D14725C7B5472DC7B94729C7AD472DD
:10327C005C7A14731C7C5473DC7A94739C7BD473CB
:10328C001C7B14745C795474DC7994749C78D474BD
:10329C005C7814751C7954751C7A9475DC78D4752B
:1032AC009B791376013103231940016070BDC04630
:1032BC00180200205C070020B4010020F0B547463E
:1032CC0080B488B000247E4D2E1C2F1CF1E02B5DA9
:1032DC00002B73D033195B7E002B6FD03B1932332C
:1032EC001B78002B6AD0764B1B194B331B78002BA9
:1032FC0064D0744B1B5D002B60D101A87249FEF7A2
:10330C00A1FF182000F0DAFD8046211CFEF746FBD9
:10331C0041460B78032B03D1032201AB1A7313E044
:10332C00029803990131890000F0ECFE002803D1CA
:10333C00032201AB1A7307E00290039A93004146F3
:10334C00C150039B01330393182000F0B7FD804656
:10335C006421FEF723FB42461378032B03D103228F
:10336C0001AB1A7313E0029803990131890000F044
:10337C00C9FE002803D1032201AB1A7307E00290A7
:10338C0003998B004246C250039B013303934F4B6E
:10339C00984601A8191CFEF723FE0223FF33414671
:1033AC00CA5C4B484B4BFFF7D5FB01A8FEF75EFF01
:1033BC006422444B1A5501A8FEF778FF404B1B5D65
:1033CC00002B75D13E4B1B195B7E002B70D13C4BF7
:1033DC001B1932331B78002B6AD1394B1B194B3319
:1033EC001B78002B64D1374B1B5D002B60D001A8E0
:1033FC003549FEF727FF182000F060FD8046211CA0
:10340C00FEF7CCFA42461378032B03D1032201AB0F
:10341C001A7313E0029803990131890000F072FECF
:10342C00002803D1032201AB1A7307E00290039921
:10343C008B004246C250039B01330393182000F0CB
:10344C003DFD80460021FEF7A9FA41460B78032B7F
:10345C0003D1032201AB1A7313E0029803990131D3
:10346C00890000F04FFE002803D1032201AB1A7330
:10347C0007E00290039A93004146C150039B01332D
:10348C000393124A904601A8111CFEF7A9FD0223D2
:10349C00FF334146CA5C0E480E4BFFF75BFB01A89D
:1034AC00FEF7E4FE0022074B1A5501A8FEF7FEFEBC
:1034BC000134182C00D80AE708B004BC9046F0BDC3
:1034CC00B40100201C020020D44300089800002006
:1034DC00440200203C02002008B5FFF7A7FEFFF7CE
:1034EC00EDFE08BD70B588B09D488021C901FDF77F
:1034FC0097FA041C601E8441994880210902FDF74B
:10350C008FFA002801D002231C43964B1B789C4257
:10351C0000D1BBE0002B59D101A89349FEF792FED4
:10352C00022C20D1182000F0C9FC051C0021FEF74C
:10353C003DFA2B78032B03D1032201AB1A7312E053
:10354C00029803990131890000F0DCFD002803D1B9
:10355C00032201AB1A7306E00290039A9300C55044
:10356C00039B01330393012C20D1182000F0A6FCFF
:10357C00051C0121FEF71AFA2B78032B03D1032229
:10358C0001AB1A7312E0029803990131890000F023
:10359C00B9FD002803D1032201AB1A7306E0029097
:1035AC00039A9300C550039B013303936F4D01A8FD
:1035BC00291CFEF715FD0223FF33EA5C6C48291C1D
:1035CC006C4BFFF7C7FA01A8FEF770FE654B1B7832
:1035DC00032B59D101A86449FEF734FE012C20D1EC
:1035EC00182000F06BFC051C0021FEF7DFF92B788E
:1035FC00032B03D1032201AB1A7312E00298039937
:10360C000131890000F07EFD002803D1032201ABBB
:10361C001A7306E00290039A9300C550039B013382
:10362C000393022C20D1182000F048FC051C01212A
:10363C00FEF7BCF92B78032B03D1032201AB1A73D1
:10364C0012E0029803990131890000F05BFD00281B
:10365C0003D1032201AB1A7306E00290039A930084
:10366C00C550039B01330393404D01A8291CFEF761
:10367C00B7FC0223FF33EA5C3D48291C3D4BFFF7A6
:10368C0069FA01A8FEF712FE364B1C7034488021F3
:10369C008901FDF7C5F9051C041C374B1B789842B2
:1036AC005BD001A83549FEF7CDFD002D20D11820A7
:1036BC0000F004FC061C0021FEF778F93378032B8C
:1036CC0003D1032201AB1A7312E002980399013162
:1036DC00890000F017FD002803D1032201AB1A73F7
:1036EC0006E00290039A9300C650039B01330393A8
:1036FC00012C20D1182000F0E1FB041C0121FEF765
:10370C0055F92378032B03D1032201AB1A7312E072
:10371C00029803990131890000F0F4FC002803D1D0
:10372C00032201AB1A7306E00290039A9300C45073
:10373C00039B013303930D4C01A8211CFEF750FC95
:10374C000223FF33E25C0A48211C0A4BFFF702FA02
:10375C00094B1D7001A8FEF7A9FD08B070BDC0464D
:10376C00000400488C070020DC430008980000206F
:10377C00440200203C02002020000020E44300080A
:10378C00F0B54F464646C0B48BB0FFF71DFBFFF7B4
:10379C009FFB802000030121FDF75AFB01ACE023C5
:1037AC005B000193012525710027A7710323637129
:1037BC00E771644E301C211CFDF7A4F8301C40212D
:1037CC00FDF7C0F9301C8021FDF78CF980235B00DC
:1037DC009846301C191CFDF785F98023DB029946AD
:1037EC00181C0121FDF734FBE0231B020193277108
:1037FC00E571554D281C211CFDF784F84846012124
:10380C00FDF726FB0F23019327710223E371301C74
:10381C00211CFDF777F803A8FEF720FD00F0D2FA83
:10382C00FFF760F880242401281C211CFDF75AF9AD
:10383C00281C211CFDF786F9FFF7A2F9002000F0E7
:10384C00C9F949200021002200F038F94F2030211D
:10385C00002200F033F900F045FA281C8021890081
:10386C00FDF740F9281C211CFDF73CF9281C4146AA
:10387C00FDF738F9FFF7A8F9344C251C83239B007E
:10388C00E618201C3249FFF7E7F80028F9D0C423CA
:10389C009B00EA5803A8311CFEF7F2FF03A8FEF7C1
:1038AC0031FB002813D103A82A490022FEF7F6FAAF
:1038BC00002808D003A8FEF7D9FC244C251C832330
:1038CC009B00E61807E003A8FEF7D0FCD9E703A895
:1038DC00FEF7CCFCD5E7201C1D49FFF7BDF80028EE
:1038EC0024D0C4239B00EA5803A8311CFEF7C8FF60
:1038FC0003A8FEF707FB002815D103A81649174AA1
:10390C000023FEF7D9FA03A81549164A0023FEF73F
:10391C00D3FA03A81449154A0023FEF7CDFA03A8DD
:10392C00FEF7A4FC02E003A8FEF7A0FCFFF70EFCD8
:10393C00002801D1FFF7D0FDFFF75EFCFFF7D2FDA9
:10394C00C9E7C046000800480004004844020020B3
:10395C003C020020EC430008F4430008212C000832
:10396C00FC430008752D000804440008792F00085A
:10397C0008B501200149FFF7DBFA08BDFFFF000085
:10398C0008B500200149FFF7D3FA08BDFFFF00007E
:10399C00F0B55F4656464D464446F0B489B0802398
:1039AC009B029B46181C0121FDF752FA8020400116
:1039BC000121FDF775FA06ACA023069302232371AF
:1039CC000026A671032399466371E6719025ED05D7
:1039DC00281C211CFCF796FF281C05210022FDF752
:1039EC00E1F8281C07210022FDF7DCF801A9224B85
:1039FC000B8082235B004B80E023DB009A468B809C
:103A0C0000239846CE800E818027BF004F81102363
:103A1C008B81CE8107230B82184E301CFDF7B8FA30
:103A2C00301C0121FDF78EFB58460121FDF710FAE1
:103A3C0053460693012323714346A3714B4663718E
:103A4C004346E371281C211CFCF75CFF281C8021D9
:103A5C004900FDF777F8281C391CFDF743F8281CA2
:103A6C008021C900FDF73EF809B03CBC9046994650
:103A7C00A246AB46F0BDC04600C0FFFF003001407F
:103A8C007047C0467F23194093065B0FDB01591822
:103A9C00094B5B5C002806D00720024001209040B7
:103AAC000343DAB205E00720024001209040834333
:103ABC001A1C014B5A547047AC070020F8B54F46FE
:103ACC004646C0B489469046002587003F18144EE0
:103ADC001FE07B19F35C2341DA0709D54B465919D2
:103AEC00C9B243461A19D2B20120FFF7CBFF08E046
:103AFC004A465119C9B243461A19D2B20020FFF7EF
:103B0C00C1FF0134E4B200E00024072CE1D90135F7
:103B1C00EDB2042DF8D905200CBC90469946F8BDA1
:103B2C001044000808B5002806D09020C00580215C
:103B3C00C900FCF7D7FF05E09020C0058021C90023
:103B4C00FDF700F808BDC04608B5002806D0902047
:103B5C00C00580218900FCF7C5FF05E09020C00559
:103B6C0080218900FCF7EEFF08BDC04608B500288F
:103B7C0006D09020C00580214900FCF7B3FF05E07A
:103B8C009020C00580214900FCF7DCFF08BDC04631
:103B9C0010B5011C0548FDF7FDFA044C201C8021D2
:103BAC00FDF710FB0028F9D110BDC04600300140D4
:103BBC0010B5041C0120FFF7B5FF0020FFF7C4FF70
:103BCC000020FFF7AFFF201CFFF7E2FF0120FFF7FB
:103BDC00A9FF10BD38B5051CFFF7DAFE00233F4ADC
:103BEC003F4C002102E0E15401339BB29342FAD9DD
:103BFC000120FFF7BBFF0520FEF7ECFF0020FFF7CD
:103C0C00B5FF0520FEF7E6FF0120FFF7AFFFAE2062
:103C1C00FFF7CEFF0020FFF7CBFF1020FFF7C8FF08
:103C2C004020FFF7C5FF8120FFF7C2FF012D03D114
:103C3C009F20FFF7BDFF02E0CF20FFF7B9FFA120C7
:103C4C00FFF7B6FFA620FFF7B3FFA420FFF7B0FFE6
:103C5C00A820FFF7ADFF3F20FFF7AAFFD320FFF707
:103C6C00A7FF0020FFF7A4FFD520FFF7A1FF8020BE
:103C7C00FFF79EFFD920FFF79BFF012D03D12220D8
:103C8C00FFF796FF02E0F120FFF792FFDA20FFF733
:103C9C008FFF1220FFF78CFFDB20FFF789FF4020FE
:103CAC00FFF786FF2020FFF783FF0020FFF780FF40
:103CBC00A120FFF77DFFC820FFF77AFF8D20FFF7CB
:103CCC0077FF012D03D11020FFF772FF02E01420C3
:103CDC00FFF76EFFAF20FFF76BFF38BDFF0300004F
:103CEC00AC070020F8B50020FFF762FF1020FFF7AB
:103CFC005FFF4020FFF75CFF0120FFF713FF01205F
:103D0C00FFF722FF0020FFF70DFF00250A4F0B4E97
:103D1C000B4C0BE0715D201CFDF73CFA201C802144
:103D2C00FDF750FA0028F9D10135ADB2BD42F1D9F9
:103D3C000120FFF7F7FEF8BDFF030000AC070020E1
:103D4C0000300140F8B5072707400020FFF730FF8F
:103D5C001020FFF72DFFB0203843FFF729FF154B3C
:103D6C001978013101220A401A700120FFF7DAFE9E
:103D7C000120FFF7E9FE0020FFF7D4FE0025FF012C
:103D8C000D4E0E4C0CE0EB19F15C201CFDF702FA09
:103D9C00201C8021FDF716FA0028F9D10135ADB2AF
:103DAC007F2DF0D98022064B1A700120FFF7BAFE46
:103DBC00F8BDC0468D070020AC0700200030014044
:103DCC009C010020F0B58BB08024A402201C0121A2
:103DDC00FDF73EF8201C0121FDF78AF89025ED0532
:103DEC00281C02210122FCF7DDFE281C03210122E4
:103DFC00FCF7D8FE02A90C27029703234B71022370
:103E0C000B7100248C710126CE71281CFCF77AFDF5
:103E1C000E4B0493059406940794099408970C4D43
:103E2C00281C04A9FDF704FA281C0A490122FDF7F5
:103E3C0057FB01A81C22027044708670FCF7FCFE34
:103E4C00281C0121FDF7CAFA0BB0F0BD20A1070018
:103E5C00004400400501050038B5051C054C201C2C
:103E6C008021FDF7BFFB0028F9D00248291CFDF783
:103E7C00E7FA38BD0044004038B509480949FDF758
:103E8C0025FC00280BD0084C25880548FDF706FBBF
:103E9C00064B585523880133FF221340238038BD2D
:103EAC00004400400501050090070020AC0B0020E9
:103EBC0008B5002801D000F075F808BD10B5041E37
:103ECC0002D1012400E09847201C00F061F8002882
:103EDC0005D1034B1B68002BF5D1FDF783FC10BDFE
:103EEC0094070020002934D00123002210B488420A
:103EFC002CD301242407A14204D2814202D209010D
:103F0C001B01F8E7E400A14204D2814202D249002D
:103F1C005B00F8E7884201D3401A1A434C08A042D0
:103F2C0002D3001B5C0822438C08A04202D3001B66
:103F3C009C082243CC08A04202D3001BDC0822437D
:103F4C00002803D01B0901D00909E3E7101C10BCA1
:103F5C007047002801D00020C04307B4024802A1DA
:103F6C004018029003BDC046190000000029F0D093
:103F7C0003B5FFF7B9FF0EBC4243891A1847C04678
:103F8C007047C046014B18687047C046840000203B
:103F9C0008B5034B011C186800F060F808BDC0465A
:103FAC008400002008B5034B011C186800F00EF8C3
:103FBC0008BDC0468400002010B50023934203D0F6
:103FCC00CC5CC4540133F9E710BD000030B50029B6
:103FDC0040D004390B68002B00DAC9181E4A13684C
:103FEC00141C002B02D14B60116033E099420FD2AC
:103FFC0008680A189A4205D113685268C0180860FC
:10400C004A6000E04B60216024E08A4203D8131C14
:10401C005A68002AF9D11D685C198C420BD10968C9
:10402C00691858181960904214D11468526809190B
:10403C0019605A600EE08C4202D90C23036009E02F
:10404C0008680C18944203D114685268001908606F
:10405C004A60596030BDC0469C07002070B50323F0
:10406C00CD1C9D430835061C0C2D01D20C2501E0FE
:10407C00002D3FDB8D423DD3204B1C681A1C211CAC
:10408C00002913D00868431B0DD40B2B02D90B60ED
:10409C00CC181EE08C4202D1636813601AE04868A9
:1040AC0060600C1C16E00C1C4968E9E7144C206895
:1040BC00002803D1301C00F031F82060301C291C82
:1040CC0000F02CF8431C15D0C41C03239C438442E1
:1040DC000AD12560201C0B300722231D9043C31AE4
:1040EC000BD05A42E25008E0211A301C00F016F8AE
:1040FC000130EED10C233360002070BD9C070020F2
:10410C009807002008B50A1C0349031C0868191CF1
:10411C0000F045F808BDC0468400002038B5074CB7
:10412C000023051C081C2360FDF760FB431C03D116
:10413C002368002B00D02B6038BDC046A0070020A0
:10414C0002780B7801300131002A01D09A42F7D065
:10415C00D01A7047031C0A7801311A700133002AF7
:10416C00F9D170470023C25C0133002AFBD1581EE1
:10417C007047031C002010B582420FD01C780878C1
:10418C00A04201D1012A03D118780B78C01A05E09E
:10419C00013A0028F8D001330131EFE710BDF8B532
:1041AC00061C0C1C151C002904D1111CFFF756FF12
:1041BC00041C18E0002A03D1FFF708FF2C1C12E0A6
:1041CC0000F013F8A8420ED2301C291CFFF746FF52
:1041DC00071E07D0211C2A1CFFF7EEFE301C211CE9
:1041EC00FFF7F4FE3C1C201CF8BD04390B68181FAB
:1041FC00002B02DAC8581B18181F70472E2E2F736D
:10420C00797374656D2F7372632F73746D333266AB
:10421C00302D7374647065726970682F73746D33AC
:10422C0032663078785F6164632E63002E2E2F73B4
:10423C00797374656D2F7372632F73746D3332667B
:10424C00302D7374647065726970682F73746D337C
:10425C0032663078785F646D612E63002E2E2F737A
:10426C00797374656D2F7372632F73746D3332664B
:10427C00302D7374647065726970682F73746D334C
:10428C0032663078785F6770696F2E6300000000CB
:10429C002E2E2F73797374656D2F7372632F737455
:1042AC006D333266302D7374647065726970682F6B
:1042BC0073746D3332663078785F6D6973632E6317
:1042CC00000000002E2E2F73797374656D2F73729E
:1042DC00632F73746D333266302D73746470657232
:1042EC006970682F73746D3332663078785F7263DF
:1042FC00632E63002E2E2F73797374656D2F73727A
:10430C00632F73746D333266302D73746470657201
:10431C006970682F73746D3332663078785F7370A0
:10432C00692E63002E2E2F73797374656D2F737243
:10433C00632F73746D333266302D737464706572D1
:10434C006970682F73746D3332663078785F75736B
:10435C006172742E63000000EE260008C42700086A
:10436C008C240008C4270008D4230008C4270008A4
:10437C00C42700081E230008C4270008C42700080F
:10438C00C4270008C4270008C4270008C427000855
:10439C00C4270008C4270008C427000858260008B2
:1043AC0050250008E4270008EE270008FE27000827
:1043BC000E280008202800083E280008482800087D
:1043CC002F6B6E6F627300002F6B6579000000001D
:1043DC002F656E63000000002F656E6362757400BC
:1043EC002F726561647900002F6C65640000000019
:1043FC002F6F6C65640000002F6765746B6E6F62C5
:10440C007300000000000000003E5B4F5B3E3E6B03
:10441C004F6B3E1C3E7C3E1C183C7E3C181C577D52
:10442C00571C1C5E7F5E1C00183C1800FFE7C3E79E
:10443C00FF0018241800FFE7DBE7FF30483A060EB0
:10444C002629792926407F050507407F05253F5AF7
:10445C003CE73C5A7F3E1C1C08081C1C3E7F142267
:10446C007F22145F5F005F5F06097F017F00668912
:10447C00956A606060606094A2FFA29408047E0458
:10448C000810207E201008082A1C08081C2A08087E
:10449C001E101010100C1E0C1E0C30383E3830063E
:1044AC000E3E0E06000000000000005F000000073A
:1044BC00000700147F147F14242A7F2A1223130868
:1044CC00646236495620500008070300001C224144
:1044DC00000041221C002A1C7F1C2A08083E0808E8
:1044EC000080703000080808080800006060002098
:1044FC00100804023E5149453E00427F400072497B
:10450C004949462141494D331814127F102745451E
:10451C0045393C4A49493141211109073649494934
:10452C0036464949291E00001400000040340000A2
:10453C00000814224114141414140041221408020B
:10454C00015909063E415D594E7C1211127C7F497E
:10455C004949363E414141227F4141413E7F4949D3
:10456C0049417F090909013E414151737F080808FF
:10457C007F00417F41002040413F017F08142241D0
:10458C007F404040407F021C027F7F0408107F3E2A
:10459C004141413E7F090909063E4151215E7F0997
:1045AC00192946264949493203017F01033F4040FE
:1045BC00403F1F2040201F3F4038403F63140814E9
:1045CC006303047804036159494D43007F41414121
:1045DC000204081020004141417F04020102044002
:1045EC0040404040000307080020545478407F2886
:1045FC004444383844444428384444287F3854547C
:10460C00541800087E090218A4A49C787F0804049E
:10461C007800447D40002040403D007F102844003D
:10462C0000417F40007C047804787C0804047838CE
:10463C0044444438FC1824241818242418FC7C08FE
:10464C00040408485454542404043F44243C40407B
:10465C00207C1C2040201C3C4030403C442810282E
:10466C00444C9090907C4464544C44000836410077
:10467C000000770000004136080002010204023CF1
:10468C002623263C1EA1A161123A4040207A3854C0
:10469C005455592155557941225454784221555439
:1046AC00784020545579400C1E527212395555558C
:1046BC0059395454545939555454580000457C4177
:1046CC000002457D420001457C407D1211127DF0B7
:1046DC00282528F07C545545002054547C547C0AE1
:1046EC00097F4932494949323A4444443A324A48AA
:1046FC0048303A4141217A3A42402078009DA0A0AE
:10470C007D3D4242423D3D4040403D3C24FF2424FF
:10471C00487E4943662B2FFC2F2BFF0929F620C01E
:10472C00887E090320545479410000447D4130486F
:10473C00484A32384040227A007A0A0A727D0D19B2
:10474C00317D2629292F28262929292630484D4014
:10475C0020380808080808080808382F10C8ACBA10
:10476C002F102834FA00007B000008142A1422228F
:10477C00142A1408AA005500AAAA55AA55AA000082
:10478C0000FF00101010FF00141414FF001010FF95
:10479C0000FF1010F010F0141414FC001414F700A7
:1047AC00FF0000FF00FF1414F404FC141417101F76
:1047BC0010101F101F1414141F00101010F0000004
:1047CC0000001F101010101F10101010F01000001F
:1047DC0000FF101010101010101010FF100000002F
:1047EC00FF140000FF00FF00001F10170000FC0466
:1047FC00F414141710171414F404F40000FF00F749
:10480C0014141414141414F700F7141414171410AB
:10481C00101F101F141414F4141010F010F00000DA
:10482C001F101F0000001F14000000FC140000F0FB
:10483C0010F01010FF10FF141414FF141010101FA0
:10484C0000000000F010FFFFFFFFFFF0F0F0F0F0B1
:10485C00FFFFFF0000000000FFFF0F0F0F0F0F38CE
:10486C0044443844FC4A4A4A347E02020606027E1C
:10487C00027E0263554941633844443C04407E2027
:10488C001E2006027E020299A5E7A5991C2A492A38
:10489C001C4C7201724C304A4D4D303048784830C7
:1048AC00BC625A463D3E494949007E0101017E2ABF
:1048BC002A2A2A2A44445F444440514A44404044F2
:1048CC004A51400000FF0103E080FF000008086B24
:1048DC006B083612362436060F090F06000018181E
:1048EC000000001010003040FF0101001F01011EEC
:1048FC0000191D1712003C3C3C3C0000000000005D
:02490C00430066
:10491000785634120000000001020304010203046F
:10492000060708099400002000000000006CDC026B
:104930000100000000000000000000000000000076
:104940000000000000000000000000000000000067
:10495000000000000C4900080000000000000000FA
:104960000000000000000000000000000000000047
:104970000000000000000000000000000000000037
:104980000000000000000000000000000000000027
:0C49900000000000240000203254769843
:04000005080000C52A
:00000001FF
