:020000040800F2
:1000000000200020D5010008DD010008E101000802
:1000100000000000000000000000000000000000E0
:10002000000000000000000000000000E5010008E2
:100030000000000000000000E9010008192300088A
:10004000F1010008F1010008F1010008F1010008C8
:10005000F1010008F1010008F1010008F1010008B8
:10006000F1010008F1010008F1010008F1010008A8
:10007000F1010008F1010008F1010008F101000898
:10008000F1010008F101000800000000F101000882
:10009000F1010008F1010008F1010008F101000878
:1000A000F1010008F1010008F1010008F101000868
:1000B0005128000800000000F101000800000000C5
:1000C0005FF808F130B583B0314B324A1360324AE1
:1000D0001360324B3249002201E01A6004338B4234
:1000E000FBD32C4B1B68002B03D12B4B1B68002B25
:1000F00000D0FEE7264B2B4A13602B4A13602B4B94
:100100002B4A2C4903E010681860043304328B42F8
:10011000F9D3244B1A68284B9A4204D1224B1A680F
:100120001B689A4200D0FEE700F0E8FF01A869468C
:1001300000F06AFF214B224DED1AAD10002404E0BF
:10014000A3001E4A9B5898470134A542F8DC1D4B7A
:100150001D4DED1AAD10002404E0A30019481B58F2
:1001600098470134A542F8DC0198009902F0A0F903
:10017000051C164B164CE41AA41004E0013CA30025
:10018000124A9B589847002CF8DC281C00F00EFF00
:10019000BABADECA88000020700100208800002062
:1001A00074010020000000208400002000000020D6
:1001B000C03400088800002078563412F40100088A
:1001C000F4010008F4010008F8010008F801000833
:1001D000F801000808B5FFF775FFC046FEE7C04606
:1001E000FEE7C046FEE7C046FEE7C046FEE7C04663
:0401F000FEE7C04620
:0401F40015270008C3
:1001F80038B5051C0C1C314B984203D03048A1215E
:1002080000F006FF2368002B09D0082B07D0102B1D
:1002180005D0182B03D02A48A22100F0F9FE237933
:10022800012B03D92648A32100F0F2FEA368002B76
:100238000FD08022D20093420BD080221201934229
:1002480007D0C0221201934203D01D48A42100F018
:10025800DFFEE368002B0DD0402B0BD0802B09D09C
:10026800C02B07D080225200934203D01448A52106
:1002780000F0CEFE2369002B05D0202B03D01048B8
:10028800A62100F0C5FE6369002B05D0042B03D01E
:100298000B48A72100F0BCFEEA680A4B1A402379F4
:1002A8005B0321680B43A1680B43E1680B43216999
:1002B8000B4361690B431343EB6038BD00240140D5
:1002C8004832000803D2FFFF38B5041C0D1C0C4B44
:1002D800984203D00B48E92100F09AFE012D03D97A
:1002E8000848EA2100F094FE002D04D0A2680123FA
:1002F8001343A36003E0A26802231343A36038BD3D
:10030800002401404832000870B5041C0D1C161C5E
:100318000D4B984203D00D480D4900F079FE002D91
:1003280001D0EB0C04D00948B421890000F070FE1C
:10033800072E03D90548074900F06AFEA36A1D4342
:10034800A562666170BDC0460024014048320008BD
:10035800CF020000D102000010B5041C0E4B9842D9
:1003680003D00E480E4900F053FEA26880231B06F6
:100378001343A3600023F0210902A268D20FD20719
:1003880001338B4201D0002AF7D1A368002B01DB8F
:10039800206C00E0002010BD002401404832000815
:1003A8003D03000010B5041C054B984203D00548D6
:1003B800054900F02DFEA26804231343A36010BD75
:1003C80000240140483200086F03000010B5041CE7
:1003D800054B984204D00548DF21890000F018FE3B
:1003E800206C80B210BDC04600240140483200088D
:1003F80038B5051C0C1C194B984203D018481949EC
:1004080000F006FE631E012B1CD9042C1AD0082C00
:1004180018D0802C16D0102C14D0134B9C4211D01D
:10042800124B9C420ED0124B9C420BD0114B9C425B
:1004380008D081231B069C4204D009488B21C9009F
:1004480000F0E6FDE30103D5A8680B4B184000E077
:1004580028680440201C441EA04138BD00240140E7
:1004680048320008570400000100000102000001A2
:100478000400000110000001FFFFFFFEF8B5051C95
:100488000E1C9023DB05984212D03D4B98420FD0AA
:100498003C4B98420CD03C4B984209D03B4B98427D
:1004A80006D03B4B984203D03A48B42100F0B0FD47
:1004B8003368002B03D13748B52100F0A9FD337903
:1004C800032B03D93348B62100F0A2FDF379022BA0
:1004D80003D93048B72100F09BFD002401274BE0E9
:1004E8003B1CA34032681A409A4244D13379013BFD
:1004F800012B28D87379012B05D9032B03D0254864
:10050800C72100F085FDAA686300032199408A434A
:10051800AA60AA68717999400B1C1343AB60B37940
:10052800012B03D91B48CE2100F072FDAA882304B1
:100538001B0C391C99408A43AA80AA88B179994032
:100548008BB21343AB80296863000322101C9840C8
:100558008143296028683179994001432960E96815
:100568002004C00B82409143E960EA68F179994020
:100578000B1C1343EB6001340F2CB1D9F8BDC046F6
:100588000004004800080048000C0048001000481B
:10059800001400487832000838B5041C0D1C90235C
:1005A800DB05984213D00E4B984210D00D4B984261
:1005B8000DD00D4B98420AD00C4B984207D00C4BEB
:1005C800984204D00B48C821490000F021FD002DB5
:1005D80004D108489221FF3100F01AFDA56138BD09
:1005E8000004004800080048000C004800100048BB
:1005F800001400487832000838B5041C0D1C9023FC
:10060800DB05984213D00E4B984210D00D4B984200
:100618000DD00D4B98420AD00C4B984207D00C4B8A
:10062800984204D00B48A621FF3100F0F1FC002DC0
:1006380004D10848D321490000F0EAFC258538BDDB
:100648000004004800080048000C0048001000485A
:10065800001400487832000870B5041C0D1C161CE4
:100668009023DB05984212D0174B98420FD0174BB6
:1006780098420CD0164B984209D0164B984206D097
:10068800154B984203D01548154900F0C1FC0F2DB1
:1006980003D91248134900F0BBFC072E03D90F48B1
:1006A800114900F0B5FC07232B409B009E40E90848
:1006B800083189000A590F20984082430A510B5982
:1006C8001E430E5170BDC046000400480008004893
:1006D800000C004800100048001400487832000858
:1006E8000D0200000E0200000F02000070B5041C8D
:1006F8008378012B03D91A48522100F089FC6378CA
:10070800032B03D91648532100F082FCA378002B51
:100718001BD02578AA08134BC0329200D658032163
:100728000D40E900FF20051C8D40AE43351C66785E
:10073800B60130408840011C2943D15022781F213E
:100748000A4001219140196008E023781F211940CF
:1007580001238B40191C8023024AD15070BDC0462A
:10076800AC32000800E100E070B5041C5E4B5B6829
:100778000C221340042B0CD002D8002B05D028E003
:10078800082B0AD00C2B20D023E0584B0360002004
:1007980022E0564B036000201EE0534B5D68AD021B
:1007A8005A682D0F0235C0235B021A4202D1504805
:1007B800684308E04C4BDB6A0F21194001314B4874
:1007C80002F078F86843206006E04A4B0360002096
:1007D80002E0464B23600020434B5A681206120F72
:1007E800454DA95CC9B22668321CCA40111C62601A
:1007F8005A685205520FAA5CD2B2D1400A1CA160B5
:100808001B6BD90502D43D4BE36008E0364B5B68AF
:10081800590402D45308E36001E09308E360324BC3
:100828001B6B590602D4364B236102E080231B025E
:1008380023612D4B1B6BD90602D42C4B636100E05E
:100848006661294B1B6B990701D1A26119E0264B00
:100858001B6B03210B40012B01D1A66111E0224B38
:100868001B6B03210B40022B03D180231B02A361C6
:1008780007E01D4B1B6B03210B40032B01D11B4BC6
:10088800A361194B196BC0239B02194201D1E26184
:1008980020E0154B1B6BC02292021A4080235B029A
:1008A8009A4201D1E66115E00F4B1B6BC022920200
:1008B8001A4080239B029A4203D180231B02E361E2
:1008C80008E0094B1A6BC0239B021A409A4201D1D7
:1008D800064BE361044B1B6B1A0602D4054B2362DB
:1008E80000E0206270BDC0460010024000127A008D
:1008F80000093D00006CDC0204000020809FD50048
:100908001280000038B5041C0D1C0D4B184201D193
:10091800002803D10B480C4900F07AFB012D03D9BC
:1009280008480A4900F074FB002D04D0084B5A69A6
:1009380014435C6103E0064B5A69A2435A6138BD0F
:10094800AAFF81FEE03200083605000037050000E6
:100958000010024038B5041C0D1C0D4B184201D183
:10096800002803D10B480C4900F052FB012D03D994
:1009780008480A4900F04CFB002D04D0084B9A693E
:1009880014439C6103E0064B9A69A2439A6138BDFF
:10099800FEA5B8FFE03200085A0500005B0500001C
:1009A8000010024038B5041C0D1C0E4B184201D132
:1009B800002803D10C480D4900F02AFB012D04D969
:1009C8000948B121C90000F023FB002D04D0084BD1
:1009D800DA691443DC6103E0054BDA69A243DA61A2
:1009E80038BDC046CCB61185E03200088705000046
:1009F80000100240F0B5474680B48AB0041C0D1CB4
:100A08005C4B98420CD05C4B984209D05B4B9842A7
:100A180006D05B4B984203D05A48DC2100F0F8FA24
:100A28002A68013A584B9A4203D95648DD2100F00A
:100A3800EFFA6B68002B0AD080225201934206D04D
:100A4800524A934203D04F48DE2100F0E1FAAB68E6
:100A5800002B0BD080229201934207D0C022920132
:100A6800934203D04748DF2100F0D2FAEB68002B0D
:100A78000BD08022D200934207D0C022D2009342EA
:100A880003D04048E02100F0C3FA2B690C22191C5E
:100A9800914301D1002B03D13A48E12100F0B8FA83
:100AA8006B69002B0FD08022520093420BD080221A
:100AB8009200934207D0C0229200934203D031485B
:100AC800E22100F0A5FA23680122934323606268BB
:100AD8002F4B1340AA681343636022682D4B1A40BA
:100AE8006B68E9680B4329690B4313432360A268C9
:100AF800294B13406A691343A36001A8FFF734FE2A
:100B08001C4B9C4201D1079F05E01B4B9C4201D125
:100B1800089F00E0039F236819040CD57F00B8469E
:100B28002F684046391C01F0C5FE061C4046391C9A
:100B380001F004FF0AE02A689046381C111C01F0F5
:100B4800B9FE061C381C414601F0F8FE2A68520816
:100B5800002391425B41F6182368190404D5330732
:100B68005B0F0E4A16401E43B6B2A6810AB004BCFB
:100B78009046F0BD00380140004400400048004065
:100B8800004C0040103300087F8D5B0000100010FF
:100B9800FFCFFFFFF3E9FFFFFFFCFFFFF0FF0000BF
:100BA80038B5041C0D1C124B98420DD0114B9842BD
:100BB8000AD0114B984207D0104B984204D01048E5
:100BC800C821490000F024FA012D04D90C489221CB
:100BD800FF3100F01DFA002D04D0226801231343D1
:100BE800236003E0236801229343236038BDC04695
:100BF800003801400044004000480040004C0040DC
:100C08001033000838B5041C0D1C0D4B98420CD04D
:100C18000C4B984209D00C4B984206D00B4B98428B
:100C280003D00B480B4900F0F3F90B4B9D4203D955
:100C380007480A4900F0ECF9ED05ED0D258538BDAA
:100C4800003801400044004000480040004C00408B
:100C58001033000895030000FF0100009603000010
:100C680010B5041C094B98420CD0094B984209D086
:100C7800084B984206D0084B984203D007480849C9
:100C880000F0C6F9A08CC005C00D10BD00380140A9
:100C98000044004000480040004C00401033000869
:100CA800A603000070B5051C0C1C161C2C4B9842A2
:100CB8000CD02C4B984209D02B4B984206D02B4B8A
:100CC800984203D02A482B4900F0A2F984235B00FC
:100CD8009C4225D0284B9C4222D0284B9C421FD0B6
:100CE800274B9C421CD0274B9C4219D0264B9C4238
:100CF80016D0264B9C4213D0C0239B009C420FD099
:100D0800234B9C420CD0234B9C4209D0224B9C4243
:100D180006D0224B9C4203D01548214900F078F9AF
:100D2800012E03D912481F4900F072F92B1CA2B2F8
:100D3800120AFF210C400121A1400C1C022A01D1FA
:100D48002B1D03E0032A01D12B1C0833002E03D0EE
:100D58001A6814431C6002E01A68A2431A6070BD46
:100D6800003801400044004000480040004C00406A
:100D780010330008050700000701070006010600F8
:100D88000501050004010400060208000A03090021
:100D98001A010B001B010C000E01110016031400B0
:100DA800060700000707000038B5051C0C1C314B6E
:100DB80098420CD0304B984209D0304B984206D01C
:100DC8002F4B984203D02F482F4900F021F9012CCE
:100DD80049D0802C47D0402C45D0202C43D0102C13
:100DE80041D080235B009C423DD080239B009C42E5
:100DF80039D0082C37D0042C35D0022C33D080239E
:100E0800DB009C422FD080231B019C422BD08023E7
:100E18005B019C4227D08023DB019C4223D08023A6
:100E28001B029C421FD080235B029C421BD0802364
:100E38009B029C4217D08023DB029C4213D0802364
:100E48001B039C420FD080235B039C420BD0802362
:100E58009B039C4207D08023DB039C4203D00948B4
:100E68000A4900F0D5F8E8690440201C441EA04156
:100E780038BDC046003801400044004000480040EA
:100E8800004C00401033000893070000940700004E
:100E980038B5051C0C1C2F4B98420CD02E4B984291
:100EA80009D02E4B984206D02D4B984203D02D489E
:100EB8002D4900F0ADF884235B009C422AD02B4BCF
:100EC8009C4227D02A4B9C4224D02A4B9C4221D0BA
:100ED800294B9C421ED0294B9C421BD0284B9C423C
:100EE80018D0284B9C4215D0274B9C4212D0274B38
:100EF8009C420FD0264B9C420CD0264B9C4209D0DA
:100F0800254B9C4206D0254B9C4203D015482449CA
:100F180000F07EF8A3B21B0AFF2222400121914073
:100F28000A1C012B02D129680A4006E0022B02D1D3
:100F380069680A4001E0A9680A40240C0123A3401B
:100F48001C1CEB691C400020002A02D0201C441EF7
:100F5800A04138BD0038014000440040004800402E
:100F6800004C004010330008E607000007010700A6
:100F78000601060005010500040104000602080038
:100F88000A03090000030300000302000003010034
:100F98001A010B001B010C000E01110016031400AE
:100FA800E7070000FEE7C04608B5034800F054F81C
:100FB8000120FFF7F7FFC0464433000808B50D4B82
:100FC8001B68002B02D10C4A0A4B1A60094B1B689C
:100FD8000330032290431818084A904206D901F0BA
:100FE800B9FC0C2303600120404202E0014A106072
:100FF800181C08BD8C00002074010020001C002073
:1010080001230360014B0B607047C04614000020A9
:1010180008B5031C0A1C0348191C00F005F8FFF763
:10102800C3FFC046983300080FB400B583B004ABC3
:1010380004CB01930748802101F0C4FD011E03DDA4
:10104800044800F053F8011C081C03B008BC04B0A5
:101058001847C0469400002010B5041C01F06AFD32
:10106800011C201C00F042F80248012100F03EF863
:1010780010BDC046C4330008F0B55F4656464D461D
:101088004446F0B485B0041C8A46435C0E1C002B11
:101098001BD10425281C211CABBE041C1DE0351ED9
:1010A800102D00D95D46434604E022786946CA54AB
:1010B80001330134AB42F8D36F464246FA544846EE
:1010C800391CABBE071C761B05E010239B4600218C
:1010D800884604229146002EE1D1504605B03CBC1A
:1010E80090469946A246AB46F0BDC04608B5FFF704
:1010F800C3FF08BD08B500F05BF808BD82B0002347
:1011080001930093274B1968802252020A431A6000
:10111800191C80229202A020C0010B681340009382
:10112800019B01330193009B002B02D1019B834259
:10113800F3D11C4B1B689A0302D50123009301E0ED
:1011480000230093009B012B2AD11122164B1A6011
:10115800144B5A685A605A685A605968134A0A40C8
:101168005A605968882252030A435A6019688022D3
:1011780052040A431A60191C802292040B68134215
:10118800FCD0084B5A6803218A435A6059680222E6
:101198000A435A60191C0C224B681340082BFBD1D8
:1011A80002B070470010024000200240FF7FC0FFDD
:1011B80008B5124B19680122114319605868104983
:1011C8000140596018680F490140196018680E49B4
:1011D8000140196058680D4901405960D96A0F20CB
:1011E8008143D962186B0A4901401963596B9143CD
:1011F800596300229A60FFF781FF08BD0010024082
:101208000CB8FF08FFFFF6FEFFFFFBFFFFFFC0FF64
:10121800ACFEFFFF70B5041C0E1C00230370732383
:101228008360081C01F086FC0130606001F098FBC7
:10123800051E02D10323237003E0311C01F072FC68
:101248002561201C70BDC04600230370692383609C
:10125800042343600161704700230370692383609E
:101268000423436001617047002303706623836091
:10127800042343600161704710B582B06B4600914A
:101288000192002202707422826008224260021CCD
:10129800103212CB12C202B010BDC046002101703C
:1012A8000821416064218160026143617047C04642
:1012B800F0B54F464646C0B483B0071C89469046F1
:1012C8000023037062238360101C0430786000924E
:1012D80001AD6C460334042304E023782B70331CDF
:1012E8000135013C5E1E002BF7DC019C00940028B0
:1012F8000DDD01F035FB051E02D103233B7008E02C
:1013080010C04946424601F03FFB3D6101E0002321
:101318003B61381C03B00CBC90469946F0BDC046F2
:1013280010B5041C4368002B0BDD8368732B03D1B5
:10133800006901F01FFB04E0622B02D1006901F093
:1013480019FB201C10BDC0460223037081600023D6
:101358004360704700238268692A00D10369181C1A
:101368007047C04670B5431C012282560126212AC7
:1013780001D1831C002670427041C0B214E00124E0
:101388001C572D2C0AD10C7852B265B2AA4203DC44
:1013980002229A5695420DDD033305E052B200242D
:1013A8000C57A24208D001331A785D2A05D0002ACA
:1013B800E5D102E0301C00E0301C70BD70B50E1C99
:1013C800013013E0013400E0041C23787D2B05D0A4
:1013D800002B03D02F2B01D02C2BF3D1251A311C35
:1013E8002A1C01F0AEFB002809D0601C03787D2B75
:1013F80007D0002B07D02F2BE6D1002004E0281CB3
:1014080002E0002000E0002070BDC04608B5031CC3
:1014180002785D2A12D050B25D2805DC01203F2AEF
:1014280027D05B2A05D01EE07B2A0FD07D2A12D058
:1014380019E0181CFFF796FF1BE0013B00229A56A3
:101448005B2AFAD1181CFFF78DFF12E0181CFFF772
:10145800B5FF0EE0013B00229A567B2AFAD1181CF0
:10146800FFF7ACFF05E050B20023CB56C01A42424A
:10147800504108BD70B5041C0D1C0B782F2B01D0F2
:10148800002B0ED123782F2B2ED00120002B2ED00D
:1014980000202A2B2BD160782F2827D0434258418F
:1014A80025E006782A2E0BD10130FFF7E3FF031C55
:1014B8000120002B1BD1691C201CFFF7DBFF16E065
:1014C800FFF7A4FF002812D05B2E03D07B2E06D195
:1014D80000E0013423785D2B01D07D2BF9D1601C0D
:1014E800691CFFF7C7FF02E0012000E0012070BD82
:1014F800F0B557464E464546E0B480460F1C0B787B
:1015080000200A1C002B01D178E0013213782F2B20
:1015180004D0002BF9D14446002008E044460020BE
:1015280005E05BB22A3B59424B41C018013423788D
:101538002F2B01D0002BF4D1013C551E012815D0CA
:1015480002282BD054E0201C291CFFF75FFF00283D
:1015580054D05D2E03D07D2E06D100E0013C2378C7
:101568005B2B01D07B2BF9D1013C013D26782A2E3B
:10157800E9D1012042E0201C291CFFF747FF002881
:101588003CD05D2E03D07D2E06D100E0013C2378AF
:101598005B2B01D07B2BF9D1013C013D26782A2E0B
:1015A800E9D10135A946013CA2461DE05446012374
:1015B8005B4299444E4612E0201C311CFFF726FF7F
:1015C80000280FD05D2D03D07D2D06D100E0013C11
:1015D80023785B2B01D07B2BF9D1013C013E257888
:1015E8002A2DE9D1444508D0B945DFD8002005E0C7
:1015F8004046391CFFF73EFF00E001201CBC904626
:101608009946A246F0BDC046F0B557464E464546F7
:10161800E0B480460F1C9246994601F079FA0028FA
:101628000BD1404601F086FA52461060381C01F092
:1016380081FA4B461860032064E000235246136089
:101648004A4613603D1C444645E02A2E14D1201C0E
:10165800291CFFF74DFF002801D153E001342378FE
:101668002F2B03D0002BF9D100E001352B782F2B3D
:1016780031D0002BF9D12EE02A2B0ED100E0013415
:1016880026782F2E03D0002EF9D100E001352E78D0
:101698002F2E20D0002EF9D11DE0201C291CFFF789
:1016A800B5FE00282DD05B2E08D100E001340023C0
:1016B800E3565D2BFAD1013401350CE07B2E08D1BD
:1016C80000E001340023E3567D2BFAD101342D18B4
:1016D80001E0013401352B78002B02D02678002E4A
:1016E800B3D14246A31A52461360EF1B4B461F6004
:1016F8002878434258412378002B03D1022318430A
:1017080000E000201CBC90469946A246F0BDC046A9
:1017180083688B4203DD43688900C85802E00423CC
:10172800037300207047C04600B583B00068801876
:1017380001AA6B46FFF768FF033843425841C0B21D
:1017480003B000BD38B5041C151C1A1CFFF7ECFFCC
:101758000023002802D0201CA8470123181C38BDEC
:1017680070B5051C0E1C006801F004F9301C01F06E
:10177800E1F9013001F0F4F8041E04D103232B73BE
:1017880000232B6003E0311C01F0CCF92C6070BD04
:1017980070B5051C067B731E9E41F6B2002408E056
:1017A800281C211CFFF7B4FF03785A1E93411E43DF
:1017B8000134AB68A342F3DC301C70BD38B5041C9F
:1017C800FFF7A6FF051C201CFFF7E2FF021C002004
:1017D800002A02D1281CFFF7BDFD38BD38B5041C0E
:1017E800FFF796FF051C201CFFF7D2FF00230028F7
:1017F80000D12B7A58B238BD70B5041C151CFFF700
:1018080087FF061C201CFFF7C3FF011C00200029CE
:1018180004D1B3685B1B5D426B41D8B270BDC04652
:1018280008B56922FFF7E8FF08BDC046F0B54F4686
:101838004646C0B485B0061C0C1CFFF7A9FF00285B
:1018480000D0B3E03768381C01F074F9421C032556
:101858008543201C391C00F0C9FC04E0201C002131
:1018680000F0ACFC3D1C6F1E002DF7D1201C2C2174
:1018780000F0A4FC08E0301C291CFFF7AFFFC1B240
:10188800201C00F09BFC0135B268AA42F3DC03235C
:10189800934306D1042304E0201C002100F08EFCB1
:1018A8002B1C5D1E002BF7D1002703229146042331
:1018B800984678E0301C391CFFF72AFF051C83681E
:1018C800732B01D0622B12D1201C29696A6800F0A1
:1018D8008DFC6B685B424A46134004E0201C0021E3
:1018E80000F06CFC2B1C5D1E002BF7D15AE0642B1A
:1018F80011D1173002AA082304E0037813700B1CD7
:1019080001320138591E002BF7DC201C02A90822DD
:1019180000F06CFC46E0742B2ED1011C103102A89B
:10192800082201F031F801A96A460B32434604E067
:1019380013780B70031C0131013A581E002BF7DC99
:10194800019B0093201C6946424600F04FFC01A908
:101958006A460F32434604E013780B70031C0131CA
:10196800013A581E002BF7DC019A0092201C6946A8
:10197800424600F03BFC15E0542B13D0462B11D007
:10198800011C133102AA434604E00B781370031CB0
:1019980001320139581E002BF7DC6A68201C02A9A5
:1019A80000F024FC0137B368BB4283DC05B00CBCF3
:1019B80090469946F0BDC04670B5041CCEB21820BA
:1019C80000F064FF051C71B2FFF7BEFC2B78032BF7
:1019D80001D1237311E0A16801318900606801F029
:1019E80079F8002802D10323237306E06060A26817
:1019F8009300C550A3680133A36070BD38B5041CBB
:101A08000D1C8269002A08DD43695A1C426102697B
:101A1800D1548369013B836110E041691131006948
:101A280001F058F82061002806D063695A1C6261E9
:101A3800C5541023A36101E00323237338BDC046B6
:101A480010B5041C0069102101F044F82061002839
:101A580002D01023A36103E003232373002323612F
:101A68000023636110BDC04638B5041C002505601D
:101A7800856005734560056145618561FFF7E0FF95
:101A8800657338BD38B5041C0D1CFFF7EDFF201C2D
:101A9800291CFFF765FE201C38BDC04610B5041C84
:101AA800FFF7E2FF02232373201C10BD70B5061C4C
:101AB8000023037300240BE0301C211CFFF728FED1
:101AC800051E04D0FFF72CFC281C00F0D9FE0134B9
:101AD800B368A342F0DC706800F04CFF0023736029
:101AE800B3607373301CFFF7ABFF70BD10B5041CF7
:101AF800006800F03FFF201CFFF7D8FF206900F0C6
:101B080039FF201C10BDC04610B5041C2169FFF721
:101B180027FE00232373201CFFF792FF10BDC04649
:101B2800F0B5474680B48AB0071C0C1C00265FE25B
:101B3800381C311CFFF7ECFD0378022B00D056E26D
:101B48008368623B122B00D956E29B00CB4AD358DC
:101B58009F467A69042A00D04EE202A8396900F04B
:101B680013FF04A96A460B32042304E013780B70B0
:101B7800031C0131013A581E002BF7DC049DBB6899
:101B88009E421ADA381C311CFFF7C2FD041E04D02D
:101B9800FFF7C6FB201C00F073FE182000F076FE4D
:101BA800041C291CFFF750FB2378032B01D13B733E
:101BB80026E0B6007B689C5122E09E421ED1182088
:101BC80000F064FE041C291CFFF73EFB2378032B5E
:101BD80001D13B7314E0B96801318900786800F0DD
:101BE80079FF002802D103233B7309E07860BA68C3
:101BF8009300C450BB680133BB6001E004233B730E
:101C0800381CFFF71DFFF7E17B69042B00D0F3E1D7
:101C180002A83969042200F0B7FE04A96A460B320B
:101C2800042304E013780B70031C0131013A581E99
:101C3800002BF7DC049DBB689E421ADA381C311C65
:101C4800FFF766FD041E04D0FFF76AFB201C00F0B6
:101C580017FE182000F01AFE041C291CFFF704FBCD
:101C68002378032B01D13B7326E0B6007A689451A0
:101C780022E09E421ED1182000F008FE041C291CF8
:101C8800FFF7F2FA2378032B01D13B7314E0B9680C
:101C980001318900786800F01DFF002802D1032374
:101CA8003B7309E07860BA689300C450BB6801339D
:101CB800BB6001E004233B73381CFFF7C1FE9BE1C6
:101CC8007B69082B00D097E102A83969082200F047
:101CD8005BFE04A96A460F32082304E013780B70F0
:101CE800031C0131013A581E002BF7DC049C059DAA
:101CF800BB689E421EDA381C311CFFF709FD80467E
:101D0800002804D0FFF70CFB404600F0B9FD18206E
:101D180000F0BCFD8046221C2B1CFFF7BFFA424690
:101D28001378032B01D13B7328E0B60042467B6849
:101D38009A5123E09E421FD1182000F0A7FD061CEF
:101D4800221C2B1CFFF7AAFA3378032B01D13B7313
:101D580014E0B96801318900786800F0BBFE0028FA
:101D680002D103233B7309E07860BA689300C65038
:101D7800BB680133BB6001E004233B73381CFFF7E9
:101D88005FFE39E17B69082B00D035E16846396987
:101D9800082200F0F9FD04A96A460332042304E08E
:101DA80013780B70031C0131013A581E002BF7DC25
:101DB800049A009204A96A460732042304E01378BF
:101DC8000B70031C0131013A581E002BF7DC049BF1
:101DD800019302A86946082200F0D6FDBB689E421E
:101DE80020DA381C311CFFF793FC041E04D0FFF7DF
:101DF80097FA201C00F044FD06A802A9082200F06A
:101E0800C3FD182000F042FD041C0699079AFFF74D
:101E180033FA2378032B01D13B7333E0B6007A6899
:101E280094512FE09E422BD104A802A9082200F069
:101E3800ABFD08A804A9082200F0A6FD182000F0B0
:101E480025FD041C0899099AFFF716FA2378032B35
:101E580001D13B7316E0B96801318900786800F058
:101E680039FE002802D103233B730BE07860BA687F
:101E78009300C450BB680133BB6003E0F43300082F
:101E880004233B73381CFFF7DBFDB5E0002C00D0C2
:101E9800B2E03D69BB689E421ADA381C311CFFF774
:101EA80037FC041E04D0FFF73BFA201C00F0E8FCC6
:101EB800182000F0EBFC041C291CFFF7ABF9237871
:101EC800032B01D13B7326E0B6007B689C5122E0CE
:101ED8009E421ED1182000F0D9FC041C291CFFF7D3
:101EE80099F92378032B01D13B7314E0B9680131C8
:101EF8008900786800F0EEFD002802D103233B73C7
:101F080009E07860BA689300C450BB680133BB60CD
:101F180001E004233B73381CFFF792FD06237B7313
:101F28006AE07D69042D67DD3B69984602A8191CA3
:101F3800042200F029FD04A86A460B32042304E0B9
:101F480013780370231C0130013A5C1E002BF7DC68
:101F5800049C231D9D424FD104229044BB689E429D
:101F68001BDA381C311CFFF7D3FB051E04D0FFF722
:101F7800D7F9281C00F084FC182000F087FC051C09
:101F88004146221CFFF794F92B78032B01D13B73B0
:101F980027E0B6007B689D5123E09E421FD11820A0
:101FA80000F074FC051C4146221CFFF781F92B78D0
:101FB800032B01D13B7314E0B968013189007868BB
:101FC80000F088FD002802D103233B7309E0786004
:101FD800BA689300C550BB680133BB6001E00423B5
:101FE8003B73381CFFF72CFD06237B7304E0013696
:101FF800BB68B34200DD9BE50AB004BC9046F0BD67
:1020080038B5041C0D1CFFF7F9FC637B062B4FD871
:102018009B00284AD3589F462F2D49D1012363732B
:1020280046E0002D44D1201CFFF76EFD02236373A8
:102038003EE02C2D3CD103236373201CFFF700FDE9
:1020480036E0002D04D0201C291CFFF7B5FC01E068
:1020580004236373A2680323934300D104239B18CA
:102068006169994224D1201CFFF7EAFC05236373B8
:102078001EE0201C291CFFF753FD19E0A568013D4F
:1020880014E0201C291CFFF743FB0378002B0CD11C
:1020980043685B420322134062699A4208D1201CBC
:1020A800FFF7CEFC0523637302E0013D002DE8DA5B
:1020B80038BDC0464034000808B5FFF7A1FF08BD89
:1020C800002303707047C04610B5041C0378022B28
:1020D80003D100230370012010E00020012B0DD153
:1020E80000F076FB002806D000F084FBC0B2C028C0
:1020F80001D100F091FB00232370012010BDC046E0
:1021080070B5041C0125032600F062FB002829D0C5
:102118002378002B0ED100F06DFBC3B2DB2B03D16B
:10212800267000F079FBEFE7C02B1DD1257000F079
:1021380073FBE9E7032B19D0012B0DD100F05AFBF3
:10214800C02805D10223237000F066FB00200EE0B2
:102158000023237000200AE00020022B07D100236F
:10216800237004E0002002E0012000E0012070BD9F
:1021780038B5041C032500F04FFBC3B22278002AAF
:1021880008D1DB2B01D12570F5E7C02B10D0FF2338
:10219800184012E0032A0ED100222270C020DC2B46
:1021A8000BD0DD3B5A1E93415842DB23184304E011
:1021B8000120404201E00120404238BD08B5C02955
:1021C80006D1DB2000F0F4FADC2000F0F1FA0BE095
:1021D800DB2906D1DB2000F0EBFADD2000F0E8FA7D
:1021E80002E0081C00F0E4FA08BDC04670B5061C01
:1021F80006E04D1C0978301CFFF7E0FF221C291C63
:10220800541E002AF5D170BD08B5C02000F0D0FAE0
:1022180008BDC04608B5C02000F0CAFA08BDC046CF
:10222800F0B5474680B482B08020C0020121FEF795
:1022380069FB802636010096012290466B461A718A
:1022480000259D7103275F71DD71144C201C6946C0
:10225800FEF714F9201C311CFEF7CEF9B0231B0140
:10226800009342466B461A719D715F71DD71201CA7
:102278006946FEF703F9201C80214900FEF78CF916
:10228800201C80218900FEF787F9201C311CFEF7ED
:1022980083F902B004BC9046F0BDC0460004004873
:1022A80008B50C4B1868FA21890000F003FB0138C7
:1022B800094B98420DD8094B5860094A106A000228
:1022C800000AC02109060143116200229A60072210
:1022D8001A6008BD1C000020FFFFFF0010E000E0AE
:1022E80000ED00E0034B18601A1C1368002BFCD1AA
:1022F8007047C0462C010020044B1B68002B03D0FC
:10230800024B1A68013A1A607047C0462C01002037
:1023180008B5FFF7F1FF08BD08B50348802109019A
:10232800FEF76AF908BDC0460004004808B503482E
:1023380080210901FEF730F908BDC04600040048B5
:1023480038B5041C504880210901FEF725F9201CE6
:102358000021FFF765FA002800D193E0201C002136
:10236800FFF72CFA041E0FD1474D281C8021890045
:10237800FEF712F9281C80210901FEF70DF9281C27
:1023880080214900FEF708F9012C0FD13E4D281C89
:1023980080218900FEF700F9281C80210901FEF739
:1023A800FBF8281C80214900FEF726F9022C0FD1E2
:1023B800354D281C80218900FEF7EEF8281C802165
:1023C8000901FEF719F9281C80214900FEF7E4F8F5
:1023D800032C0FD12C4D281C80218900FEF7DCF836
:1023E800281C80210901FEF707F9281C80214900D3
:1023F800FEF702F9042C0FD1234D281C80218900F7
:10240800FEF7FAF8281C80210901FEF7C5F8281CF8
:1024180080214900FEF7C0F8052C0FD11A4D281C61
:1024280080218900FEF7E8F8281C80210901FEF7C1
:10243800B3F8281C80214900FEF7DEF8062C0FD1DE
:10244800114D281C80218900FEF7D6F8281C802110
:102458000901FEF7D1F8281C80214900FEF79CF8F5
:10246800072C0FD1084C201C80218900FEF7C4F8E6
:10247800201C80210901FEF7BFF8201C802149009B
:10248800FEF7BAF838BDC0460004004808B5012870
:1024980005D1034B994202D10248FFF711FE08BD4E
:1024A800FFFF000014010020F0B55F4656464D4678
:1024B8004446F0B49FB0802080000121FEF74AFA1C
:1024C800802000030121FEF71DFA01A908230193CA
:1024D80003230B710024CC718048FDF7CFFF03A9BB
:1024E80003940C718C600C614C617D4C201CFDF7D1
:1024F8007FFE201CFDF730FF201C0121FDF7E4FEC4
:10250800251C784C281C211CFDF772FF0028F9D0E7
:1025180009A87549FFF7B6FA182000F0B7F9041CA6
:102528006321FEF799FE2378032B03D1032209AB1D
:102538001A7312E00A980B990131890000F0CAFA5F
:10254800002803D1032209AB1A7306E00A900B99FD
:102558008B00C4500B9B01330B9310A8FFF79EFA16
:1025680000F0DCF8FFF75CFE604D80242401281C95
:10257800211CFEF711F8281C211CFEF73DF8FFF777
:102588008FFE594A93465A4B99461D1C0520FFF762
:10259800A9FE534C201C802189010722FDF7B4FEB7
:1025A800201CFDF7FFFE201C0421FDF721FF002859
:1025B800F9D04B48FDF70AFF061C17A85946FFF744
:1025C80061FA182000F062F9041C311CFEF73CFE89
:1025D8002378032B03D1032217AB1A7312E0189840
:1025E80019990131890000F075FA002803D10322F6
:1025F80017AB1A7306E0189019998B00C450199BF1
:10260800013319934846FFF7FFFD17A84946FFF71E
:102618000DF94846FFF7FEFD17A8FFF747FA002413
:1026280003229046D3179A4613E03148FFF768FD16
:1026380000280EDD09E0381CFFF79AFDC1B210A88A
:10264800FFF73AFD0134301C00E0294F461E0028F0
:10265800F1D1281CFFF738FD0123002804D0E30F2F
:1026680051464246A2424B41002BDED110A8FFF74B
:102678008FF800282BD11D4F80263601381C311CBD
:10268800FDF78AFF1A4C201CFFF7BEFD10A8211C7D
:10269800FFF7CCF8201CFFF7BDFD381C311CFDF7F7
:1026A800ABFF10A81349144A0023FFF74BF810A8F2
:1026B8001249134A0023FFF745F810A81149124A96
:1026C8000023FFF73FF810A8FFF7F0F902E010A881
:1026D800FFF7ECF917A8FFF709FA57E700080048D1
:1026E80000240140010000015C3400080004004897
:1026F80014010020643400083523000874340008ED
:1027080021230008803400084923000808B5012067
:102718000149FFF7BBFE08BDFFFF0000F0B58BB015
:102728008024A402201C0121FEF7ECF8201C0121C2
:10273800FEF738F99025ED05281C02210122FDF746
:102748008BFF281C03210122FDF786FF02A90C2715
:10275800029703234B7102230B7100248C7101260D
:10276800CE71281CFDF78AFE0E4B0493059406943F
:102778000794099408970C4D281C04A9FEF73AF908
:10278800281C0A490122FEF78DFA01A81C220270B2
:1027980044708670FDF7AAFF281C0121FEF700FA95
:1027A8000BB0F0BD20A10700004400400501050062
:1027B80038B5051C054C201C8021FEF7F5FA0028C9
:1027C800F9D00248291CFEF71DFA38BD0044004024
:1027D800064B18784030064B1B78C01AC3179B0E5F
:1027E800C0183F221040C01A7047C0461901002087
:1027F80018010020054B1A78054B1B789A4202D025
:10280800044AD05C01E001204042704719010020D1
:102818001801002030010020084B1A78084B1B785B
:102828009A4207D0074AD05C01333F221340044A3A
:10283800137001E0012040427047C0461901002092
:10284800180100203001002038B509480949FEF771
:102858001FFB00280BD0084C25780548FEF700FA26
:10286800064B5855237801333F221340237038BD57
:102878000044004005010500190100203001002036
:1028880008B5002801D000F075F808BD10B5041E81
:1028980002D1012400E09847201C00F061F80028CC
:1028A80005D1034B1B68002BF5D1FEF77DFB10BD4E
:1028B8001C010020002934D00123002210B48842D2
:1028C8002CD301242407A14204D2814202D2090157
:1028D8001B01F8E7E400A14204D2814202D2490078
:1028E8005B00F8E7884201D3401A1A434C08A0421B
:1028F80002D3001B5C0822438C08A04202D3001BB1
:102908009C082243CC08A04202D3001BDC082243C7
:10291800002803D01B0901D00909E3E7101C10BCEB
:102928007047002801D00020C04307B4024802A124
:102938004018029003BDC046190000000029F0D0DD
:1029480003B5FFF7B9FF0EBC4243891A1847C046C2
:102958007047C046014B18687047C0468000002089
:1029680008B5034B011C186800F060F808BDC046A4
:102978008000002008B5034B011C186800F00EF811
:1029880008BDC0468000002010B50023934203D044
:10299800CC5CC4540133F9E710BD000030B5002900
:1029A80040D004390B68002B00DAC9181E4A136896
:1029B800141C002B02D14B60116033E099420FD2F6
:1029C80008680A189A4205D113685268C018086046
:1029D8004A6000E04B60216024E08A4203D8131C5F
:1029E8005A68002AF9D11D685C198C420BD1096814
:1029F800691858181960904214D114685268091956
:102A080019605A600EE08C4202D90C23036009E079
:102A180008680C18944203D11468526800190860B9
:102A28004A60596030BDC0462401002070B50323B8
:102A3800CD1C9D430835061C0C2D01D20C2501E048
:102A4800002D3FDB8D423DD3204B1C681A1C211CF6
:102A5800002913D00868431B0DD40B2B02D90B6037
:102A6800CC181EE08C4202D1636813601AE04868F3
:102A780060600C1C16E00C1C4968E9E7144C2068DF
:102A8800002803D1301C00F031F82060301C291CCC
:102A980000F02CF8431C15D0C41C03239C4384422B
:102AA8000AD12560201C0B300722231D9043C31A2E
:102AB8000BD05A42E25008E0211A301C00F016F8F8
:102AC8000130EED10C233360002070BD24010020BA
:102AD8002001002008B50A1C0349031C0868191CBA
:102AE80000F080F808BDC0468000002038B5074CCB
:102AF8000023051C081C2360FEF760FA431C03D161
:102B08002368002B00D02B6038BDC0462801002068
:102B180002780B7801300131002A01D09A42F7D0AF
:102B2800D01A7047031C0A7801311A700133002A41
:102B3800F9D170470023C25C0133002AFBD1581E2B
:102B48007047031C002010B582420FD01C7808780B
:102B5800A04201D1012A03D118780B78C01A05E0E8
:102B6800013A0028F8D001330131EFE710BD30B544
:102B7800051C9BB0141E04DA8B230360012040421D
:102B88001DE0822292006846009104910021828112
:102B98008C4200D0611E0122524202910591694681
:102BA800CA81281C1A1C1E9B00F0A2F8421C01DADC
:102BB8008B232B60002C02D0009900230B701BB0D4
:102BC80030BD000073B5141C054A061C0D1C1068A6
:102BD800311C00932A1C231CFFF7C9FF76BDC04691
:102BE80080000020F8B5061C0C1C151C002904D117
:102BF800111CFFF71BFF041C18E0002A03D1FFF784
:102C0800CDFE2C1C12E000F011FBA8420ED2301CA5
:102C1800291CFFF70BFF071E07D0211C2A1CFFF7F2
:102C2800B3FE301C211CFFF7B9FE3C1C201CF8BD6C
:102C3800F0B58D6885B0071C0C1C03920193AB425C
:102C480045D390228B89D20013423DD06269032676
:102C5800564309692068F20F401A96190290021C1F
:102C68000198013212187610964200D2161C381CB0
:102C78005A050FD5311CFFF7D9FE051E13D0029A4D
:102C88002169FFF781FEA289184B13408022134364
:102C9800A38111E0321CFFF7A5FF051E0CD1381CDB
:102CA8002169FFF77BFE0C233B60A3894022134375
:102CB8000120A381404217E0029B2561ED182560A1
:102CC8006661019DF61AA6600198A84200D2019D8E
:102CD8002A1C2068039900F090FAA2680020531B70
:102CE800A36023685D19256005B0F0BD7FFBFFFF79
:102CF800F0B59FB0039005938B890E1C171C19061D
:102D08000FD53269002A0CD14021FFF78FFE3060C1
:102D18003061002803D103990C230B60C9E04023DC
:102D2800736106AD00236B6120236B763023AB768D
:102D38003C1C2378002B03D1E21B029211D003E044
:102D4800252BF9D00134F4E70398311C3A1C029B77
:102D5800FFF76EFF013000D1A6E06969029A8B186F
:102D68006B612378002B00D19EE0012252426A60F9
:102D78006A4600235B3201342B60EB60AB60137052
:102D8800AB654E4F2178381C052200F02BFA00283D
:102D980007D0C71B2B680120B840184328600134AE
:102DA800EFE72B68D90603D56A4620215B321170FC
:102DB8001A0703D56A462B215B32117022782A2A1A
:102DC80001D0099B0EE0059A111D12680591002A91
:102DD80001DB099204E05242EA60022213432B60AD
:102DE800013409E02278303A092A04D80A214B43F1
:102DF80001349B18F6E7099323782E2B18D16378B2
:102E08002A2B09D1059B02341A1D1B680592002B39
:102E18000DDA01235B420AE0013400232278303ABC
:102E2800092A04D80A214B4301349B18F6E7079373
:102E3800234F2178381C032200F0D4F9002806D04B
:102E4800C71B2B684020B8401843286001342178FC
:102E58001C480622671C297600F0C4F9002812D005
:102E6800194B002B06D1059B0722073393430833E0
:102E7800059314E005AB00930398291C321C134BEF
:102E880000E000BF07E005AB00930398291C321C43
:102E98000E4B00F091F804900499013104D06A694E
:102EA800049953186B6143E7B3895A0601D40B9808
:102EB80001E0012040421FB0F0BDC0468A3400083E
:102EC800903400089434000800000000392C0008F1
:102ED800F7B5151C01930A698B68061C0C1C9342F4
:102EE80000DA131C221C2B6043321278002A01D00E
:102EF80001332B602068800602D52B6802332B60D3
:102F0800216806270F401FD0231C43331B785A1E05
:102F18009341226892061FD5E11840313020C870CD
:102F2800211C5A1C45310978A21840320233D1704D
:102F380012E0221C301C019919320123089FB8475E
:102F4800013011D0009F01370097E0682968009F81
:102F5800431A9F42EDDBD7E7221C301C019943320C
:102F6800089FB847013002D10120404223E0206881
:102F780006212B68E26801400025042903D1D51AEF
:102F8800EB43DB171D40A26823699A4201DDD31A7F
:102F9800ED1800270097009FAF420BDA221C301C67
:102FA80001991A320123089FB8470130DCD0009FED
:102FB8000137EFE70020FEBDF0B50D1C8BB043359F
:102FC80006920590079304950B7E0C1C109A6E2BA5
:102FD80000D1A7E011D8632B22D009D8002B00D14B
:102FE800B0E0582B00D0C0E045310B707B4D4EE06F
:102FF800642B1CD0692B1AD0B7E0732B00D1A5E045
:1030080009D86F2B29D0702B00D0AEE00E68202392
:1030180033430B6036E0752B1FD0782B32D0A4E0F9
:1030280013680D1C191D423511601B689FE021684B
:1030380013680E0603D5191D11601E6805E04806C1
:10304800F9D5191D116000215E5E644B002E3BDA34
:10305800049D2D2276422A7036E0216813680E06F8
:1030680003D5191D11601E6804E04806F9D5191D1D
:103078001E881160594B227E039308276F2A1ED0A1
:103088000A271CE0231C78214533554D1970116817
:103098002368081D039510601E0601D50E6802E01E
:1030A8005806FBD50E88D90702D520221343236082
:1030B8001027002E03D1226820239A432260231C64
:1030C800002243331A7001E003930A276368A36060
:1030D800002B03DB2568042295432560002E02D1CE
:1030E800049D002B0ED0049D301C391CFFF726FCD4
:1030F8000398013D435C301C2B70391CFFF7DAFB49
:10310800061EF1D1082F09D12168C90706D56268C2
:1031180023699A4202DC013D30232B70049E731B05
:1031280023612AE0086813684969050604D5181D53
:1031380010601B68196005E04606F8D5181D106078
:103148001B68198000232361049D16E01368191D6C
:1031580011601D68281CFFF7EDFC63682061984228
:1031680000D923612069606004E0251C42352B707A
:1031780001232361049E00233370079E059800965F
:10318800211C09AA069BFFF7A3FE013002D10120EA
:10319800404221E02A1C059806992369079DA84703
:1031A8000130F4D02668B60705D4099BE068984238
:1031B80012DA181C10E00025E0680999431A9D42AC
:1031C800F3DA221C0598069919320123079EB047A5
:1031D8000130DCD00135EFE70BB0F0BD9B340008BF
:1031E800AC340008C9B28218904204D003788B42EC
:1031F80002D00130F8E70020704770B5814201D352
:1032080000230CE08C18A042FAD28518131C013B4D
:103218000BD351426618F65C6918CE54F7E793420F
:1032280003D0CC5CC4540133F9E770BD04390B6892
:10323800181F002B02DAC8581B18181F7047000007
:103248002E2E2F73797374656D2F7372632F7374B9
:103258006D333266302D7374647065726970682FCF
:1032680073746D3332663078785F6164632E6300FF
:103278002E2E2F73797374656D2F7372632F737489
:103288006D333266302D7374647065726970682F9F
:1032980073746D3332663078785F6770696F2E6348
:1032A800000000002E2E2F73797374656D2F7372D2
:1032B800632F73746D333266302D73746470657266
:1032C8006970682F73746D3332663078785F6D6912
:1032D80073632E63000000002E2E2F7379737465BC
:1032E8006D2F7372632F73746D333266302D737460
:1032F800647065726970682F73746D3332663078E4
:10330800785F7263632E63002E2E2F737973746552
:103318006D2F7372632F73746D333266302D73742F
:10332800647065726970682F73746D3332663078B3
:10333800785F75736172742E6300000061626F724A
:103348007428292C2065786974696E672E2E2E00E2
:103358002C2066756E6374696F6E3A200000000059
:10336800617373657274696F6E20222573222066FB
:1033780061696C65643A2066696C65202225732250
:103388002C206C696E65202564257325730A00005E
:103398006173736572745F706172616D282920664C
:1033A80061696C65643A2066696C65202225732220
:1033B8002C206C696E652025640A00000A00000054
:1033C8006D61696E28617267633D25642C206172A6
:1033D80067763D5B000000002C2000002225732248
:1033E800000000005D293B0A000000002A1F0008B9
:1033F80000200008C81C000800200008101C000855
:1034080000200008002000085A1B000800200008BF
:103418000020000800200008002000080020000804
:1034280000200008002000080020000800200008F4
:10343800941E00088C1D0008202000082A2000087F
:103448003A2000084A2000085C2000087A2000087A
:10345800842000082F6B6579000000002F737973B2
:103468002F72656E756D6265720000002F73797337
:103478002F726573657400002F6C6564000000008E
:103488004300232D302B2000686C4C00656667458F
:1034980046470030313233343536373839414243C4
:1034A8004445460030313233343536373839616275
:0534B80063646566007D
:1034C00078563412000000000102030401020304D4
:1034D000060708099000002000000000006CDC02D4
:1034E00000000000000000000000000000000000DC
:1034F00000000000000000000000000000000000CC
:1035000088340008000000000000000000000000F7
:1035100000000000000000000000000000000000AB
:10352000000000000000000000000000000000009B
:10353000000000000000000000000000000000008B
:083540002000002032547698AF
:04000005080000C52A
:00000001FF
