:020000040800F2
:1000000000200020D5010008DD010008E101000802
:1000100000000000000000000000000000000000E0
:10002000000000000000000000000000E5010008E2
:100030000000000000000000E9010008191000089D
:10004000F1010008F1010008F1010008F1010008C8
:10005000F1010008F1010008F1010008F1010008B8
:10006000F1010008F1010008F1010008F1010008A8
:10007000F1010008F1010008F1010008F101000898
:10008000F1010008F101000800000000F101000882
:10009000F1010008F1010008F1010008F101000878
:1000A000F1010008F1010008F1010008F101000868
:1000B000F101000800000000F1010008000000004C
:1000C0005FF808F130B583B0314B324A1360324AE1
:1000D0001360324B3249002201E01A6004338B4234
:1000E000FBD32C4B1B68002B03D12B4B1B68002B25
:1000F00000D0FEE7264B2B4A13602B4A13602B4B94
:100100002B4A2C4903E010681860043304328B42F8
:10011000F9D3244B1A68284B9A4204D1224B1A680F
:100120001B689A4200D0FEE700F00EFD01A8694668
:1001300000F090FC214B224DED1AAD10002404E09C
:10014000A3001E4A9B5898470134A542F8DC1D4B7A
:100150001D4DED1AAD10002404E0A30019481B58F2
:1001600098470134A542F8DC0198009900F066FF39
:10017000051C164B164CE41AA41004E0013CA30025
:10018000124A9B589847002CF8DC281C00F034FCDD
:10019000BABADECA880000202C01002088000020A6
:1001A000300100200000002084000020000000201A
:1001B000981C00088800002078563412F4010008CA
:1001C000F4010008F4010008F8010008F801000833
:1001D000F801000808B5FFF775FFC046FEE7C04606
:1001E000FEE7C046FEE7C046FEE7C046FEE7C04663
:0401F000FEE7C04620
:0401F400E910000806
:1001F800F8B5051C0E1C9023DB05984212D03D4B28
:1002080098420FD03C4B98420CD03C4B984209D0B6
:100218003B4B984206D03B4B984203D03A48B42116
:1002280000F01CFC3368002B03D13748B52100F0DF
:1002380015FC3379032B03D93348B62100F00EFCA3
:10024800F379022B03D93048B72100F007FC0024CA
:1002580001274BE03B1CA34032681A409A4244D124
:100268003379013B012B28D87379012B05D9032B4E
:1002780003D02548C72100F0F1FBAA6863000321D9
:1002880099408A43AA60AA68717999400B1C134364
:10029800AB60B379012B03D91B48CE2100F0DEFBFC
:1002A800AA8823041B0C391C99408A43AA80AA886F
:1002B800B17999408BB21343AB802968630003225C
:1002C800101C98408143296028683179994001437E
:1002D8002960E9682004C00B82409143E960EA681C
:1002E800F17999400B1C1343EB6001340F2CB1D901
:1002F800F8BDC0460004004800080048000C00484B
:100308000010004800140048041B000838B5041CFD
:100318000D1C9023DB05984213D00E4B984210D049
:100328000D4B98420DD00D4B98420AD00C4B984279
:1003380007D00C4B984204D00B48C821490000F064
:100348008DFB002D04D108489221FF3100F086FB77
:10035800A56138BD0004004800080048000C0048AA
:100368000010004800140048041B000838B5041C9D
:100378000D1C9023DB05984213D00E4B984210D0E9
:100388000D4B98420DD00D4B98420AD00C4B984219
:1003980007D00C4B984204D00B48A621FF3100F03F
:1003A8005DFB002D04D10848D321490000F056FB1D
:1003B800258538BD0004004800080048000C0048A6
:1003C8000010004800140048041B000870B5041C05
:1003D8000D1C161C9023DB05984212D0174B98422F
:1003E8000FD0174B98420CD0164B984209D0164B99
:1003F800984206D0154B984203D01548154900F08D
:100408002DFB0F2D03D91248134900F027FB072EA7
:1004180003D90F48114900F021FB07232B409B000B
:100428009E40E908083189000A590F209840824304
:100438000A510B591E430E5170BDC04600040048B6
:1004480000080048000C004800100048001400484C
:10045800041B00080D0200000E0200000F0200003D
:1004680070B5041C5E4B5B680C221340042B0CD047
:1004780002D8002B05D028E0082B0AD00C2B20D05E
:1004880023E0584B0360002022E0564B0360002015
:100498001EE0534B5D68AD025A682D0F0235C0232C
:1004A8005B021A4202D15048684308E04C4BDB6AB1
:1004B8000F21194001314B4800F07AFE6843206053
:1004C80006E04A4B0360002002E0464B2360002010
:1004D800434B5A681206120F454DA95CC9B22668EB
:1004E800321CCA40111C62605A685205520FAA5C3D
:1004F800D2B2D1400A1CA1601B6BD90502D43D4B76
:10050800E36008E0364B5B68590402D45308E360A3
:1005180001E09308E360324B1B6B590602D4364B5B
:10052800236102E080231B0223612D4B1B6BD9063C
:1005380002D42C4B636100E06661294B1B6B990761
:1005480001D1A26119E0264B1B6B03210B40012B43
:1005580001D1A66111E0224B1B6B03210B40022B3A
:1005680003D180231B02A36107E01D4B1B6B0321F2
:100578000B40032B01D11B4BA361194B196BC023F3
:100588009B02194201D1E26120E0154B1B6BC0228E
:1005980092021A4080235B029A4201D1E66115E07B
:1005A8000F4B1B6BC02292021A4080239B029A4277
:1005B80003D180231B02E36108E0094B1A6BC023B7
:1005C8009B021A409A4201D1064BE361044B1B6B14
:1005D8001A0602D4054B236200E0206270BDC046B3
:1005E8000010024000127A0000093D00006CDC0295
:1005F80004000020809FD5001280000038B5041C3C
:100608000D1C0D4B184201D1002803D10B480C4991
:1006180000F024FA012D03D908480A4900F01EFA0F
:10062800002D04D0084B5A6914435C6103E0064B63
:100638005A69A2435A6138BDAAFF81FE381B0008D7
:1006480036050000370500000010024038B5041CCC
:100658000D1C0E4B184201D1002803D10C480D493E
:1006680000F0FCF9012D04D90948B121C90000F0B6
:10067800F5F9002D04D0084BDA691443DC6103E076
:10068800054BDA69A243DA6138BDC046CCB611859C
:10069800381B00088705000000100240F0B54746E7
:1006A80080B48AB0041C0D1C5C4B98420CD05C4B87
:1006B800984209D05B4B984206D05B4B984203D0D6
:1006C8005A48DC2100F0CAF92A68013A584B9A4284
:1006D80003D95648DD2100F0C1F96B68002B0AD018
:1006E80080225201934206D0524A934203D04F4887
:1006F800DE2100F0B3F9AB68002B0BD08022920109
:10070800934207D0C0229201934203D04748DF2189
:1007180000F0A4F9EB68002B0BD08022D2009342A2
:1007280007D0C022D200934203D04048E02100F015
:1007380095F92B690C22191C914301D1002B03D187
:100748003A48E12100F08AF96B69002B0FD080222A
:10075800520093420BD080229200934207D0C022CD
:100768009200934203D03148E22100F077F92368E0
:1007780001229343236062682F4B1340AA681343F6
:10078800636022682D4B1A406B68E9680B4329693E
:100798000B4313432360A268294B13406A69134330
:1007A800A36001A8FFF75CFE1C4B9C4201D1079F88
:1007B80005E01B4B9C4201D1089F00E0039F236882
:1007C80019040CD57F00B8462F684046391C00F044
:1007D800EFFC061C4046391C00F02EFD0AE02A6892
:1007E8009046381C111C00F0E3FC061C381C4146DE
:1007F80000F022FD2A685208002391425B41F61856
:100808002368190404D533075B0F0E4A16401E43AC
:10081800B6B2A6810AB004BC9046F0BD00380140CB
:100828000044004000480040004C0040681B00089D
:100838007F8D5B0000100010FFCFFFFFF3E9FFFF83
:10084800FFFCFFFFF0FF000038B5041C0D1C124B25
:1008580098420DD0114B98420AD0114B984207D0BC
:10086800104B984204D01048C821490000F0F6F80F
:10087800012D04D90C489221FF3100F0EFF8002D2A
:1008880004D0226801231343236003E02368012274
:100898009343236038BDC0460038014000440040FF
:1008A80000480040004C0040681B000838B5041C94
:1008B8000D1C0D4B98420CD00C4B984209D00C4B98
:1008C800984206D00B4B984203D00B480B4900F0D6
:1008D800C5F80B4B9D4203D907480A4900F0BEF8FA
:1008E800ED05ED0D258538BD003801400044004078
:1008F80000480040004C0040681B000895030000B9
:10090800FF0100009603000038B5051C0C1C314B94
:1009180098420CD0304B984209D0304B984206D0C0
:100928002F4B984203D02F482F4900F097F8012CFD
:1009380049D0802C47D0402C45D0202C43D0102CB7
:1009480041D080235B009C423DD080239B009C4289
:1009580039D0082C37D0042C35D0022C33D0802342
:10096800DB009C422FD080231B019C422BD080238C
:100978005B019C4227D08023DB019C4223D080234B
:100988001B029C421FD080235B029C421BD0802309
:100998009B029C4217D08023DB029C4213D0802309
:1009A8001B039C420FD080235B039C420BD0802307
:1009B8009B039C4207D08023DB039C4203D0094859
:1009C8000A4900F04BF8E8690440201C441EA04185
:1009D80038BDC0460038014000440040004800408F
:1009E800004C0040681B00089307000094070000B3
:1009F800FEE7C04608B5034800F054F80120FFF7A9
:100A0800F7FFC0469C1B000808B50D4B1B68002B60
:100A180002D10C4A0A4B1A60094B1B6803300322A7
:100A280090431818084A904206D900F011FC0C238C
:100A380003600120404202E0014A1060181C08BD12
:100A48008C00002030010020001C002001230360DE
:100A5800014B0B607047C0461400002008B5031C0A
:100A68000A1C0348191C00F005F8FFF7C3FFC0462D
:100A7800F01B00080FB400B583B004AB04CB01939E
:100A88000748802100F0FCFC011E03DD044800F04B
:100A980053F8011C081C03B008BC04B01847C04632
:100AA8009400002010B5041C00F0B8FC011C201CA8
:100AB80000F042F80248012100F03EF810BDC0469F
:100AC8001C1C0008F0B55F4656464D464446F0B437
:100AD80085B0041C8A46435C0E1C002B1BD10425E0
:100AE800281C211CABBE041C1DE0351E102D00D98E
:100AF8005D46434604E022786946CA54013301340E
:100B0800AB42F8D36F464246FA544846391CABBE4E
:100B1800071C761B05E010239B460021884604220B
:100B28009146002EE1D1504605B03CBC904699460E
:100B3800A246AB46F0BDC04608B5FFF7C3FF08BDE7
:100B480008B500F05BF808BD82B00023019300935C
:100B5800274B1968802252020A431A60191C802206
:100B68009202A020C0010B6813400093019B01333F
:100B78000193009B002B02D1019B8342F3D11C4BB4
:100B88001B689A0302D50123009301E00023009318
:100B9800009B012B2AD11122164B1A60144B5A685C
:100BA8005A605A685A605968134A0A405A60596824
:100BB800882252030A435A601968802252040A4361
:100BC8001A60191C802292040B681342FCD0084B4F
:100BD8005A6803218A435A60596802220A435A60B4
:100BE800191C0C224B681340082BFBD102B070472C
:100BF8000010024000200240FF7FC0FF08B5124BE2
:100C08001968012211431960586810490140596058
:100C180018680F490140196018680E4901401960A9
:100C280058680D4901405960D96A0F208143D9623B
:100C3800186B0A4901401963596B914359630022A3
:100C48009A60FFF781FF08BD001002400CB8FF084A
:100C5800FFFFF6FEFFFFFBFFFFFFC0FFACFEFFFF3D
:100C68000023037069238360042343600161704794
:100C780083688B4203DD43688900C85802E0042377
:100C8800037300207047C04670B5051C0E1C006831
:100C980000F0EEFA301C00F0C1FB013000F0DEFA83
:100CA800041E04D103232B7300232B6003E0311CA3
:100CB80000F0ACFB2C6070BD70B5051C067B731E84
:100CC8009E41F6B2002408E0281C211CFFF7D0FF43
:100CD80003785A1E93411E430134AB68A342F3DCE8
:100CE800301C70BD38B5041CFFF7C2FF051C201C62
:100CF800FFF7E2FF0023002800D12B7A58B238BD55
:100D0800F0B54F464646C0B485B0061C0C1CFFF72C
:100D1800D3FF002800D0B3E03768381C00F07EFB12
:100D2800421C03258543201C391C00F001F904E00E
:100D3800201C002100F0E4F83D1C6F1E002DF7D1A7
:100D4800201C2C2100F0DCF808E0301C291CFFF7DF
:100D5800C9FFC1B2201C00F0D3F80135B268AA421D
:100D6800F3DC0323934306D1042304E0201C002171
:100D780000F0C6F82B1C5D1E002BF7D100270322BC
:100D880091460423984678E0301C391CFFF770FF21
:100D9800051C8368732B01D0622B12D1201C296992
:100DA8006A6800F0C5F86B685B424A46134004E085
:100DB800201C002100F0A4F82B1C5D1E002BF7D18D
:100DC8005AE0642B11D1173002AA082304E00378F3
:100DD80013700B1C01320138591E002BF7DC201C44
:100DE80002A9082200F0A4F846E0742B2ED1011CB9
:100DF800103102A8082200F045FA01A96A460B3210
:100E0800434604E013780B70031C0131013A581E65
:100E1800002BF7DC019B0093201C6946424600F03A
:100E280087F801A96A460F32434604E013780B702D
:100E3800031C0131013A581E002BF7DC019A00927D
:100E4800201C6946424600F073F815E0542B13D075
:100E5800462B11D0011C133102AA434604E00B783B
:100E68001370031C01320139581E002BF7DC6A6825
:100E7800201C02A900F05CF80137B368BB4283DC90
:100E880005B00CBC90469946F0BDC04610B5041C90
:100E98000069102100F09CFA2061002802D010237C
:100EA800A36103E003232373002323610023636109
:100EB80010BDC04638B5041C002505608560057363
:100EC8004560056145618561FFF7E0FF657338BDE1
:100ED80038B5041C0D1CFFF7EDFF201C291CFFF77B
:100EE800D3FE201C38BDC04610B5041CFFF7E2FF36
:100EF80002232373201C10BD002303707047C046D3
:100F080008B5C02906D1DB2000F02EF9DC2000F05E
:100F18002BF90BE0DB2906D1DB2000F025F9DD20D9
:100F280000F022F902E0081C00F01EF908BDC046D6
:100F380070B5061C06E04D1C0978301CFFF7E0FF71
:100F4800221C291C541E002AF5D170BD08B5C020EA
:100F580000F00AF908BDC04608B5C02000F004F941
:100F680008BDC04630B583B0802000030121FFF7DB
:100F780045FB8024A4000094012369460B710023DB
:100F88008B7103224A71CB71044D281CFFF730F98D
:100F9800281C211CFFF7EAF903B030BD00080048FF
:100FA80008B50C4B1868FA21890000F001F90138DE
:100FB800094B98420DD8094B5860094A106A00023B
:100FC800000AC02109060143116200229A60072223
:100FD8001A6008BD1C000020FFFFFF0010E000E0C1
:100FE80000ED00E0034B18601A1C1368002BFCD1BD
:100FF8007047C04628010020044B1B68002B03D013
:10100800024B1A68013A1A607047C046280100204E
:1010180008B5FFF7F1FF08BD08B5012805D1034B56
:10102800994202D10248FFF767FF08BDFFFF0000A1
:101038001401002070B58EB068462549FFF748FFB7
:10104800182000F0A1F8041C6321FFF709FE23789B
:10105800032B02D16A46137312E0019802990131F9
:10106800890000F0B5F9002803D103236A461373F9
:1010780006E00190029A9300C450029B0133029348
:1010880007A8FFF731FF00F033F8FFF76BFFFFF712
:1010980087FF104E8025AD000F4C301C291CFFF730
:1010A80035F90E48FFF79EFF301C291CFFF75EF943
:1010B800A7204000FFF796FF201CFFF747FF684670
:1010C800211CFFF71DFE201CFFF746FFE5E7C04681
:1010D800541C000800080048140100209A0200006F
:1010E80008B501200149FFF797FF08BDFFFF000081
:1010F80070B588B08024A402201C0121FFF77EFA75
:10110800201C0121FFF7A2FA9025ED05281C0221D9
:101118000122FFF75BF9281C03210122FFF756F98A
:101128000C26009603236A46537102231371002488
:1011380094710123D371281C6946FFF759F8E123FC
:101148005B02029303940494059407940696054C55
:10115800201C02A9FFF7A2FA201C0121FFF774FB4B
:1011680008B070BD0044004038B5051C054C201C73
:101178008021FFF7C9FB0028F9D00248291CFFF796
:1011880095FB38BD0044004010B5041E02D101246F
:1011980000E09847201C00F061F8002805D1034BB7
:1011A8001B68002BF5D1FFF725FC10BD18010020A6
:1011B800002934D00123002210B488422CD3012402
:1011C8002407A14204D2814202D209011B01F8E797
:1011D800E400A14204D2814202D249005B00F8E750
:1011E800884201D3401A1A434C08A04202D3001B7C
:1011F8005C0822438C08A04202D3001B9C082243AF
:10120800CC08A04202D3001BDC082243002803D0EC
:101218001B0901D00909E3E7101C10BC704700281E
:1012280001D00020C04307B4024802A14018029030
:1012380003BDC046190000000029F0D003B5FFF730
:10124800B9FF0EBC4243891A1847C0467047C046CA
:10125800014B18687047C0468000002008B5034B52
:10126800011C186800F060F808BDC0468000002026
:1012780008B5034B011C186800F00EF808BDC046FD
:101288008000002010B50023934203D0CC5CC454E6
:101298000133F9E710BD000030B5002940D004390A
:1012A8000B68002B00DAC9181E4A1368141C002B9F
:1012B80002D14B60116033E099420FD208680A18D6
:1012C8009A4205D113685268C01808604A6000E065
:1012D8004B60216024E08A4203D8131C5A68002A14
:1012E800F9D11D685C198C420BD109686918581826
:1012F8001960904214D114685268091919605A602B
:101308000EE08C4202D90C23036009E008680C182F
:10131800944203D114685268001908604A60596001
:1013280030BDC0462001002070B50323CD1C9D436D
:101338000835061C0C2D01D20C2501E0002D3FDBE1
:101348008D423DD3204B1C681A1C211C002913D048
:101358000868431B0DD40B2B02D90B60CC181EE078
:101368008C4202D1636813601AE0486860600C1C04
:1013780016E00C1C4968E9E7144C2068002803D1E2
:10138800301C00F031F82060301C291C00F02CF8CB
:10139800431C15D0C41C03239C4384420AD12560F6
:1013A800201C0B300722231D9043C31A0BD05A422E
:1013B800E25008E0211A301C00F016F80130EED196
:1013C8000C233360002070BD200100201C01002088
:1013D80008B50A1C0349031C0868191C00F060F8CA
:1013E80008BDC0468000002038B5074C0023051C06
:1013F800081C2360FFF708FB431C03D12368002B5C
:1014080000D02B6038BDC04624010020031C0A7898
:1014180001311A700133002AF9D170470023C25CE8
:101428000133002AFBD1581E704730B5051C9BB00C
:10143800141E04DA8B230360012040421DE082223F
:101448009200684600910491002182818C4200D06C
:10145800611E01225242029105916946CA81281CE7
:101468001A1C1E9B00F0A2F8421C01DA8B232B6089
:10147800002C02D0009900230B701BB030BD000077
:1014880073B5141C054A061C0D1C1068311C00930A
:101498002A1C231CFFF7C9FF76BDC0468000002028
:1014A800F8B5061C0C1C151C002904D1111CFFF7EB
:1014B8003BFF041C18E0002A03D1FFF7EDFE2C1CAB
:1014C80012E000F011FBA8420ED2301C291CFFF7D5
:1014D8002BFF071E07D0211C2A1CFFF7D3FE301C48
:1014E800211CFFF7D9FE3C1C201CF8BDF0B58D6807
:1014F80085B0071C0C1C03920193AB4245D3902284
:101508008B89D20013423DD062690326564309698C
:101518002068F20F401A96190290021C01980132B5
:1015280012187610964200D2161C381C5A050FD590
:10153800311CFFF7F9FE051E13D0029A2169FFF747
:10154800A1FEA289184B134080221343A38111E006
:10155800321CFFF7A5FF051E0CD1381C2169FFF7C7
:101568009BFE0C233B60A389402213430120A381E7
:10157800404217E0029B2561ED1825606661019DD8
:10158800F61AA6600198A84200D2019D2A1C20687C
:10159800039900F090FAA2680020531BA360236807
:1015A8005D19256005B0F0BD7FFBFFFFF0B59FB06A
:1015B800039005938B890E1C171C19060FD53269E9
:1015C800002A0CD14021FFF7AFFE306030610028BF
:1015D80003D103990C230B60C9E04023736106AD66
:1015E80000236B6120236B763023AB763C1C237879
:1015F800002B03D1E21B029211D003E0252BF9D076
:101608000134F4E70398311C3A1C029BFFF76EFF84
:10161800013000D1A6E06969029A8B186B612378C2
:10162800002B00D19EE0012252426A606A460023E4
:101638005B3201342B60EB60AB601370AB654E4FCF
:101648002178381C052200F02BFA002807D0C71B88
:101658002B680120B840184328600134EFE72B6855
:10166800D90603D56A4620215B3211701A0703D5C3
:101678006A462B215B32117022782A2A01D0099BF5
:101688000EE0059A111D12680591002A01DB0992E6
:1016980004E05242EA60022213432B60013409E05D
:1016A8002278303A092A04D80A214B4301349B187E
:1016B800F6E7099323782E2B18D163782A2B09D1C2
:1016C800059B02341A1D1B680592002B0DDA0123B5
:1016D8005B420AE0013400232278303A092A04D810
:1016E8000A214B4301349B18F6E70793234F2178CF
:1016F800381C032200F0D4F9002806D0C71B2B6839
:101708004020B84018432860013421781C4806223C
:10171800671C297600F0C4F9002812D0194B002B59
:1017280006D1059B0722073393430833059314E03A
:1017380005AB00930398291C321C134B00E000BF33
:1017480007E005AB00930398291C321C0E4B00F0F0
:1017580091F804900499013104D06A6904995318E6
:101768006B6143E7B3895A0601D40B9801E0012065
:1017780040421FB0F0BDC046621C0008681C00084B
:101788006C1C000800000000F5140008F7B5151CD3
:1017980001930A698B68061C0C1C934200DA131C1F
:1017A800221C2B6043321278002A01D001332B60AF
:1017B8002068800602D52B6802332B602168062733
:1017C8000F401FD0231C43331B785A1E93412268B5
:1017D80092061FD5E11840313020C870211C5A1CD0
:1017E80045310978A21840320233D17012E0221C28
:1017F800301C019919320123089FB847013011D0D4
:10180800009F01370097E0682968009F431A9F42AC
:10181800EDDBD7E7221C301C01994332089FB847FB
:10182800013002D10120404223E0206806212B68C4
:10183800E26801400025042903D1D51AEB43DB17E0
:101848001D40A26823699A4201DDD31AED180027CA
:101858000097009FAF420BDA221C301C01991A3204
:101868000123089FB8470130DCD0009F0137EFE71C
:101878000020FEBDF0B50D1C8BB0433506920590D7
:10188800079304950B7E0C1C109A6E2B00D1A7E0D1
:1018980011D8632B22D009D8002B00D1B0E0582BE7
:1018A80000D0C0E045310B707B4D4EE0642B1CD05E
:1018B800692B1AD0B7E0732B00D1A5E009D86F2B9C
:1018C80029D0702B00D0AEE00E68202333430B6084
:1018D80036E0752B1FD0782B32D0A4E013680D1C8E
:1018E800191D423511601B689FE0216813680E06B8
:1018F80003D5191D11601E6805E04806F9D5191DA4
:10190800116000215E5E644B002E3BDA049D2D229F
:1019180076422A7036E0216813680E0603D5191D31
:1019280011601E6804E04806F9D5191D1E8811606B
:10193800594B227E039308276F2A1ED00A271CE0E2
:10194800231C78214533554D197011682368081DEB
:10195800039510601E0601D50E6802E05806FBD5F7
:101968000E88D90702D52022134323601027002EA2
:1019780003D1226820239A432260231C0022433388
:101988001A7001E003930A276368A360002B03DB46
:101998002568042295432560002E02D1049D002B62
:1019A8000ED0049D301C391CFFF746FC0398013DFE
:1019B800435C301C2B70391CFFF7FAFB061EF1D173
:1019C800082F09D12168C90706D5626823699A4298
:1019D80002DC013D30232B70049E731B23612AE037
:1019E800086813684969050604D5181D10601B6846
:1019F800196005E04606F8D5181D10601B681980A7
:101A080000232361049D16E01368191D11601D68E9
:101A1800281CFFF703FD63682061984200D9236101
:101A28002069606004E0251C42352B700123236186
:101A3800049E00233370079E05980096211C09AA6E
:101A4800069BFFF7A3FE013002D10120404221E0AE
:101A58002A1C059806992369079DA8470130F4D0E8
:101A68002668B60705D4099BE068984212DA181C64
:101A780010E00025E0680999431A9D42F3DA221C18
:101A88000598069919320123079EB0470130DCD02A
:101A98000135EFE70BB0F0BD731C0008841C00088B
:101AA800C9B28218904204D003788B4202D0013028
:101AB800F8E70020704770B5814201D300230CE09D
:101AC8008C18A042FAD28518131C013B0BD3514243
:101AD8006618F65C6918CE54F7E7934203D0CC5CDD
:101AE800C4540133F9E770BD04390B68181F002B83
:101AF80002DAC8581B18181F704700002E2E2F73C3
:101B0800797374656D2F7372632F73746D333266D6
:101B1800302D7374647065726970682F73746D33D7
:101B280032663078785F6770696F2E630000000056
:101B38002E2E2F73797374656D2F7372632F7374E0
:101B48006D333266302D7374647065726970682FF6
:101B580073746D3332663078785F7263632E630016
:101B68002E2E2F73797374656D2F7372632F7374B0
:101B78006D333266302D7374647065726970682FC6
:101B880073746D3332663078785F75736172742E52
:101B98006300000061626F727428292C20657869DF
:101BA80074696E672E2E2E002C2066756E6374691C
:101BB8006F6E3A2000000000617373657274696F7C
:101BC8006E2022257322206661696C65643A20665E
:101BD800696C6520222573222C206C696E6520258E
:101BE80064257325730A00006173736572745F70EE
:101BF8006172616D2829206661696C65643A2066A6
:101C0800696C6520222573222C206C696E6520255D
:101C1800640A00000A0000006D61696E286172673D
:101C2800633D25642C20617267763D5B00000000EF
:101C38002C20000022257322000000005D293B0AA9
:101C48000000000061736466000000002F7468697A
:101C58006E672F74657374004300232D302B2000AA
:101C6800686C4C006566674546470030313233344E
:101C780035363738394142434445460030313233EE
:0D1C880034353637383961626364656600B3
:101C98007856341200000000010203040102030414
:101CA800060708099000002000000000006CDC0214
:101CB800000000000000000000000000000000001C
:101CC800000000000000000000000000000000000C
:101CD800601C000800000000000000000000000078
:101CE80000000000000000000000000000000000EC
:101CF80000000000000000000000000000000000DC
:101D080000000000000000000000000000000000CB
:081D18002000002032547698EF
:04000005080000C52A
:00000001FF
